{
  "contractName": "TaxiTxRx",
  "abi": [
    {
      "inputs": [],
      "stateMutability": "nonpayable",
      "type": "constructor"
    },
    {
      "anonymous": false,
      "inputs": [
        {
          "indexed": true,
          "internalType": "address",
          "name": "addr",
          "type": "address"
        }
      ],
      "name": "acceptReservEvent",
      "type": "event"
    },
    {
      "anonymous": false,
      "inputs": [],
      "name": "addReservEvent",
      "type": "event"
    },
    {
      "anonymous": false,
      "inputs": [
        {
          "indexed": true,
          "internalType": "address",
          "name": "addr",
          "type": "address"
        }
      ],
      "name": "cancelLastReservEvent",
      "type": "event"
    },
    {
      "anonymous": false,
      "inputs": [
        {
          "indexed": true,
          "internalType": "address",
          "name": "addr",
          "type": "address"
        }
      ],
      "name": "checkInTaxiEvent",
      "type": "event"
    },
    {
      "anonymous": false,
      "inputs": [
        {
          "indexed": true,
          "internalType": "address",
          "name": "addr",
          "type": "address"
        }
      ],
      "name": "checkOutTaxiEvent",
      "type": "event"
    },
    {
      "anonymous": false,
      "inputs": [
        {
          "indexed": true,
          "internalType": "address",
          "name": "addr",
          "type": "address"
        }
      ],
      "name": "payCompleteEvent",
      "type": "event"
    },
    {
      "inputs": [
        {
          "internalType": "address",
          "name": "",
          "type": "address"
        }
      ],
      "name": "drivers",
      "outputs": [
        {
          "internalType": "bytes16",
          "name": "phone_number",
          "type": "bytes16"
        },
        {
          "internalType": "bytes16",
          "name": "car_number",
          "type": "bytes16"
        },
        {
          "internalType": "bytes32",
          "name": "name",
          "type": "bytes32"
        },
        {
          "internalType": "bytes32",
          "name": "nickname",
          "type": "bytes32"
        },
        {
          "internalType": "bytes32",
          "name": "email",
          "type": "bytes32"
        },
        {
          "internalType": "address",
          "name": "target",
          "type": "address"
        },
        {
          "internalType": "bool",
          "name": "created",
          "type": "bool"
        },
        {
          "internalType": "bool",
          "name": "driving",
          "type": "bool"
        }
      ],
      "stateMutability": "view",
      "type": "function",
      "constant": true
    },
    {
      "inputs": [],
      "name": "owner",
      "outputs": [
        {
          "internalType": "address",
          "name": "",
          "type": "address"
        }
      ],
      "stateMutability": "view",
      "type": "function",
      "constant": true
    },
    {
      "inputs": [
        {
          "internalType": "address",
          "name": "",
          "type": "address"
        },
        {
          "internalType": "uint256",
          "name": "",
          "type": "uint256"
        }
      ],
      "name": "user_reservs",
      "outputs": [
        {
          "internalType": "address",
          "name": "target",
          "type": "address"
        },
        {
          "internalType": "address",
          "name": "driver",
          "type": "address"
        },
        {
          "internalType": "uint256",
          "name": "occur",
          "type": "uint256"
        },
        {
          "internalType": "uint256",
          "name": "start",
          "type": "uint256"
        },
        {
          "internalType": "uint256",
          "name": "end",
          "type": "uint256"
        },
        {
          "internalType": "uint16",
          "name": "paid",
          "type": "uint16"
        },
        {
          "internalType": "bool",
          "name": "pay_completed",
          "type": "bool"
        },
        {
          "internalType": "bool",
          "name": "cancelled",
          "type": "bool"
        },
        {
          "internalType": "string",
          "name": "start_point",
          "type": "string"
        },
        {
          "internalType": "string",
          "name": "dest_point",
          "type": "string"
        }
      ],
      "stateMutability": "view",
      "type": "function",
      "constant": true
    },
    {
      "inputs": [
        {
          "internalType": "address",
          "name": "",
          "type": "address"
        }
      ],
      "name": "users",
      "outputs": [
        {
          "internalType": "bytes16",
          "name": "phone_number",
          "type": "bytes16"
        },
        {
          "internalType": "bytes32",
          "name": "name",
          "type": "bytes32"
        },
        {
          "internalType": "bytes32",
          "name": "nickname",
          "type": "bytes32"
        },
        {
          "internalType": "bytes32",
          "name": "email",
          "type": "bytes32"
        },
        {
          "internalType": "bool",
          "name": "created",
          "type": "bool"
        }
      ],
      "stateMutability": "view",
      "type": "function",
      "constant": true
    },
    {
      "inputs": [
        {
          "internalType": "address",
          "name": "caller",
          "type": "address"
        }
      ],
      "name": "getStringUser",
      "outputs": [
        {
          "components": [
            {
              "internalType": "string",
              "name": "phone_number",
              "type": "string"
            },
            {
              "internalType": "string",
              "name": "name",
              "type": "string"
            },
            {
              "internalType": "string",
              "name": "nickname",
              "type": "string"
            },
            {
              "internalType": "string",
              "name": "email",
              "type": "string"
            },
            {
              "internalType": "bool",
              "name": "created",
              "type": "bool"
            }
          ],
          "internalType": "struct TaxiTxRx.StringUser",
          "name": "",
          "type": "tuple"
        }
      ],
      "stateMutability": "view",
      "type": "function",
      "constant": true
    },
    {
      "inputs": [
        {
          "internalType": "address",
          "name": "caller",
          "type": "address"
        }
      ],
      "name": "getLastReservation",
      "outputs": [
        {
          "components": [
            {
              "internalType": "address",
              "name": "target",
              "type": "address"
            },
            {
              "internalType": "address",
              "name": "driver",
              "type": "address"
            },
            {
              "internalType": "uint256",
              "name": "occur",
              "type": "uint256"
            },
            {
              "internalType": "uint256",
              "name": "start",
              "type": "uint256"
            },
            {
              "internalType": "uint256",
              "name": "end",
              "type": "uint256"
            },
            {
              "internalType": "uint16",
              "name": "paid",
              "type": "uint16"
            },
            {
              "internalType": "bool",
              "name": "pay_completed",
              "type": "bool"
            },
            {
              "internalType": "bool",
              "name": "cancelled",
              "type": "bool"
            },
            {
              "internalType": "string",
              "name": "start_point",
              "type": "string"
            },
            {
              "internalType": "string",
              "name": "dest_point",
              "type": "string"
            }
          ],
          "internalType": "struct TaxiTxRx.Reservation",
          "name": "",
          "type": "tuple"
        }
      ],
      "stateMutability": "view",
      "type": "function",
      "constant": true
    },
    {
      "inputs": [
        {
          "internalType": "address",
          "name": "caller",
          "type": "address"
        }
      ],
      "name": "getReservationList",
      "outputs": [
        {
          "components": [
            {
              "internalType": "address",
              "name": "target",
              "type": "address"
            },
            {
              "internalType": "address",
              "name": "driver",
              "type": "address"
            },
            {
              "internalType": "uint256",
              "name": "occur",
              "type": "uint256"
            },
            {
              "internalType": "uint256",
              "name": "start",
              "type": "uint256"
            },
            {
              "internalType": "uint256",
              "name": "end",
              "type": "uint256"
            },
            {
              "internalType": "uint16",
              "name": "paid",
              "type": "uint16"
            },
            {
              "internalType": "bool",
              "name": "pay_completed",
              "type": "bool"
            },
            {
              "internalType": "bool",
              "name": "cancelled",
              "type": "bool"
            },
            {
              "internalType": "string",
              "name": "start_point",
              "type": "string"
            },
            {
              "internalType": "string",
              "name": "dest_point",
              "type": "string"
            }
          ],
          "internalType": "struct TaxiTxRx.Reservation[]",
          "name": "",
          "type": "tuple[]"
        }
      ],
      "stateMutability": "view",
      "type": "function",
      "constant": true
    },
    {
      "inputs": [
        {
          "internalType": "string",
          "name": "phone_number",
          "type": "string"
        },
        {
          "internalType": "string",
          "name": "name",
          "type": "string"
        },
        {
          "internalType": "string",
          "name": "nickname",
          "type": "string"
        },
        {
          "internalType": "string",
          "name": "email",
          "type": "string"
        }
      ],
      "name": "addUser",
      "outputs": [],
      "stateMutability": "nonpayable",
      "type": "function"
    },
    {
      "inputs": [
        {
          "internalType": "string",
          "name": "sp",
          "type": "string"
        },
        {
          "internalType": "string",
          "name": "dp",
          "type": "string"
        }
      ],
      "name": "addReserv",
      "outputs": [],
      "stateMutability": "nonpayable",
      "type": "function"
    },
    {
      "inputs": [],
      "name": "cancelLastReserv",
      "outputs": [],
      "stateMutability": "nonpayable",
      "type": "function"
    },
    {
      "inputs": [],
      "name": "setPayCompleteLastReserv",
      "outputs": [],
      "stateMutability": "nonpayable",
      "type": "function"
    },
    {
      "inputs": [
        {
          "internalType": "address",
          "name": "caller",
          "type": "address"
        }
      ],
      "name": "getStringDriver",
      "outputs": [
        {
          "components": [
            {
              "internalType": "string",
              "name": "phone_number",
              "type": "string"
            },
            {
              "internalType": "string",
              "name": "car_number",
              "type": "string"
            },
            {
              "internalType": "string",
              "name": "name",
              "type": "string"
            },
            {
              "internalType": "string",
              "name": "nickname",
              "type": "string"
            },
            {
              "internalType": "string",
              "name": "email",
              "type": "string"
            },
            {
              "internalType": "address",
              "name": "target",
              "type": "address"
            },
            {
              "internalType": "bool",
              "name": "created",
              "type": "bool"
            },
            {
              "internalType": "bool",
              "name": "driving",
              "type": "bool"
            }
          ],
          "internalType": "struct TaxiTxRx.StringDriver",
          "name": "",
          "type": "tuple"
        }
      ],
      "stateMutability": "view",
      "type": "function",
      "constant": true
    },
    {
      "inputs": [
        {
          "internalType": "string",
          "name": "phone_number",
          "type": "string"
        },
        {
          "internalType": "string",
          "name": "car_number",
          "type": "string"
        },
        {
          "internalType": "string",
          "name": "name",
          "type": "string"
        },
        {
          "internalType": "string",
          "name": "nickname",
          "type": "string"
        },
        {
          "internalType": "string",
          "name": "email",
          "type": "string"
        }
      ],
      "name": "addDriver",
      "outputs": [],
      "stateMutability": "nonpayable",
      "type": "function"
    },
    {
      "inputs": [
        {
          "internalType": "address",
          "name": "target",
          "type": "address"
        }
      ],
      "name": "acceptReserv",
      "outputs": [],
      "stateMutability": "nonpayable",
      "type": "function"
    },
    {
      "inputs": [],
      "name": "checkInTaxi",
      "outputs": [],
      "stateMutability": "nonpayable",
      "type": "function"
    },
    {
      "inputs": [
        {
          "internalType": "uint16",
          "name": "paid",
          "type": "uint16"
        }
      ],
      "name": "checkOutTaxi",
      "outputs": [],
      "stateMutability": "nonpayable",
      "type": "function"
    },
    {
      "inputs": [
        {
          "internalType": "uint256",
          "name": "length",
          "type": "uint256"
        },
        {
          "internalType": "uint256",
          "name": "cursor",
          "type": "uint256"
        }
      ],
      "name": "fetchReserv",
      "outputs": [
        {
          "components": [
            {
              "internalType": "address",
              "name": "target",
              "type": "address"
            },
            {
              "internalType": "address",
              "name": "driver",
              "type": "address"
            },
            {
              "internalType": "uint256",
              "name": "occur",
              "type": "uint256"
            },
            {
              "internalType": "uint256",
              "name": "start",
              "type": "uint256"
            },
            {
              "internalType": "uint256",
              "name": "end",
              "type": "uint256"
            },
            {
              "internalType": "uint16",
              "name": "paid",
              "type": "uint16"
            },
            {
              "internalType": "bool",
              "name": "pay_completed",
              "type": "bool"
            },
            {
              "internalType": "bool",
              "name": "cancelled",
              "type": "bool"
            },
            {
              "internalType": "string",
              "name": "start_point",
              "type": "string"
            },
            {
              "internalType": "string",
              "name": "dest_point",
              "type": "string"
            }
          ],
          "internalType": "struct TaxiTxRx.Reservation[]",
          "name": "",
          "type": "tuple[]"
        },
        {
          "internalType": "uint256",
          "name": "",
          "type": "uint256"
        }
      ],
      "stateMutability": "view",
      "type": "function",
      "constant": true
    },
    {
      "inputs": [
        {
          "components": [
            {
              "internalType": "bytes16",
              "name": "phone_number",
              "type": "bytes16"
            },
            {
              "internalType": "bytes32",
              "name": "name",
              "type": "bytes32"
            },
            {
              "internalType": "bytes32",
              "name": "nickname",
              "type": "bytes32"
            },
            {
              "internalType": "bytes32",
              "name": "email",
              "type": "bytes32"
            },
            {
              "internalType": "bool",
              "name": "created",
              "type": "bool"
            }
          ],
          "internalType": "struct TaxiTxRx.User",
          "name": "x",
          "type": "tuple"
        }
      ],
      "name": "ToStringUser",
      "outputs": [
        {
          "components": [
            {
              "internalType": "string",
              "name": "phone_number",
              "type": "string"
            },
            {
              "internalType": "string",
              "name": "name",
              "type": "string"
            },
            {
              "internalType": "string",
              "name": "nickname",
              "type": "string"
            },
            {
              "internalType": "string",
              "name": "email",
              "type": "string"
            },
            {
              "internalType": "bool",
              "name": "created",
              "type": "bool"
            }
          ],
          "internalType": "struct TaxiTxRx.StringUser",
          "name": "",
          "type": "tuple"
        }
      ],
      "stateMutability": "pure",
      "type": "function",
      "constant": true
    },
    {
      "inputs": [
        {
          "components": [
            {
              "internalType": "bytes16",
              "name": "phone_number",
              "type": "bytes16"
            },
            {
              "internalType": "bytes16",
              "name": "car_number",
              "type": "bytes16"
            },
            {
              "internalType": "bytes32",
              "name": "name",
              "type": "bytes32"
            },
            {
              "internalType": "bytes32",
              "name": "nickname",
              "type": "bytes32"
            },
            {
              "internalType": "bytes32",
              "name": "email",
              "type": "bytes32"
            },
            {
              "internalType": "address",
              "name": "target",
              "type": "address"
            },
            {
              "internalType": "bool",
              "name": "created",
              "type": "bool"
            },
            {
              "internalType": "bool",
              "name": "driving",
              "type": "bool"
            }
          ],
          "internalType": "struct TaxiTxRx.Driver",
          "name": "x",
          "type": "tuple"
        }
      ],
      "name": "ToStringDriver",
      "outputs": [
        {
          "components": [
            {
              "internalType": "string",
              "name": "phone_number",
              "type": "string"
            },
            {
              "internalType": "string",
              "name": "car_number",
              "type": "string"
            },
            {
              "internalType": "string",
              "name": "name",
              "type": "string"
            },
            {
              "internalType": "string",
              "name": "nickname",
              "type": "string"
            },
            {
              "internalType": "string",
              "name": "email",
              "type": "string"
            },
            {
              "internalType": "address",
              "name": "target",
              "type": "address"
            },
            {
              "internalType": "bool",
              "name": "created",
              "type": "bool"
            },
            {
              "internalType": "bool",
              "name": "driving",
              "type": "bool"
            }
          ],
          "internalType": "struct TaxiTxRx.StringDriver",
          "name": "",
          "type": "tuple"
        }
      ],
      "stateMutability": "pure",
      "type": "function",
      "constant": true
    }
  ],
  "bytecode": "0x608060405234801561001057600080fd5b50336000806101000a81548173ffffffffffffffffffffffffffffffffffffffff021916908373ffffffffffffffffffffffffffffffffffffffff1602179055506142d1806100606000396000f3fe608060405234801561001057600080fd5b50600436106101215760003560e01c806388372f86116100ad578063ab4a9d5411610071578063ab4a9d5414610352578063b23a62f91461036e578063b9e5312a14610378578063d2816419146103a8578063e2e1d18b146103d957610121565b806388372f86146102845780638da5cb5b146102b45780639e23195c146102d2578063a79a3671146102ee578063a87430ba1461031e57610121565b80633410671d116100f45780633410671d146101aa57806343860167146101b45780634aa60186146101e4578063823c63f21461021b578063863eb5c91461025457610121565b806301cda3ac1461012657806303c0b57e146101425780631522d75b1461015e5780632a1e0b781461017a575b600080fd5b610140600480360381019061013b91906131aa565b6103e3565b005b61015c60048036038101906101579190613281565b610556565b005b610178600480360381019061017391906133c2565b6107a8565b005b610194600480360381019061018f919061344d565b610b2c565b6040516101a19190613635565b60405180910390f35b6101b2610e9e565b005b6101ce60048036038101906101c9919061344d565b611237565b6040516101db9190613723565b60405180910390f35b6101fe60048036038101906101f9919061344d565b61141d565b6040516102129897969594939291906137b7565b60405180910390f35b61023560048036038101906102309190613861565b6114b9565b60405161024b9a99989796959493929190613909565b60405180910390f35b61026e60048036038101906102699190613ac8565b6116a2565b60405161027b9190613b80565b60405180910390f35b61029e60048036038101906102999190613c6c565b611723565b6040516102ab9190613723565b60405180910390f35b6102bc611809565b6040516102c99190613c9a565b60405180910390f35b6102ec60048036038101906102e7919061344d565b61182d565b005b6103086004803603810190610303919061344d565b611ac3565b6040516103159190613e58565b60405180910390f35b6103386004803603810190610333919061344d565b611e06565b604051610349959493929190613e7a565b60405180910390f35b61036c60048036038101906103679190613ecd565b611e56565b005b610376612231565b005b610392600480360381019061038d919061344d565b61255d565b60405161039f9190613b80565b60405180910390f35b6103c260048036038101906103bd9190613f45565b612694565b6040516103d0929190613f85565b60405180910390f35b6103e16127fe565b005b60001515600160003373ffffffffffffffffffffffffffffffffffffffff1673ffffffffffffffffffffffffffffffffffffffff16815260200190815260200160002060040160009054906101000a900460ff1615151461044357600080fd5b6040518060a00160405280610457866129de565b6fffffffffffffffffffffffffffffffff19168152602001610478856129f1565b8152602001610486846129f1565b8152602001610494836129f1565b815260200160011515815250600160003373ffffffffffffffffffffffffffffffffffffffff1673ffffffffffffffffffffffffffffffffffffffff16815260200190815260200160002060008201518160000160006101000a8154816fffffffffffffffffffffffffffffffff021916908360801c021790555060208201518160010155604082015181600201556060820151816003015560808201518160040160006101000a81548160ff02191690831515021790555090505050505050565b60001515600260003373ffffffffffffffffffffffffffffffffffffffff1673ffffffffffffffffffffffffffffffffffffffff16815260200190815260200160002060040160149054906101000a900460ff161515146105b657600080fd5b6040518061010001604052806105cb876129de565b6fffffffffffffffffffffffffffffffff191681526020016105ec866129de565b6fffffffffffffffffffffffffffffffff1916815260200161060d856129f1565b815260200161061b846129f1565b8152602001610629836129f1565b81526020013373ffffffffffffffffffffffffffffffffffffffff16815260200160011515815260200160001515815250600260003373ffffffffffffffffffffffffffffffffffffffff1673ffffffffffffffffffffffffffffffffffffffff16815260200190815260200160002060008201518160000160006101000a8154816fffffffffffffffffffffffffffffffff021916908360801c021790555060208201518160000160106101000a8154816fffffffffffffffffffffffffffffffff021916908360801c021790555060408201518160010155606082015181600201556080820151816003015560a08201518160040160006101000a81548173ffffffffffffffffffffffffffffffffffffffff021916908373ffffffffffffffffffffffffffffffffffffffff16021790555060c08201518160040160146101000a81548160ff02191690831515021790555060e08201518160040160156101000a81548160ff0219169083151502179055509050505050505050565b60011515600260003373ffffffffffffffffffffffffffffffffffffffff1673ffffffffffffffffffffffffffffffffffffffff16815260200190815260200160002060040160149054906101000a900460ff1615151480156108575750600260003373ffffffffffffffffffffffffffffffffffffffff1673ffffffffffffffffffffffffffffffffffffffff16815260200190815260200160002060040160159054906101000a900460ff165b61086057600080fd5b6000600260003373ffffffffffffffffffffffffffffffffffffffff1673ffffffffffffffffffffffffffffffffffffffff168152602001908152602001600020604051806101000160405290816000820160009054906101000a900460801b6fffffffffffffffffffffffffffffffff19166fffffffffffffffffffffffffffffffff191681526020016000820160109054906101000a900460801b6fffffffffffffffffffffffffffffffff19166fffffffffffffffffffffffffffffffff191681526020016001820154815260200160028201548152602001600382015481526020016004820160009054906101000a900473ffffffffffffffffffffffffffffffffffffffff1673ffffffffffffffffffffffffffffffffffffffff1673ffffffffffffffffffffffffffffffffffffffff1681526020016004820160149054906101000a900460ff161515151581526020016004820160159054906101000a900460ff161515151581525050905060008160a00151905060011515600160008373ffffffffffffffffffffffffffffffffffffffff1673ffffffffffffffffffffffffffffffffffffffff16815260200190815260200160002060040160009054906101000a900460ff161515148015610a8157506000600360008373ffffffffffffffffffffffffffffffffffffffff1673ffffffffffffffffffffffffffffffffffffffff16815260200190815260200160002080549050115b610a8a57600080fd5b6000610a9582612a04565b9050428160040181905550838160050160006101000a81548161ffff021916908361ffff1602179055508060000160009054906101000a900473ffffffffffffffffffffffffffffffffffffffff1673ffffffffffffffffffffffffffffffffffffffff167f21babe125c5c1c150251f23a193b80984b331789fe193b4bd254674cafc9cbb160405160405180910390a250505050565b610b34612e56565b60011515600160008473ffffffffffffffffffffffffffffffffffffffff1673ffffffffffffffffffffffffffffffffffffffff16815260200190815260200160002060040160009054906101000a900460ff16151514610b9457600080fd5b6000600360008473ffffffffffffffffffffffffffffffffffffffff1673ffffffffffffffffffffffffffffffffffffffff168152602001908152602001600020805490509050600360008473ffffffffffffffffffffffffffffffffffffffff1673ffffffffffffffffffffffffffffffffffffffff168152602001908152602001600020600182610c279190613fe4565b81548110610c3857610c37614018565b5b9060005260206000209060080201604051806101400160405290816000820160009054906101000a900473ffffffffffffffffffffffffffffffffffffffff1673ffffffffffffffffffffffffffffffffffffffff1673ffffffffffffffffffffffffffffffffffffffff1681526020016001820160009054906101000a900473ffffffffffffffffffffffffffffffffffffffff1673ffffffffffffffffffffffffffffffffffffffff1673ffffffffffffffffffffffffffffffffffffffff1681526020016002820154815260200160038201548152602001600482015481526020016005820160009054906101000a900461ffff1661ffff1661ffff1681526020016005820160029054906101000a900460ff161515151581526020016005820160039054906101000a900460ff16151515158152602001600682018054610d8290614076565b80601f0160208091040260200160405190810160405280929190818152602001828054610dae90614076565b8015610dfb5780601f10610dd057610100808354040283529160200191610dfb565b820191906000526020600020905b815481529060010190602001808311610dde57829003601f168201915b50505050508152602001600782018054610e1490614076565b80601f0160208091040260200160405190810160405280929190818152602001828054610e4090614076565b8015610e8d5780601f10610e6257610100808354040283529160200191610e8d565b820191906000526020600020905b815481529060010190602001808311610e7057829003601f168201915b505050505081525050915050919050565b60011515600160003373ffffffffffffffffffffffffffffffffffffffff1673ffffffffffffffffffffffffffffffffffffffff16815260200190815260200160002060040160009054906101000a900460ff161515148015610f5b57506000600360003373ffffffffffffffffffffffffffffffffffffffff1673ffffffffffffffffffffffffffffffffffffffff16815260200190815260200160002080549050118015610f5a57506000610f5433610b2c565b60600151145b5b610f6457600080fd5b6000610f6f33612a04565b90503373ffffffffffffffffffffffffffffffffffffffff168160010160009054906101000a900473ffffffffffffffffffffffffffffffffffffffff1673ffffffffffffffffffffffffffffffffffffffff160361118e576000600360008360000160009054906101000a900473ffffffffffffffffffffffffffffffffffffffff1673ffffffffffffffffffffffffffffffffffffffff1673ffffffffffffffffffffffffffffffffffffffff168152602001908152602001600020805490509050600360008360000160009054906101000a900473ffffffffffffffffffffffffffffffffffffffff1673ffffffffffffffffffffffffffffffffffffffff1673ffffffffffffffffffffffffffffffffffffffff1681526020019081526020016000206001826110a39190613fe4565b815481106110b4576110b3614018565b5b9060005260206000209060080201600080820160006101000a81549073ffffffffffffffffffffffffffffffffffffffff02191690556001820160006101000a81549073ffffffffffffffffffffffffffffffffffffffff02191690556002820160009055600382016000905560048201600090556005820160006101000a81549061ffff02191690556005820160026101000a81549060ff02191690556005820160036101000a81549060ff02191690556006820160006111769190612edd565b6007820160006111869190612edd565b505050611234565b60018160050160036101000a81548160ff0219169083151502179055506103e88160050160006101000a81548161ffff021916908361ffff1602179055508060000160009054906101000a900473ffffffffffffffffffffffffffffffffffffffff1673ffffffffffffffffffffffffffffffffffffffff167ff3aa2fff284996e4fa38020c266c1d44b0d11899054a26f3d96dd8c46bdcc03a60405160405180910390a25b50565b61123f612f1d565b60011515600260008473ffffffffffffffffffffffffffffffffffffffff1673ffffffffffffffffffffffffffffffffffffffff16815260200190815260200160002060040160149054906101000a900460ff1615151461129f57600080fd5b611416600260008473ffffffffffffffffffffffffffffffffffffffff1673ffffffffffffffffffffffffffffffffffffffff168152602001908152602001600020604051806101000160405290816000820160009054906101000a900460801b6fffffffffffffffffffffffffffffffff19166fffffffffffffffffffffffffffffffff191681526020016000820160109054906101000a900460801b6fffffffffffffffffffffffffffffffff19166fffffffffffffffffffffffffffffffff191681526020016001820154815260200160028201548152602001600382015481526020016004820160009054906101000a900473ffffffffffffffffffffffffffffffffffffffff1673ffffffffffffffffffffffffffffffffffffffff1673ffffffffffffffffffffffffffffffffffffffff1681526020016004820160149054906101000a900460ff161515151581526020016004820160159054906101000a900460ff161515151581525050611723565b9050919050565b60026020528060005260406000206000915090508060000160009054906101000a900460801b908060000160109054906101000a900460801b908060010154908060020154908060030154908060040160009054906101000a900473ffffffffffffffffffffffffffffffffffffffff16908060040160149054906101000a900460ff16908060040160159054906101000a900460ff16905088565b600360205281600052604060002081815481106114d557600080fd5b9060005260206000209060080201600091509150508060000160009054906101000a900473ffffffffffffffffffffffffffffffffffffffff16908060010160009054906101000a900473ffffffffffffffffffffffffffffffffffffffff16908060020154908060030154908060040154908060050160009054906101000a900461ffff16908060050160029054906101000a900460ff16908060050160039054906101000a900460ff169080600601805461159190614076565b80601f01602080910402602001604051908101604052809291908181526020018280546115bd90614076565b801561160a5780601f106115df5761010080835404028352916020019161160a565b820191906000526020600020905b8154815290600101906020018083116115ed57829003601f168201915b50505050509080600701805461161f90614076565b80601f016020809104026020016040519081016040528092919081815260200182805461164b90614076565b80156116985780601f1061166d57610100808354040283529160200191611698565b820191906000526020600020905b81548152906001019060200180831161167b57829003601f168201915b505050505090508a565b6116aa612f7c565b6116b2612f7c565b6116bf8360000151612b20565b81600001819052506116d48360200151612cbb565b81602001819052506116e98360400151612cbb565b81604001819052506116fe8360600151612cbb565b8160600181905250826080015181608001901515908115158152505080915050919050565b61172b612f1d565b611733612f1d565b6117408360000151612b20565b81600001819052506117558360200151612b20565b816020018190525061176a8360400151612cbb565b816040018190525061177f8360600151612cbb565b81606001819052506117948360800151612cbb565b81608001819052508260a001518160a0019073ffffffffffffffffffffffffffffffffffffffff16908173ffffffffffffffffffffffffffffffffffffffff16815250508260e001518160e00190151590811515815250508260c001518160c001901515908115158152505080915050919050565b60008054906101000a900473ffffffffffffffffffffffffffffffffffffffff1681565b60011515600260003373ffffffffffffffffffffffffffffffffffffffff1673ffffffffffffffffffffffffffffffffffffffff16815260200190815260200160002060040160149054906101000a900460ff1615151480156118e3575060001515600260003373ffffffffffffffffffffffffffffffffffffffff1673ffffffffffffffffffffffffffffffffffffffff16815260200190815260200160002060040160159054906101000a900460ff161515145b6118ec57600080fd5b60011515600160008373ffffffffffffffffffffffffffffffffffffffff1673ffffffffffffffffffffffffffffffffffffffff16815260200190815260200160002060040160009054906101000a900460ff16151514801561195b5750600061195582610b2c565b60600151145b61196457600080fd5b6000600260003373ffffffffffffffffffffffffffffffffffffffff1673ffffffffffffffffffffffffffffffffffffffff1681526020019081526020016000209050818160040160006101000a81548173ffffffffffffffffffffffffffffffffffffffff021916908373ffffffffffffffffffffffffffffffffffffffff16021790555060018160040160156101000a81548160ff0219169083151502179055506000611a1283612a04565b9050338160010160006101000a81548173ffffffffffffffffffffffffffffffffffffffff021916908373ffffffffffffffffffffffffffffffffffffffff1602179055508060000160009054906101000a900473ffffffffffffffffffffffffffffffffffffffff1673ffffffffffffffffffffffffffffffffffffffff167f36e4768d656c049e2c7118f34be11c06bd41d1ef4f2ad404c82f0ba280f6784f60405160405180910390a2505050565b606060011515600160008473ffffffffffffffffffffffffffffffffffffffff1673ffffffffffffffffffffffffffffffffffffffff16815260200190815260200160002060040160009054906101000a900460ff16151514611b2557600080fd5b600360008373ffffffffffffffffffffffffffffffffffffffff1673ffffffffffffffffffffffffffffffffffffffff168152602001908152602001600020805480602002602001604051908101604052809291908181526020016000905b82821015611dfb5783829060005260206000209060080201604051806101400160405290816000820160009054906101000a900473ffffffffffffffffffffffffffffffffffffffff1673ffffffffffffffffffffffffffffffffffffffff1673ffffffffffffffffffffffffffffffffffffffff1681526020016001820160009054906101000a900473ffffffffffffffffffffffffffffffffffffffff1673ffffffffffffffffffffffffffffffffffffffff1673ffffffffffffffffffffffffffffffffffffffff1681526020016002820154815260200160038201548152602001600482015481526020016005820160009054906101000a900461ffff1661ffff1661ffff1681526020016005820160029054906101000a900460ff161515151581526020016005820160039054906101000a900460ff16151515158152602001600682018054611cd890614076565b80601f0160208091040260200160405190810160405280929190818152602001828054611d0490614076565b8015611d515780601f10611d2657610100808354040283529160200191611d51565b820191906000526020600020905b815481529060010190602001808311611d3457829003601f168201915b50505050508152602001600782018054611d6a90614076565b80601f0160208091040260200160405190810160405280929190818152602001828054611d9690614076565b8015611de35780601f10611db857610100808354040283529160200191611de3565b820191906000526020600020905b815481529060010190602001808311611dc657829003601f168201915b50505050508152505081526020019060010190611b84565b505050509050919050565b60016020528060005260406000206000915090508060000160009054906101000a900460801b908060010154908060020154908060030154908060040160009054906101000a900460ff16905085565b60011515600160003373ffffffffffffffffffffffffffffffffffffffff1673ffffffffffffffffffffffffffffffffffffffff16815260200190815260200160002060040160009054906101000a900460ff16151514611eb657600080fd5b6000600360003373ffffffffffffffffffffffffffffffffffffffff1673ffffffffffffffffffffffffffffffffffffffff168152602001908152602001600020805490501480611f6157506000600360003373ffffffffffffffffffffffffffffffffffffffff1673ffffffffffffffffffffffffffffffffffffffff16815260200190815260200160002080549050118015611f6057506000611f5a33610b2c565b60400151145b5b611f6a57600080fd5b600360003373ffffffffffffffffffffffffffffffffffffffff1673ffffffffffffffffffffffffffffffffffffffff1681526020019081526020016000206040518061014001604052803373ffffffffffffffffffffffffffffffffffffffff1681526020013373ffffffffffffffffffffffffffffffffffffffff1681526020014281526020016000815260200160008152602001600061ffff16815260200160001515815260200160001515815260200184815260200183815250908060018154018082558091505060019003906000526020600020906008020160009091909190915060008201518160000160006101000a81548173ffffffffffffffffffffffffffffffffffffffff021916908373ffffffffffffffffffffffffffffffffffffffff16021790555060208201518160010160006101000a81548173ffffffffffffffffffffffffffffffffffffffff021916908373ffffffffffffffffffffffffffffffffffffffff16021790555060408201518160020155606082015181600301556080820151816004015560a08201518160050160006101000a81548161ffff021916908361ffff16021790555060c08201518160050160026101000a81548160ff02191690831515021790555060e08201518160050160036101000a81548160ff02191690831515021790555061010082015181600601908051906020019061217d929190612fad565b5061012082015181600701908051906020019061219b929190612fad565b5050506004339080600181540180825580915050600190039060005260206000200160009091909190916101000a81548173ffffffffffffffffffffffffffffffffffffffff021916908373ffffffffffffffffffffffffffffffffffffffff1602179055507fdd1c69d29c1b10da22392c5bb2c9fcde65af28becfb66b1fadf2d41fc84c599760405160405180910390a15050565b60011515600260003373ffffffffffffffffffffffffffffffffffffffff1673ffffffffffffffffffffffffffffffffffffffff16815260200190815260200160002060040160149054906101000a900460ff1615151480156122e05750600260003373ffffffffffffffffffffffffffffffffffffffff1673ffffffffffffffffffffffffffffffffffffffff16815260200190815260200160002060040160159054906101000a900460ff165b6122e957600080fd5b6000600260003373ffffffffffffffffffffffffffffffffffffffff1673ffffffffffffffffffffffffffffffffffffffff168152602001908152602001600020604051806101000160405290816000820160009054906101000a900460801b6fffffffffffffffffffffffffffffffff19166fffffffffffffffffffffffffffffffff191681526020016000820160109054906101000a900460801b6fffffffffffffffffffffffffffffffff19166fffffffffffffffffffffffffffffffff191681526020016001820154815260200160028201548152602001600382015481526020016004820160009054906101000a900473ffffffffffffffffffffffffffffffffffffffff1673ffffffffffffffffffffffffffffffffffffffff1673ffffffffffffffffffffffffffffffffffffffff1681526020016004820160149054906101000a900460ff161515151581526020016004820160159054906101000a900460ff161515151581525050905060008160a00151905060011515600160008373ffffffffffffffffffffffffffffffffffffffff1673ffffffffffffffffffffffffffffffffffffffff16815260200190815260200160002060040160009054906101000a900460ff1615151480156124d85750600015156124d082610b2c565b60e001511515145b80156124f0575060006124ea82610b2c565b60600151145b6124f957600080fd5b4261250382612a04565b6003018190555061251381610b2c565b6000015173ffffffffffffffffffffffffffffffffffffffff167f82e5b65aeb83b3617124292be93a7628109935d45e1177d8a721401af830f42860405160405180910390a25050565b612565612f7c565b60011515600160008473ffffffffffffffffffffffffffffffffffffffff1673ffffffffffffffffffffffffffffffffffffffff16815260200190815260200160002060040160009054906101000a900460ff161515146125c557600080fd5b61268d600160008473ffffffffffffffffffffffffffffffffffffffff1673ffffffffffffffffffffffffffffffffffffffff1681526020019081526020016000206040518060a00160405290816000820160009054906101000a900460801b6fffffffffffffffffffffffffffffffff19166fffffffffffffffffffffffffffffffff191681526020016001820154815260200160028201548152602001600382015481526020016004820160009054906101000a900460ff1615151515815250506116a2565b9050919050565b6060600080600480549050905060008585836126b09190613fe4565b6126ba9190613fe4565b9050600085836126ca9190613fe4565b905060008210156126e85781876126e191906140a7565b9650600091505b60008767ffffffffffffffff8111156127045761270361307f565b5b60405190808252806020026020018201604052801561273d57816020015b61272a612e56565b8152602001906001900390816127225790505b5090506000806001846127509190613fe4565b90505b8481106127e0576127a16004828154811061277157612770614018565b5b9060005260206000200160009054906101000a900473ffffffffffffffffffffffffffffffffffffffff16610b2c565b8383815181106127b4576127b3614018565b5b602002602001018190525081806127ca906140fd565b92505080806127d8906140fd565b915050612753565b508189896127ee9190613fe4565b9650965050505050509250929050565b60011515600160003373ffffffffffffffffffffffffffffffffffffffff1673ffffffffffffffffffffffffffffffffffffffff16815260200190815260200160002060040160009054906101000a900460ff1615151480156128bc57506000600360003373ffffffffffffffffffffffffffffffffffffffff1673ffffffffffffffffffffffffffffffffffffffff168152602001908152602001600020805490501180156128bb575060006128b433610b2c565b6080015114155b5b6128c557600080fd5b60006128d033612a04565b905060018160050160026101000a81548160ff0219169083151502179055506000600260008360010160009054906101000a900473ffffffffffffffffffffffffffffffffffffffff1673ffffffffffffffffffffffffffffffffffffffff1673ffffffffffffffffffffffffffffffffffffffff168152602001908152602001600020905060008160040160156101000a81548160ff0219169083151502179055508160000160009054906101000a900473ffffffffffffffffffffffffffffffffffffffff1673ffffffffffffffffffffffffffffffffffffffff167fffc23527451ba78650f0fb3d77903307a21a4d95bc670d4363793b3de9d44cc760405160405180910390a25050565b6000816129ea90614182565b9050919050565b6000816129fd906141fe565b9050919050565b600060011515600160008473ffffffffffffffffffffffffffffffffffffffff1673ffffffffffffffffffffffffffffffffffffffff16815260200190815260200160002060040160009054906101000a900460ff16151514612a6657600080fd5b6000600360008473ffffffffffffffffffffffffffffffffffffffff1673ffffffffffffffffffffffffffffffffffffffff168152602001908152602001600020805490509050600360008473ffffffffffffffffffffffffffffffffffffffff1673ffffffffffffffffffffffffffffffffffffffff168152602001908152602001600020600182612af99190613fe4565b81548110612b0a57612b09614018565b5b9060005260206000209060080201915050919050565b606060005b60108160ff16108015612b775750600060f81b838260ff1660108110612b4e57612b4d614018565b5b1a60f81b7effffffffffffffffffffffffffffffffffffffffffffffffffffffffffffff191614155b15612b8f578080612b8790614272565b915050612b25565b60008160ff1667ffffffffffffffff811115612bae57612bad61307f565b5b6040519080825280601f01601f191660200182016040528015612be05781602001600182028036833780820191505090505b509050600091505b60108260ff16108015612c3a5750600060f81b848360ff1660108110612c1157612c10614018565b5b1a60f81b7effffffffffffffffffffffffffffffffffffffffffffffffffffffffffffff191614155b15612cb157838260ff1660108110612c5557612c54614018565b5b1a60f81b818360ff1681518110612c6f57612c6e614018565b5b60200101907effffffffffffffffffffffffffffffffffffffffffffffffffffffffffffff1916908160001a9053508180612ca990614272565b925050612be8565b8092505050919050565b606060005b60208160ff16108015612d125750600060f81b838260ff1660208110612ce957612ce8614018565b5b1a60f81b7effffffffffffffffffffffffffffffffffffffffffffffffffffffffffffff191614155b15612d2a578080612d2290614272565b915050612cc0565b60008160ff1667ffffffffffffffff811115612d4957612d4861307f565b5b6040519080825280601f01601f191660200182016040528015612d7b5781602001600182028036833780820191505090505b509050600091505b60208260ff16108015612dd55750600060f81b848360ff1660208110612dac57612dab614018565b5b1a60f81b7effffffffffffffffffffffffffffffffffffffffffffffffffffffffffffff191614155b15612e4c57838260ff1660208110612df057612def614018565b5b1a60f81b818360ff1681518110612e0a57612e09614018565b5b60200101907effffffffffffffffffffffffffffffffffffffffffffffffffffffffffffff1916908160001a9053508180612e4490614272565b925050612d83565b8092505050919050565b604051806101400160405280600073ffffffffffffffffffffffffffffffffffffffff168152602001600073ffffffffffffffffffffffffffffffffffffffff168152602001600081526020016000815260200160008152602001600061ffff16815260200160001515815260200160001515815260200160608152602001606081525090565b508054612ee990614076565b6000825580601f10612efb5750612f1a565b601f016020900490600052602060002090810190612f199190613033565b5b50565b6040518061010001604052806060815260200160608152602001606081526020016060815260200160608152602001600073ffffffffffffffffffffffffffffffffffffffff1681526020016000151581526020016000151581525090565b6040518060a00160405280606081526020016060815260200160608152602001606081526020016000151581525090565b828054612fb990614076565b90600052602060002090601f016020900481019282612fdb5760008555613022565b82601f10612ff457805160ff1916838001178555613022565b82800160010185558215613022579182015b82811115613021578251825591602001919060010190613006565b5b50905061302f9190613033565b5090565b5b8082111561304c576000816000905550600101613034565b5090565b6000604051905090565b600080fd5b600080fd5b600080fd5b600080fd5b6000601f19601f8301169050919050565b7f4e487b7100000000000000000000000000000000000000000000000000000000600052604160045260246000fd5b6130b78261306e565b810181811067ffffffffffffffff821117156130d6576130d561307f565b5b80604052505050565b60006130e9613050565b90506130f582826130ae565b919050565b600067ffffffffffffffff8211156131155761311461307f565b5b61311e8261306e565b9050602081019050919050565b82818337600083830152505050565b600061314d613148846130fa565b6130df565b90508281526020810184848401111561316957613168613069565b5b61317484828561312b565b509392505050565b600082601f83011261319157613190613064565b5b81356131a184826020860161313a565b91505092915050565b600080600080608085870312156131c4576131c361305a565b5b600085013567ffffffffffffffff8111156131e2576131e161305f565b5b6131ee8782880161317c565b945050602085013567ffffffffffffffff81111561320f5761320e61305f565b5b61321b8782880161317c565b935050604085013567ffffffffffffffff81111561323c5761323b61305f565b5b6132488782880161317c565b925050606085013567ffffffffffffffff8111156132695761326861305f565b5b6132758782880161317c565b91505092959194509250565b600080600080600060a0868803121561329d5761329c61305a565b5b600086013567ffffffffffffffff8111156132bb576132ba61305f565b5b6132c78882890161317c565b955050602086013567ffffffffffffffff8111156132e8576132e761305f565b5b6132f48882890161317c565b945050604086013567ffffffffffffffff8111156133155761331461305f565b5b6133218882890161317c565b935050606086013567ffffffffffffffff8111156133425761334161305f565b5b61334e8882890161317c565b925050608086013567ffffffffffffffff81111561336f5761336e61305f565b5b61337b8882890161317c565b9150509295509295909350565b600061ffff82169050919050565b61339f81613388565b81146133aa57600080fd5b50565b6000813590506133bc81613396565b92915050565b6000602082840312156133d8576133d761305a565b5b60006133e6848285016133ad565b91505092915050565b600073ffffffffffffffffffffffffffffffffffffffff82169050919050565b600061341a826133ef565b9050919050565b61342a8161340f565b811461343557600080fd5b50565b60008135905061344781613421565b92915050565b6000602082840312156134635761346261305a565b5b600061347184828501613438565b91505092915050565b6134838161340f565b82525050565b6000819050919050565b61349c81613489565b82525050565b6134ab81613388565b82525050565b60008115159050919050565b6134c6816134b1565b82525050565b600081519050919050565b600082825260208201905092915050565b60005b838110156135065780820151818401526020810190506134eb565b83811115613515576000848401525b50505050565b6000613526826134cc565b61353081856134d7565b93506135408185602086016134e8565b6135498161306e565b840191505092915050565b60006101408301600083015161356d600086018261347a565b506020830151613580602086018261347a565b5060408301516135936040860182613493565b5060608301516135a66060860182613493565b5060808301516135b96080860182613493565b5060a08301516135cc60a08601826134a2565b5060c08301516135df60c08601826134bd565b5060e08301516135f260e08601826134bd565b5061010083015184820361010086015261360c828261351b565b915050610120830151848203610120860152613628828261351b565b9150508091505092915050565b6000602082019050818103600083015261364f8184613554565b905092915050565b6000610100830160008301518482036000860152613675828261351b565b9150506020830151848203602086015261368f828261351b565b915050604083015184820360408601526136a9828261351b565b915050606083015184820360608601526136c3828261351b565b915050608083015184820360808601526136dd828261351b565b91505060a08301516136f260a086018261347a565b5060c083015161370560c08601826134bd565b5060e083015161371860e08601826134bd565b508091505092915050565b6000602082019050818103600083015261373d8184613657565b905092915050565b60007fffffffffffffffffffffffffffffffff0000000000000000000000000000000082169050919050565b61377a81613745565b82525050565b6000819050919050565b61379381613780565b82525050565b6137a28161340f565b82525050565b6137b1816134b1565b82525050565b6000610100820190506137cd600083018b613771565b6137da602083018a613771565b6137e7604083018961378a565b6137f4606083018861378a565b613801608083018761378a565b61380e60a0830186613799565b61381b60c08301856137a8565b61382860e08301846137a8565b9998505050505050505050565b61383e81613489565b811461384957600080fd5b50565b60008135905061385b81613835565b92915050565b600080604083850312156138785761387761305a565b5b600061388685828601613438565b92505060206138978582860161384c565b9150509250929050565b6138aa81613489565b82525050565b6138b981613388565b82525050565b600082825260208201905092915050565b60006138db826134cc565b6138e581856138bf565b93506138f58185602086016134e8565b6138fe8161306e565b840191505092915050565b60006101408201905061391f600083018d613799565b61392c602083018c613799565b613939604083018b6138a1565b613946606083018a6138a1565b61395360808301896138a1565b61396060a08301886138b0565b61396d60c08301876137a8565b61397a60e08301866137a8565b81810361010083015261398d81856138d0565b90508181036101208301526139a281846138d0565b90509b9a5050505050505050505050565b600080fd5b6139c181613745565b81146139cc57600080fd5b50565b6000813590506139de816139b8565b92915050565b6139ed81613780565b81146139f857600080fd5b50565b600081359050613a0a816139e4565b92915050565b613a19816134b1565b8114613a2457600080fd5b50565b600081359050613a3681613a10565b92915050565b600060a08284031215613a5257613a516139b3565b5b613a5c60a06130df565b90506000613a6c848285016139cf565b6000830152506020613a80848285016139fb565b6020830152506040613a94848285016139fb565b6040830152506060613aa8848285016139fb565b6060830152506080613abc84828501613a27565b60808301525092915050565b600060a08284031215613ade57613add61305a565b5b6000613aec84828501613a3c565b91505092915050565b600060a0830160008301518482036000860152613b12828261351b565b91505060208301518482036020860152613b2c828261351b565b91505060408301518482036040860152613b46828261351b565b91505060608301518482036060860152613b60828261351b565b9150506080830151613b7560808601826134bd565b508091505092915050565b60006020820190508181036000830152613b9a8184613af5565b905092915050565b60006101008284031215613bb957613bb86139b3565b5b613bc46101006130df565b90506000613bd4848285016139cf565b6000830152506020613be8848285016139cf565b6020830152506040613bfc848285016139fb565b6040830152506060613c10848285016139fb565b6060830152506080613c24848285016139fb565b60808301525060a0613c3884828501613438565b60a08301525060c0613c4c84828501613a27565b60c08301525060e0613c6084828501613a27565b60e08301525092915050565b60006101008284031215613c8357613c8261305a565b5b6000613c9184828501613ba2565b91505092915050565b6000602082019050613caf6000830184613799565b92915050565b600081519050919050565b600082825260208201905092915050565b6000819050602082019050919050565b600061014083016000830151613cfa600086018261347a565b506020830151613d0d602086018261347a565b506040830151613d206040860182613493565b506060830151613d336060860182613493565b506080830151613d466080860182613493565b5060a0830151613d5960a08601826134a2565b5060c0830151613d6c60c08601826134bd565b5060e0830151613d7f60e08601826134bd565b50610100830151848203610100860152613d99828261351b565b915050610120830151848203610120860152613db5828261351b565b9150508091505092915050565b6000613dce8383613ce1565b905092915050565b6000602082019050919050565b6000613dee82613cb5565b613df88185613cc0565b935083602082028501613e0a85613cd1565b8060005b85811015613e465784840389528151613e278582613dc2565b9450613e3283613dd6565b925060208a01995050600181019050613e0e565b50829750879550505050505092915050565b60006020820190508181036000830152613e728184613de3565b905092915050565b600060a082019050613e8f6000830188613771565b613e9c602083018761378a565b613ea9604083018661378a565b613eb6606083018561378a565b613ec360808301846137a8565b9695505050505050565b60008060408385031215613ee457613ee361305a565b5b600083013567ffffffffffffffff811115613f0257613f0161305f565b5b613f0e8582860161317c565b925050602083013567ffffffffffffffff811115613f2f57613f2e61305f565b5b613f3b8582860161317c565b9150509250929050565b60008060408385031215613f5c57613f5b61305a565b5b6000613f6a8582860161384c565b9250506020613f7b8582860161384c565b9150509250929050565b60006040820190508181036000830152613f9f8185613de3565b9050613fae60208301846138a1565b9392505050565b7f4e487b7100000000000000000000000000000000000000000000000000000000600052601160045260246000fd5b6000613fef82613489565b9150613ffa83613489565b92508282101561400d5761400c613fb5565b5b828203905092915050565b7f4e487b7100000000000000000000000000000000000000000000000000000000600052603260045260246000fd5b7f4e487b7100000000000000000000000000000000000000000000000000000000600052602260045260246000fd5b6000600282049050600182168061408e57607f821691505b6020821081036140a1576140a0614047565b5b50919050565b60006140b282613489565b91506140bd83613489565b9250827fffffffffffffffffffffffffffffffffffffffffffffffffffffffffffffffff038211156140f2576140f1613fb5565b5b828201905092915050565b600061410882613489565b91507fffffffffffffffffffffffffffffffffffffffffffffffffffffffffffffffff820361413a57614139613fb5565b5b600182019050919050565b600081519050919050565b6000819050602082019050919050565b600061416c8251613745565b80915050919050565b600082821b905092915050565b600061418d82614145565b8261419784614150565b90506141a281614160565b925060108210156141e2576141dd7fffffffffffffffffffffffffffffffff0000000000000000000000000000000083601003600802614175565b831692505b5050919050565b60006141f58251613780565b80915050919050565b600061420982614145565b8261421384614150565b905061421e816141e9565b9250602082101561425e576142597fffffffffffffffffffffffffffffffffffffffffffffffffffffffffffffffff83602003600802614175565b831692505b5050919050565b600060ff82169050919050565b600061427d82614265565b915060ff82036142905761428f613fb5565b5b60018201905091905056fea26469706673582212201a4746099bd3fbb0ed800600d2660d59544cb3160bf2309463d51caeb7932ab264736f6c634300080e0033",
  "immutableReferences": {},
  "source": "// SPDX-License-Identifier: GPL-3.0\r\npragma solidity >=0.7.0 <0.9.0;\r\n\r\ncontract TaxiTxRx {\r\n    struct Reservation{\r\n        address target; //  \r\n        address driver; //  \r\n        uint occur; //   (timestamp)\r\n        uint start; //  \r\n        uint end; //  \r\n        uint16 paid; // \r\n        bool pay_completed; // \r\n        bool cancelled; // \r\n        string start_point; // \r\n        string dest_point;  // \r\n    }\r\n\r\n\r\n    struct User{\r\n        bytes16 phone_number; // \r\n        bytes32 name; // \r\n        bytes32 nickname; // \r\n        bytes32 email; // \r\n        bool created; // \r\n    }\r\n\r\n    struct Driver{\r\n        bytes16 phone_number; // \r\n        bytes16 car_number; // \r\n        bytes32 name; // \r\n        bytes32 nickname; // \r\n        bytes32 email; // \r\n        address target; //   \r\n        bool created; // \r\n        bool driving; // \r\n    }\r\n\r\n    struct StringUser{\r\n        string phone_number;\r\n        string name;\r\n        string nickname;\r\n        string email;\r\n        bool created;\r\n    }\r\n\r\n    struct StringDriver{\r\n        string phone_number; // \r\n        string car_number; // \r\n        string name; // \r\n        string nickname; // \r\n        string email; // \r\n        address target; //   \r\n        bool created; // \r\n        bool driving; // \r\n    }\r\n\r\n\r\n    event addReservEvent();\r\n    event acceptReservEvent(address indexed addr);\r\n    event checkInTaxiEvent(address indexed addr);\r\n    event checkOutTaxiEvent(address indexed addr);\r\n    event cancelLastReservEvent(address indexed addr);\r\n    event payCompleteEvent(address indexed addr);\r\n\r\n    address public owner; //  \r\n\r\n    mapping (address => User) public users; //  \r\n    mapping (address => Driver) public drivers; //  \r\n    mapping (address => Reservation[]) public user_reservs; //  \r\n\r\n    address[] recent_addReserv_addrs; //    \r\n\r\n    constructor(){\r\n        owner = msg.sender;\r\n    }\r\n\r\n\r\n    //   .\r\n    function getStringUser(address caller) public view returns (StringUser memory){\r\n        require(users[caller].created == true);\r\n        return ToStringUser(users[caller]);\r\n    }\r\n\r\n    //    .    . ( )\r\n    function getLastReservation(address caller) public view returns (Reservation memory){\r\n        require(users[caller].created == true);\r\n        uint size = user_reservs[caller].length;\r\n        return user_reservs[caller][size-1];\r\n    }\r\n\r\n    //    . ( )\r\n    function _getLastReservation(address caller) internal view returns (Reservation storage){\r\n        require(users[caller].created == true);\r\n        uint size = user_reservs[caller].length;\r\n        return user_reservs[caller][size-1];\r\n    }\r\n\r\n    //   . [  ]\r\n    function getReservationList(address caller) public view returns (Reservation[] memory) {\r\n        require(users[caller].created == true);\r\n        return user_reservs[caller];\r\n    }\r\n\r\n\r\n    //  . [  ]\r\n    function addUser(string memory phone_number, string memory name, string memory nickname, string memory email) public {\r\n        require(users[msg.sender].created == false);\r\n        users[msg.sender] = User(ToBytes16(phone_number), ToBytes32(name),ToBytes32(nickname), ToBytes32(email), true);\r\n        \r\n    }\r\n\r\n    //   [  ]\r\n    function addReserv(string memory sp, string memory dp) public {\r\n        require(users[msg.sender].created == true);\r\n        require(user_reservs[msg.sender].length == 0 || (user_reservs[msg.sender].length > 0 && getLastReservation(msg.sender).occur == 0));\r\n        user_reservs[msg.sender].push(Reservation(msg.sender, msg.sender, block.timestamp, 0, 0, 0, false, false, sp, dp));\r\n        recent_addReserv_addrs.push(msg.sender);\r\n        emit addReservEvent();\r\n    }\r\n\r\n    //   [  ]\r\n    function cancelLastReserv() public {\r\n        require(users[msg.sender].created == true && (user_reservs[msg.sender].length > 0 && getLastReservation(msg.sender).start == 0));\r\n        Reservation storage last = _getLastReservation(msg.sender);\r\n        if (last.driver == msg.sender){\r\n            uint size = user_reservs[last.target].length;\r\n            delete user_reservs[last.target][size-1];\r\n        }else{\r\n            last.cancelled = true;\r\n            last.paid = 1000; // .\r\n            emit cancelLastReservEvent(last.target);\r\n        }\r\n    }\r\n\r\n    //   [  ]\r\n    function setPayCompleteLastReserv() public{\r\n        require(users[msg.sender].created == true && (user_reservs[msg.sender].length > 0 && getLastReservation(msg.sender).end != 0));\r\n        Reservation storage last = _getLastReservation(msg.sender);\r\n        last.pay_completed = true;\r\n        Driver storage driver = drivers[last.driver];\r\n        driver.driving = false;\r\n        emit payCompleteEvent(last.target);\r\n    }\r\n\r\n    //    [  ]\r\n    function getStringDriver(address caller) public view returns(StringDriver memory){\r\n        require(drivers[caller].created == true);\r\n        return ToStringDriver(drivers[caller]);\r\n    }\r\n    //   [  ]\r\n    function addDriver(string memory phone_number, string memory car_number, string memory name, string memory nickname, string memory email) public {\r\n        require(drivers[msg.sender].created == false);\r\n        drivers[msg.sender] = Driver(ToBytes16(phone_number), ToBytes16(car_number), ToBytes32(name), ToBytes32(nickname), ToBytes32(email),\r\n        msg.sender, true, false);\r\n        \r\n    }\r\n    //   [  ]\r\n    function acceptReserv(address target) public {\r\n        require(drivers[msg.sender].created == true && drivers[msg.sender].driving == false);\r\n        require(users[target].created == true && getLastReservation(target).start == 0);\r\n        Driver storage driver = drivers[msg.sender];\r\n        driver.target = target;\r\n        driver.driving = true;\r\n\r\n        Reservation storage last = _getLastReservation(target);\r\n        last.driver = msg.sender;\r\n\r\n        emit acceptReservEvent(last.target);\r\n    }\r\n    //   [  ]\r\n    function checkInTaxi() public {\r\n        require(drivers[msg.sender].created == true && drivers[msg.sender].driving);\r\n        Driver memory driver = drivers[msg.sender];\r\n        address caller = driver.target;\r\n\r\n        require(users[caller].created == true && getLastReservation(caller).cancelled == false && getLastReservation(caller).start == 0);\r\n        _getLastReservation(caller).start = block.timestamp;\r\n        emit checkInTaxiEvent(getLastReservation(caller).target);\r\n    }\r\n\r\n    //      [  ]\r\n    function checkOutTaxi(uint16 paid) public {\r\n        require(drivers[msg.sender].created == true && drivers[msg.sender].driving);\r\n        Driver memory driver = drivers[msg.sender];\r\n        address caller = driver.target;\r\n\r\n        require(users[caller].created == true && user_reservs[caller].length > 0);\r\n        Reservation storage last = _getLastReservation(caller);\r\n        last.end = block.timestamp; // \r\n        last.paid = paid;\r\n        emit checkOutTaxiEvent(last.target);\r\n    }\r\n    \r\n    \r\n    //   [  ]\r\n    function fetchReserv(uint length, uint cursor) public view returns(Reservation[] memory, uint){\r\n        uint offset = recent_addReserv_addrs.length;\r\n        uint start = offset - cursor - length;\r\n        uint end = (offset - cursor);\r\n\r\n        if (start < 0){\r\n            length += start;\r\n            start = 0;\r\n        }\r\n        \r\n        Reservation[] memory reservs = new Reservation[](length);\r\n        uint j = 0;\r\n        for (uint i=end-1; i>=start; i++){\r\n            reservs[j] = getLastReservation(recent_addReserv_addrs[i]);\r\n            j++;\r\n        }\r\n        return (reservs, cursor - length);\r\n    }\r\n\r\n    //  \r\n\r\n    function ToBytes32(string memory x) internal pure returns (bytes32){\r\n        return bytes32(bytes(x));\r\n    }\r\n\r\n    function ToBytes16(string memory x) internal pure returns (bytes16){\r\n        return bytes16(bytes(x));\r\n    } \r\n\r\n    function bytes16ToString(bytes16 _bytes16) internal pure returns (string memory) {\r\n        uint8 i = 0;\r\n        while(i < 16 && _bytes16[i] != 0) {\r\n            i++;\r\n        }\r\n        bytes memory bytesArray = new bytes(i);\r\n        for (i = 0; i < 16 && _bytes16[i] != 0; i++) {\r\n            bytesArray[i] = _bytes16[i];\r\n        }\r\n        return string(bytesArray);\r\n    }\r\n\r\n    function bytes32ToString(bytes32 _bytes32) internal pure returns (string memory) {\r\n        uint8 i = 0;\r\n        while(i < 32 && _bytes32[i] != 0) {\r\n            i++;\r\n        }\r\n        bytes memory bytesArray = new bytes(i);\r\n        for (i = 0; i < 32 && _bytes32[i] != 0; i++) {\r\n            bytesArray[i] = _bytes32[i];\r\n        }\r\n        return string(bytesArray);\r\n    }\r\n\r\n    function ToStringUser(User memory x) public pure returns (StringUser memory){\r\n        StringUser memory s_user;\r\n        s_user.phone_number = bytes16ToString(x.phone_number);\r\n        s_user.name = bytes32ToString(x.name);\r\n        s_user.nickname = bytes32ToString(x.nickname);\r\n        s_user.email = bytes32ToString(x.email);\r\n        s_user.created = x.created;\r\n        return s_user;\r\n    }\r\n\r\n    function ToStringDriver(Driver memory x) public pure returns (StringDriver memory){\r\n        StringDriver memory s_driver;\r\n        s_driver.phone_number = bytes16ToString(x.phone_number);\r\n        s_driver.car_number = bytes16ToString(x.car_number);\r\n        s_driver.name = bytes32ToString(x.name);\r\n        s_driver.nickname = bytes32ToString(x.nickname);\r\n        s_driver.email = bytes32ToString(x.email);\r\n        s_driver.target = x.target;\r\n        s_driver.driving = x.driving;\r\n        s_driver.created = x.created;\r\n        return s_driver;\r\n    }\r\n}",
  "sourcePath": "C:\\Users\\KangHyunWoo\\Documents\\VSCODE\\taxi_mmd2022\\contracts\\TaxiTxRx.sol",
  "compiler": {
    "name": "solc",
    "version": "0.8.14+commit.80d49f37.Emscripten.clang"
  },
  "schemaVersion": "3.4.7",
  "updatedAt": "2022-06-05T16:53:11.047Z",
  "networkType": "ethereum",
  "devdoc": {
    "kind": "dev",
    "methods": {},
    "version": 1
  },
  "userdoc": {
    "kind": "user",
    "methods": {},
    "version": 1
  }
}