{
  "contractName": "TaxiTxRx",
  "abi": [
    {
      "inputs": [],
      "stateMutability": "nonpayable",
      "type": "constructor"
    },
    {
      "anonymous": false,
      "inputs": [
        {
          "indexed": true,
          "internalType": "address",
          "name": "addr",
          "type": "address"
        }
      ],
      "name": "acceptReservEvent",
      "type": "event"
    },
    {
      "anonymous": false,
      "inputs": [],
      "name": "addReservEvent",
      "type": "event"
    },
    {
      "anonymous": false,
      "inputs": [
        {
          "indexed": true,
          "internalType": "address",
          "name": "addr",
          "type": "address"
        }
      ],
      "name": "cancelLastReservEvent",
      "type": "event"
    },
    {
      "anonymous": false,
      "inputs": [
        {
          "indexed": true,
          "internalType": "address",
          "name": "addr",
          "type": "address"
        }
      ],
      "name": "checkInTaxiEvent",
      "type": "event"
    },
    {
      "anonymous": false,
      "inputs": [
        {
          "indexed": true,
          "internalType": "address",
          "name": "addr",
          "type": "address"
        }
      ],
      "name": "checkOutTaxiEvent",
      "type": "event"
    },
    {
      "anonymous": false,
      "inputs": [
        {
          "indexed": true,
          "internalType": "address",
          "name": "addr",
          "type": "address"
        }
      ],
      "name": "payCompleteEvent",
      "type": "event"
    },
    {
      "inputs": [
        {
          "internalType": "address",
          "name": "",
          "type": "address"
        }
      ],
      "name": "drivers",
      "outputs": [
        {
          "internalType": "string",
          "name": "phone_number",
          "type": "string"
        },
        {
          "internalType": "string",
          "name": "name",
          "type": "string"
        },
        {
          "internalType": "address",
          "name": "target",
          "type": "address"
        },
        {
          "internalType": "bool",
          "name": "created",
          "type": "bool"
        },
        {
          "internalType": "bool",
          "name": "driving",
          "type": "bool"
        }
      ],
      "stateMutability": "view",
      "type": "function",
      "constant": true
    },
    {
      "inputs": [],
      "name": "owner",
      "outputs": [
        {
          "internalType": "address",
          "name": "",
          "type": "address"
        }
      ],
      "stateMutability": "view",
      "type": "function",
      "constant": true
    },
    {
      "inputs": [
        {
          "internalType": "address",
          "name": "",
          "type": "address"
        },
        {
          "internalType": "uint256",
          "name": "",
          "type": "uint256"
        }
      ],
      "name": "user_reservs",
      "outputs": [
        {
          "internalType": "address",
          "name": "target",
          "type": "address"
        },
        {
          "internalType": "address",
          "name": "driver",
          "type": "address"
        },
        {
          "internalType": "uint256",
          "name": "occur",
          "type": "uint256"
        },
        {
          "internalType": "uint256",
          "name": "start",
          "type": "uint256"
        },
        {
          "internalType": "uint256",
          "name": "end",
          "type": "uint256"
        },
        {
          "internalType": "uint16",
          "name": "paid",
          "type": "uint16"
        },
        {
          "internalType": "bool",
          "name": "pay_completed",
          "type": "bool"
        },
        {
          "internalType": "bool",
          "name": "cancelled",
          "type": "bool"
        },
        {
          "internalType": "string",
          "name": "start_point",
          "type": "string"
        },
        {
          "internalType": "string",
          "name": "dest_point",
          "type": "string"
        }
      ],
      "stateMutability": "view",
      "type": "function",
      "constant": true
    },
    {
      "inputs": [
        {
          "internalType": "address",
          "name": "",
          "type": "address"
        }
      ],
      "name": "users",
      "outputs": [
        {
          "internalType": "string",
          "name": "phone_number",
          "type": "string"
        },
        {
          "internalType": "string",
          "name": "name",
          "type": "string"
        },
        {
          "internalType": "bool",
          "name": "created",
          "type": "bool"
        }
      ],
      "stateMutability": "view",
      "type": "function",
      "constant": true
    },
    {
      "inputs": [
        {
          "internalType": "address",
          "name": "caller",
          "type": "address"
        }
      ],
      "name": "getUser",
      "outputs": [
        {
          "components": [
            {
              "internalType": "string",
              "name": "phone_number",
              "type": "string"
            },
            {
              "internalType": "string",
              "name": "name",
              "type": "string"
            },
            {
              "internalType": "bool",
              "name": "created",
              "type": "bool"
            }
          ],
          "internalType": "struct TaxiTxRx.User",
          "name": "",
          "type": "tuple"
        }
      ],
      "stateMutability": "view",
      "type": "function",
      "constant": true
    },
    {
      "inputs": [
        {
          "internalType": "address",
          "name": "caller",
          "type": "address"
        }
      ],
      "name": "getLastReservation",
      "outputs": [
        {
          "components": [
            {
              "internalType": "address",
              "name": "target",
              "type": "address"
            },
            {
              "internalType": "address",
              "name": "driver",
              "type": "address"
            },
            {
              "internalType": "uint256",
              "name": "occur",
              "type": "uint256"
            },
            {
              "internalType": "uint256",
              "name": "start",
              "type": "uint256"
            },
            {
              "internalType": "uint256",
              "name": "end",
              "type": "uint256"
            },
            {
              "internalType": "uint16",
              "name": "paid",
              "type": "uint16"
            },
            {
              "internalType": "bool",
              "name": "pay_completed",
              "type": "bool"
            },
            {
              "internalType": "bool",
              "name": "cancelled",
              "type": "bool"
            },
            {
              "internalType": "string",
              "name": "start_point",
              "type": "string"
            },
            {
              "internalType": "string",
              "name": "dest_point",
              "type": "string"
            }
          ],
          "internalType": "struct TaxiTxRx.Reservation",
          "name": "",
          "type": "tuple"
        }
      ],
      "stateMutability": "view",
      "type": "function",
      "constant": true
    },
    {
      "inputs": [
        {
          "internalType": "address",
          "name": "caller",
          "type": "address"
        }
      ],
      "name": "getReservationList",
      "outputs": [
        {
          "components": [
            {
              "internalType": "address",
              "name": "target",
              "type": "address"
            },
            {
              "internalType": "address",
              "name": "driver",
              "type": "address"
            },
            {
              "internalType": "uint256",
              "name": "occur",
              "type": "uint256"
            },
            {
              "internalType": "uint256",
              "name": "start",
              "type": "uint256"
            },
            {
              "internalType": "uint256",
              "name": "end",
              "type": "uint256"
            },
            {
              "internalType": "uint16",
              "name": "paid",
              "type": "uint16"
            },
            {
              "internalType": "bool",
              "name": "pay_completed",
              "type": "bool"
            },
            {
              "internalType": "bool",
              "name": "cancelled",
              "type": "bool"
            },
            {
              "internalType": "string",
              "name": "start_point",
              "type": "string"
            },
            {
              "internalType": "string",
              "name": "dest_point",
              "type": "string"
            }
          ],
          "internalType": "struct TaxiTxRx.Reservation[]",
          "name": "",
          "type": "tuple[]"
        }
      ],
      "stateMutability": "view",
      "type": "function",
      "constant": true
    },
    {
      "inputs": [
        {
          "internalType": "string",
          "name": "phone_number",
          "type": "string"
        },
        {
          "internalType": "string",
          "name": "name",
          "type": "string"
        }
      ],
      "name": "addUser",
      "outputs": [],
      "stateMutability": "nonpayable",
      "type": "function"
    },
    {
      "inputs": [
        {
          "internalType": "string",
          "name": "sp",
          "type": "string"
        },
        {
          "internalType": "string",
          "name": "dp",
          "type": "string"
        }
      ],
      "name": "addReserv",
      "outputs": [],
      "stateMutability": "nonpayable",
      "type": "function"
    },
    {
      "inputs": [],
      "name": "cancelLastReserv",
      "outputs": [],
      "stateMutability": "nonpayable",
      "type": "function"
    },
    {
      "inputs": [],
      "name": "setPayCompleteLastReserv",
      "outputs": [],
      "stateMutability": "nonpayable",
      "type": "function"
    },
    {
      "inputs": [
        {
          "internalType": "string",
          "name": "phone_number",
          "type": "string"
        },
        {
          "internalType": "string",
          "name": "name",
          "type": "string"
        }
      ],
      "name": "addDriver",
      "outputs": [],
      "stateMutability": "nonpayable",
      "type": "function"
    },
    {
      "inputs": [
        {
          "internalType": "address",
          "name": "target",
          "type": "address"
        }
      ],
      "name": "acceptReserv",
      "outputs": [],
      "stateMutability": "nonpayable",
      "type": "function"
    },
    {
      "inputs": [],
      "name": "checkInTaxi",
      "outputs": [],
      "stateMutability": "nonpayable",
      "type": "function"
    },
    {
      "inputs": [
        {
          "internalType": "uint16",
          "name": "paid",
          "type": "uint16"
        }
      ],
      "name": "checkOutTaxi",
      "outputs": [],
      "stateMutability": "nonpayable",
      "type": "function"
    }
  ],
  "bytecode": "0x608060405234801561001057600080fd5b50336000806101000a81548173ffffffffffffffffffffffffffffffffffffffff021916908373ffffffffffffffffffffffffffffffffffffffff16021790555061325c806100606000396000f3fe608060405234801561001057600080fd5b50600436106100f55760003560e01c8063823c63f211610097578063a87430ba11610066578063a87430ba1461028f578063ab4a9d54146102c1578063b23a62f9146102dd578063e2e1d18b146102e7576100f5565b8063823c63f2146101ec5780638da5cb5b146102255780639e23195c14610243578063a79a36711461025f576100f5565b80633410671d116100d35780633410671d1461016257806334243a5d1461016c5780634aa60186146101885780636f77926b146101bc576100f5565b8063079eaf34146100fa5780631522d75b146101165780632a1e0b7814610132575b600080fd5b610114600480360381019061010f9190612952565b6102f1565b005b610130600480360381019061012b9190612a04565b61040f565b005b61014c60048036038101906101479190612a8f565b61081e565b6040516101599190612c77565b60405180910390f35b61016a610b90565b005b61018660048036038101906101819190612952565b610edb565b005b6101a2600480360381019061019d9190612a8f565b611085565b6040516101b3959493929190612d01565b60405180910390f35b6101d660048036038101906101d19190612a8f565b611205565b6040516101e39190612db9565b60405180910390f35b61020660048036038101906102019190612e07565b6113fd565b60405161021c9a99989796959493929190612e65565b60405180910390f35b61022d6115e6565b60405161023a9190612f0f565b60405180910390f35b61025d60048036038101906102589190612a8f565b61160a565b005b61027960048036038101906102749190612a8f565b6118a0565b60405161028691906130cd565b60405180910390f35b6102a960048036038101906102a49190612a8f565b611be3565b6040516102b8939291906130ef565b60405180910390f35b6102db60048036038101906102d69190612952565b611d2a565b005b6102e5612006565b005b6102ef6123bd565b005b60001515600160003373ffffffffffffffffffffffffffffffffffffffff1673ffffffffffffffffffffffffffffffffffffffff16815260200190815260200160002060020160009054906101000a900460ff1615151461035157600080fd5b604051806060016040528083815260200182815260200160011515815250600160003373ffffffffffffffffffffffffffffffffffffffff1673ffffffffffffffffffffffffffffffffffffffff16815260200190815260200160002060008201518160000190805190602001906103ca92919061266b565b5060208201518160010190805190602001906103e792919061266b565b5060408201518160020160006101000a81548160ff0219169083151502179055509050505050565b60011515600260003373ffffffffffffffffffffffffffffffffffffffff1673ffffffffffffffffffffffffffffffffffffffff16815260200190815260200160002060020160149054906101000a900460ff1615151480156104be5750600260003373ffffffffffffffffffffffffffffffffffffffff1673ffffffffffffffffffffffffffffffffffffffff16815260200190815260200160002060020160159054906101000a900460ff165b6104c757600080fd5b6000600260003373ffffffffffffffffffffffffffffffffffffffff1673ffffffffffffffffffffffffffffffffffffffff1681526020019081526020016000206040518060a001604052908160008201805461052390613163565b80601f016020809104026020016040519081016040528092919081815260200182805461054f90613163565b801561059c5780601f106105715761010080835404028352916020019161059c565b820191906000526020600020905b81548152906001019060200180831161057f57829003601f168201915b505050505081526020016001820180546105b590613163565b80601f01602080910402602001604051908101604052809291908181526020018280546105e190613163565b801561062e5780601f106106035761010080835404028352916020019161062e565b820191906000526020600020905b81548152906001019060200180831161061157829003601f168201915b505050505081526020016002820160009054906101000a900473ffffffffffffffffffffffffffffffffffffffff1673ffffffffffffffffffffffffffffffffffffffff1673ffffffffffffffffffffffffffffffffffffffff1681526020016002820160149054906101000a900460ff161515151581526020016002820160159054906101000a900460ff161515151581525050905060008160400151905060011515600160008373ffffffffffffffffffffffffffffffffffffffff1673ffffffffffffffffffffffffffffffffffffffff16815260200190815260200160002060020160009054906101000a900460ff16151514801561077357506000600360008373ffffffffffffffffffffffffffffffffffffffff1673ffffffffffffffffffffffffffffffffffffffff16815260200190815260200160002080549050115b61077c57600080fd5b60006107878261254f565b9050428160040181905550838160050160006101000a81548161ffff021916908361ffff1602179055508060000160009054906101000a900473ffffffffffffffffffffffffffffffffffffffff1673ffffffffffffffffffffffffffffffffffffffff167f21babe125c5c1c150251f23a193b80984b331789fe193b4bd254674cafc9cbb160405160405180910390a250505050565b6108266126f1565b60011515600160008473ffffffffffffffffffffffffffffffffffffffff1673ffffffffffffffffffffffffffffffffffffffff16815260200190815260200160002060020160009054906101000a900460ff1615151461088657600080fd5b6000600360008473ffffffffffffffffffffffffffffffffffffffff1673ffffffffffffffffffffffffffffffffffffffff168152602001908152602001600020805490509050600360008473ffffffffffffffffffffffffffffffffffffffff1673ffffffffffffffffffffffffffffffffffffffff16815260200190815260200160002060018261091991906131c3565b8154811061092a576109296131f7565b5b9060005260206000209060080201604051806101400160405290816000820160009054906101000a900473ffffffffffffffffffffffffffffffffffffffff1673ffffffffffffffffffffffffffffffffffffffff1673ffffffffffffffffffffffffffffffffffffffff1681526020016001820160009054906101000a900473ffffffffffffffffffffffffffffffffffffffff1673ffffffffffffffffffffffffffffffffffffffff1673ffffffffffffffffffffffffffffffffffffffff1681526020016002820154815260200160038201548152602001600482015481526020016005820160009054906101000a900461ffff1661ffff1661ffff1681526020016005820160029054906101000a900460ff161515151581526020016005820160039054906101000a900460ff16151515158152602001600682018054610a7490613163565b80601f0160208091040260200160405190810160405280929190818152602001828054610aa090613163565b8015610aed5780601f10610ac257610100808354040283529160200191610aed565b820191906000526020600020905b815481529060010190602001808311610ad057829003601f168201915b50505050508152602001600782018054610b0690613163565b80601f0160208091040260200160405190810160405280929190818152602001828054610b3290613163565b8015610b7f5780601f10610b5457610100808354040283529160200191610b7f565b820191906000526020600020905b815481529060010190602001808311610b6257829003601f168201915b505050505081525050915050919050565b60011515600160003373ffffffffffffffffffffffffffffffffffffffff1673ffffffffffffffffffffffffffffffffffffffff16815260200190815260200160002060020160009054906101000a900460ff161515148015610bff57506000610bf93361081e565b60600151145b610c0857600080fd5b6000610c133361254f565b90503373ffffffffffffffffffffffffffffffffffffffff168160010160009054906101000a900473ffffffffffffffffffffffffffffffffffffffff1673ffffffffffffffffffffffffffffffffffffffff1603610e32576000600360008360000160009054906101000a900473ffffffffffffffffffffffffffffffffffffffff1673ffffffffffffffffffffffffffffffffffffffff1673ffffffffffffffffffffffffffffffffffffffff168152602001908152602001600020805490509050600360008360000160009054906101000a900473ffffffffffffffffffffffffffffffffffffffff1673ffffffffffffffffffffffffffffffffffffffff1673ffffffffffffffffffffffffffffffffffffffff168152602001908152602001600020600182610d4791906131c3565b81548110610d5857610d576131f7565b5b9060005260206000209060080201600080820160006101000a81549073ffffffffffffffffffffffffffffffffffffffff02191690556001820160006101000a81549073ffffffffffffffffffffffffffffffffffffffff02191690556002820160009055600382016000905560048201600090556005820160006101000a81549061ffff02191690556005820160026101000a81549060ff02191690556005820160036101000a81549060ff0219169055600682016000610e1a9190612778565b600782016000610e2a9190612778565b505050610ed8565b60018160050160036101000a81548160ff0219169083151502179055506103e88160050160006101000a81548161ffff021916908361ffff1602179055508060000160009054906101000a900473ffffffffffffffffffffffffffffffffffffffff1673ffffffffffffffffffffffffffffffffffffffff167ff3aa2fff284996e4fa38020c266c1d44b0d11899054a26f3d96dd8c46bdcc03a60405160405180910390a25b50565b60001515600260003373ffffffffffffffffffffffffffffffffffffffff1673ffffffffffffffffffffffffffffffffffffffff16815260200190815260200160002060020160149054906101000a900460ff16151514610f3b57600080fd5b6040518060a001604052808381526020018281526020013373ffffffffffffffffffffffffffffffffffffffff16815260200160011515815260200160001515815250600260003373ffffffffffffffffffffffffffffffffffffffff1673ffffffffffffffffffffffffffffffffffffffff1681526020019081526020016000206000820151816000019080519060200190610fd992919061266b565b506020820151816001019080519060200190610ff692919061266b565b5060408201518160020160006101000a81548173ffffffffffffffffffffffffffffffffffffffff021916908373ffffffffffffffffffffffffffffffffffffffff16021790555060608201518160020160146101000a81548160ff02191690831515021790555060808201518160020160156101000a81548160ff0219169083151502179055509050505050565b60026020528060005260406000206000915090508060000180546110a890613163565b80601f01602080910402602001604051908101604052809291908181526020018280546110d490613163565b80156111215780601f106110f657610100808354040283529160200191611121565b820191906000526020600020905b81548152906001019060200180831161110457829003601f168201915b50505050509080600101805461113690613163565b80601f016020809104026020016040519081016040528092919081815260200182805461116290613163565b80156111af5780601f10611184576101008083540402835291602001916111af565b820191906000526020600020905b81548152906001019060200180831161119257829003601f168201915b5050505050908060020160009054906101000a900473ffffffffffffffffffffffffffffffffffffffff16908060020160149054906101000a900460ff16908060020160159054906101000a900460ff16905085565b61120d6127b8565b60011515600160008473ffffffffffffffffffffffffffffffffffffffff1673ffffffffffffffffffffffffffffffffffffffff16815260200190815260200160002060020160009054906101000a900460ff1615151461126d57600080fd5b600160008373ffffffffffffffffffffffffffffffffffffffff1673ffffffffffffffffffffffffffffffffffffffff1681526020019081526020016000206040518060600160405290816000820180546112c790613163565b80601f01602080910402602001604051908101604052809291908181526020018280546112f390613163565b80156113405780601f1061131557610100808354040283529160200191611340565b820191906000526020600020905b81548152906001019060200180831161132357829003601f168201915b5050505050815260200160018201805461135990613163565b80601f016020809104026020016040519081016040528092919081815260200182805461138590613163565b80156113d25780601f106113a7576101008083540402835291602001916113d2565b820191906000526020600020905b8154815290600101906020018083116113b557829003601f168201915b505050505081526020016002820160009054906101000a900460ff1615151515815250509050919050565b6003602052816000526040600020818154811061141957600080fd5b9060005260206000209060080201600091509150508060000160009054906101000a900473ffffffffffffffffffffffffffffffffffffffff16908060010160009054906101000a900473ffffffffffffffffffffffffffffffffffffffff16908060020154908060030154908060040154908060050160009054906101000a900461ffff16908060050160029054906101000a900460ff16908060050160039054906101000a900460ff16908060060180546114d590613163565b80601f016020809104026020016040519081016040528092919081815260200182805461150190613163565b801561154e5780601f106115235761010080835404028352916020019161154e565b820191906000526020600020905b81548152906001019060200180831161153157829003601f168201915b50505050509080600701805461156390613163565b80601f016020809104026020016040519081016040528092919081815260200182805461158f90613163565b80156115dc5780601f106115b1576101008083540402835291602001916115dc565b820191906000526020600020905b8154815290600101906020018083116115bf57829003601f168201915b505050505090508a565b60008054906101000a900473ffffffffffffffffffffffffffffffffffffffff1681565b60011515600260003373ffffffffffffffffffffffffffffffffffffffff1673ffffffffffffffffffffffffffffffffffffffff16815260200190815260200160002060020160149054906101000a900460ff1615151480156116c0575060001515600260003373ffffffffffffffffffffffffffffffffffffffff1673ffffffffffffffffffffffffffffffffffffffff16815260200190815260200160002060020160159054906101000a900460ff161515145b6116c957600080fd5b60011515600160008373ffffffffffffffffffffffffffffffffffffffff1673ffffffffffffffffffffffffffffffffffffffff16815260200190815260200160002060020160009054906101000a900460ff161515148015611738575060006117323361081e565b60600151145b61174157600080fd5b6000600260003373ffffffffffffffffffffffffffffffffffffffff1673ffffffffffffffffffffffffffffffffffffffff1681526020019081526020016000209050818160020160006101000a81548173ffffffffffffffffffffffffffffffffffffffff021916908373ffffffffffffffffffffffffffffffffffffffff16021790555060018160020160156101000a81548160ff02191690831515021790555060006117ef8361254f565b9050338160010160006101000a81548173ffffffffffffffffffffffffffffffffffffffff021916908373ffffffffffffffffffffffffffffffffffffffff1602179055508060000160009054906101000a900473ffffffffffffffffffffffffffffffffffffffff1673ffffffffffffffffffffffffffffffffffffffff167f36e4768d656c049e2c7118f34be11c06bd41d1ef4f2ad404c82f0ba280f6784f60405160405180910390a2505050565b606060011515600160008473ffffffffffffffffffffffffffffffffffffffff1673ffffffffffffffffffffffffffffffffffffffff16815260200190815260200160002060020160009054906101000a900460ff1615151461190257600080fd5b600360008373ffffffffffffffffffffffffffffffffffffffff1673ffffffffffffffffffffffffffffffffffffffff168152602001908152602001600020805480602002602001604051908101604052809291908181526020016000905b82821015611bd85783829060005260206000209060080201604051806101400160405290816000820160009054906101000a900473ffffffffffffffffffffffffffffffffffffffff1673ffffffffffffffffffffffffffffffffffffffff1673ffffffffffffffffffffffffffffffffffffffff1681526020016001820160009054906101000a900473ffffffffffffffffffffffffffffffffffffffff1673ffffffffffffffffffffffffffffffffffffffff1673ffffffffffffffffffffffffffffffffffffffff1681526020016002820154815260200160038201548152602001600482015481526020016005820160009054906101000a900461ffff1661ffff1661ffff1681526020016005820160029054906101000a900460ff161515151581526020016005820160039054906101000a900460ff16151515158152602001600682018054611ab590613163565b80601f0160208091040260200160405190810160405280929190818152602001828054611ae190613163565b8015611b2e5780601f10611b0357610100808354040283529160200191611b2e565b820191906000526020600020905b815481529060010190602001808311611b1157829003601f168201915b50505050508152602001600782018054611b4790613163565b80601f0160208091040260200160405190810160405280929190818152602001828054611b7390613163565b8015611bc05780601f10611b9557610100808354040283529160200191611bc0565b820191906000526020600020905b815481529060010190602001808311611ba357829003601f168201915b50505050508152505081526020019060010190611961565b505050509050919050565b6001602052806000526040600020600091509050806000018054611c0690613163565b80601f0160208091040260200160405190810160405280929190818152602001828054611c3290613163565b8015611c7f5780601f10611c5457610100808354040283529160200191611c7f565b820191906000526020600020905b815481529060010190602001808311611c6257829003601f168201915b505050505090806001018054611c9490613163565b80601f0160208091040260200160405190810160405280929190818152602001828054611cc090613163565b8015611d0d5780601f10611ce257610100808354040283529160200191611d0d565b820191906000526020600020905b815481529060010190602001808311611cf057829003601f168201915b5050505050908060020160009054906101000a900460ff16905083565b60011515600160003373ffffffffffffffffffffffffffffffffffffffff1673ffffffffffffffffffffffffffffffffffffffff16815260200190815260200160002060020160009054906101000a900460ff161515148015611d9957506000611d933361081e565b60400151145b611da257600080fd5b600360003373ffffffffffffffffffffffffffffffffffffffff1673ffffffffffffffffffffffffffffffffffffffff1681526020019081526020016000206040518061014001604052803373ffffffffffffffffffffffffffffffffffffffff1681526020013373ffffffffffffffffffffffffffffffffffffffff1681526020014281526020016000815260200160008152602001600061ffff16815260200160001515815260200160001515815260200184815260200183815250908060018154018082558091505060019003906000526020600020906008020160009091909190915060008201518160000160006101000a81548173ffffffffffffffffffffffffffffffffffffffff021916908373ffffffffffffffffffffffffffffffffffffffff16021790555060208201518160010160006101000a81548173ffffffffffffffffffffffffffffffffffffffff021916908373ffffffffffffffffffffffffffffffffffffffff16021790555060408201518160020155606082015181600301556080820151816004015560a08201518160050160006101000a81548161ffff021916908361ffff16021790555060c08201518160050160026101000a81548160ff02191690831515021790555060e08201518160050160036101000a81548160ff021916908315150217905550610100820151816006019080519060200190611fb592919061266b565b50610120820151816007019080519060200190611fd392919061266b565b5050507fdd1c69d29c1b10da22392c5bb2c9fcde65af28becfb66b1fadf2d41fc84c599760405160405180910390a15050565b60011515600260003373ffffffffffffffffffffffffffffffffffffffff1673ffffffffffffffffffffffffffffffffffffffff16815260200190815260200160002060020160149054906101000a900460ff1615151480156120b55750600260003373ffffffffffffffffffffffffffffffffffffffff1673ffffffffffffffffffffffffffffffffffffffff16815260200190815260200160002060020160159054906101000a900460ff165b6120be57600080fd5b6000600260003373ffffffffffffffffffffffffffffffffffffffff1673ffffffffffffffffffffffffffffffffffffffff1681526020019081526020016000206040518060a001604052908160008201805461211a90613163565b80601f016020809104026020016040519081016040528092919081815260200182805461214690613163565b80156121935780601f1061216857610100808354040283529160200191612193565b820191906000526020600020905b81548152906001019060200180831161217657829003601f168201915b505050505081526020016001820180546121ac90613163565b80601f01602080910402602001604051908101604052809291908181526020018280546121d890613163565b80156122255780601f106121fa57610100808354040283529160200191612225565b820191906000526020600020905b81548152906001019060200180831161220857829003601f168201915b505050505081526020016002820160009054906101000a900473ffffffffffffffffffffffffffffffffffffffff1673ffffffffffffffffffffffffffffffffffffffff1673ffffffffffffffffffffffffffffffffffffffff1681526020016002820160149054906101000a900460ff161515151581526020016002820160159054906101000a900460ff161515151581525050905060008160400151905060011515600160008373ffffffffffffffffffffffffffffffffffffffff1673ffffffffffffffffffffffffffffffffffffffff16815260200190815260200160002060020160009054906101000a900460ff1615151480156123385750600015156123308261081e565b60e001511515145b80156123505750600061234a8261081e565b60600151145b61235957600080fd5b426123638261254f565b600301819055506123738161081e565b6000015173ffffffffffffffffffffffffffffffffffffffff167f82e5b65aeb83b3617124292be93a7628109935d45e1177d8a721401af830f42860405160405180910390a25050565b60011515600160003373ffffffffffffffffffffffffffffffffffffffff1673ffffffffffffffffffffffffffffffffffffffff16815260200190815260200160002060020160009054906101000a900460ff16151514801561242d575060006124263361081e565b6080015114155b61243657600080fd5b60006124413361254f565b905060018160050160026101000a81548160ff0219169083151502179055506000600260008360010160009054906101000a900473ffffffffffffffffffffffffffffffffffffffff1673ffffffffffffffffffffffffffffffffffffffff1673ffffffffffffffffffffffffffffffffffffffff168152602001908152602001600020905060008160020160156101000a81548160ff0219169083151502179055508160000160009054906101000a900473ffffffffffffffffffffffffffffffffffffffff1673ffffffffffffffffffffffffffffffffffffffff167fffc23527451ba78650f0fb3d77903307a21a4d95bc670d4363793b3de9d44cc760405160405180910390a25050565b600060011515600160008473ffffffffffffffffffffffffffffffffffffffff1673ffffffffffffffffffffffffffffffffffffffff16815260200190815260200160002060020160009054906101000a900460ff161515146125b157600080fd5b6000600360008473ffffffffffffffffffffffffffffffffffffffff1673ffffffffffffffffffffffffffffffffffffffff168152602001908152602001600020805490509050600360008473ffffffffffffffffffffffffffffffffffffffff1673ffffffffffffffffffffffffffffffffffffffff16815260200190815260200160002060018261264491906131c3565b81548110612655576126546131f7565b5b9060005260206000209060080201915050919050565b82805461267790613163565b90600052602060002090601f01602090048101928261269957600085556126e0565b82601f106126b257805160ff19168380011785556126e0565b828001600101855582156126e0579182015b828111156126df5782518255916020019190600101906126c4565b5b5090506126ed91906127db565b5090565b604051806101400160405280600073ffffffffffffffffffffffffffffffffffffffff168152602001600073ffffffffffffffffffffffffffffffffffffffff168152602001600081526020016000815260200160008152602001600061ffff16815260200160001515815260200160001515815260200160608152602001606081525090565b50805461278490613163565b6000825580601f1061279657506127b5565b601f0160209004906000526020600020908101906127b491906127db565b5b50565b604051806060016040528060608152602001606081526020016000151581525090565b5b808211156127f45760008160009055506001016127dc565b5090565b6000604051905090565b600080fd5b600080fd5b600080fd5b600080fd5b6000601f19601f8301169050919050565b7f4e487b7100000000000000000000000000000000000000000000000000000000600052604160045260246000fd5b61285f82612816565b810181811067ffffffffffffffff8211171561287e5761287d612827565b5b80604052505050565b60006128916127f8565b905061289d8282612856565b919050565b600067ffffffffffffffff8211156128bd576128bc612827565b5b6128c682612816565b9050602081019050919050565b82818337600083830152505050565b60006128f56128f0846128a2565b612887565b90508281526020810184848401111561291157612910612811565b5b61291c8482856128d3565b509392505050565b600082601f8301126129395761293861280c565b5b81356129498482602086016128e2565b91505092915050565b6000806040838503121561296957612968612802565b5b600083013567ffffffffffffffff81111561298757612986612807565b5b61299385828601612924565b925050602083013567ffffffffffffffff8111156129b4576129b3612807565b5b6129c085828601612924565b9150509250929050565b600061ffff82169050919050565b6129e1816129ca565b81146129ec57600080fd5b50565b6000813590506129fe816129d8565b92915050565b600060208284031215612a1a57612a19612802565b5b6000612a28848285016129ef565b91505092915050565b600073ffffffffffffffffffffffffffffffffffffffff82169050919050565b6000612a5c82612a31565b9050919050565b612a6c81612a51565b8114612a7757600080fd5b50565b600081359050612a8981612a63565b92915050565b600060208284031215612aa557612aa4612802565b5b6000612ab384828501612a7a565b91505092915050565b612ac581612a51565b82525050565b6000819050919050565b612ade81612acb565b82525050565b612aed816129ca565b82525050565b60008115159050919050565b612b0881612af3565b82525050565b600081519050919050565b600082825260208201905092915050565b60005b83811015612b48578082015181840152602081019050612b2d565b83811115612b57576000848401525b50505050565b6000612b6882612b0e565b612b728185612b19565b9350612b82818560208601612b2a565b612b8b81612816565b840191505092915050565b600061014083016000830151612baf6000860182612abc565b506020830151612bc26020860182612abc565b506040830151612bd56040860182612ad5565b506060830151612be86060860182612ad5565b506080830151612bfb6080860182612ad5565b5060a0830151612c0e60a0860182612ae4565b5060c0830151612c2160c0860182612aff565b5060e0830151612c3460e0860182612aff565b50610100830151848203610100860152612c4e8282612b5d565b915050610120830151848203610120860152612c6a8282612b5d565b9150508091505092915050565b60006020820190508181036000830152612c918184612b96565b905092915050565b600082825260208201905092915050565b6000612cb582612b0e565b612cbf8185612c99565b9350612ccf818560208601612b2a565b612cd881612816565b840191505092915050565b612cec81612a51565b82525050565b612cfb81612af3565b82525050565b600060a0820190508181036000830152612d1b8188612caa565b90508181036020830152612d2f8187612caa565b9050612d3e6040830186612ce3565b612d4b6060830185612cf2565b612d586080830184612cf2565b9695505050505050565b60006060830160008301518482036000860152612d7f8282612b5d565b91505060208301518482036020860152612d998282612b5d565b9150506040830151612dae6040860182612aff565b508091505092915050565b60006020820190508181036000830152612dd38184612d62565b905092915050565b612de481612acb565b8114612def57600080fd5b50565b600081359050612e0181612ddb565b92915050565b60008060408385031215612e1e57612e1d612802565b5b6000612e2c85828601612a7a565b9250506020612e3d85828601612df2565b9150509250929050565b612e5081612acb565b82525050565b612e5f816129ca565b82525050565b600061014082019050612e7b600083018d612ce3565b612e88602083018c612ce3565b612e95604083018b612e47565b612ea2606083018a612e47565b612eaf6080830189612e47565b612ebc60a0830188612e56565b612ec960c0830187612cf2565b612ed660e0830186612cf2565b818103610100830152612ee98185612caa565b9050818103610120830152612efe8184612caa565b90509b9a5050505050505050505050565b6000602082019050612f246000830184612ce3565b92915050565b600081519050919050565b600082825260208201905092915050565b6000819050602082019050919050565b600061014083016000830151612f6f6000860182612abc565b506020830151612f826020860182612abc565b506040830151612f956040860182612ad5565b506060830151612fa86060860182612ad5565b506080830151612fbb6080860182612ad5565b5060a0830151612fce60a0860182612ae4565b5060c0830151612fe160c0860182612aff565b5060e0830151612ff460e0860182612aff565b5061010083015184820361010086015261300e8282612b5d565b91505061012083015184820361012086015261302a8282612b5d565b9150508091505092915050565b60006130438383612f56565b905092915050565b6000602082019050919050565b600061306382612f2a565b61306d8185612f35565b93508360208202850161307f85612f46565b8060005b858110156130bb578484038952815161309c8582613037565b94506130a78361304b565b925060208a01995050600181019050613083565b50829750879550505050505092915050565b600060208201905081810360008301526130e78184613058565b905092915050565b600060608201905081810360008301526131098186612caa565b9050818103602083015261311d8185612caa565b905061312c6040830184612cf2565b949350505050565b7f4e487b7100000000000000000000000000000000000000000000000000000000600052602260045260246000fd5b6000600282049050600182168061317b57607f821691505b60208210810361318e5761318d613134565b5b50919050565b7f4e487b7100000000000000000000000000000000000000000000000000000000600052601160045260246000fd5b60006131ce82612acb565b91506131d983612acb565b9250828210156131ec576131eb613194565b5b828203905092915050565b7f4e487b7100000000000000000000000000000000000000000000000000000000600052603260045260246000fdfea2646970667358221220b179d840036b0a4a1cee51ffa6c31110517c537d59b236f92d4e7ab9583a032464736f6c634300080e0033",
  "immutableReferences": {},
  "source": "// SPDX-License-Identifier: GPL-3.0\r\npragma solidity >=0.7.0 <0.9.0;\r\n\r\ncontract TaxiTxRx {\r\n    struct Reservation{\r\n        address target; //  \r\n        address driver; //  \r\n        uint occur; //   (timestamp)\r\n        uint start; //  \r\n        uint end; //  \r\n        uint16 paid; // \r\n        bool pay_completed; // \r\n        bool cancelled; // \r\n        string start_point; // \r\n        string dest_point;  // \r\n    }\r\n\r\n\r\n    struct User{\r\n        string phone_number; // \r\n        string name; // \r\n        bool created; // \r\n    }\r\n\r\n    struct Driver{\r\n        string phone_number; // \r\n        string name; // \r\n        address target; //   \r\n        bool created; // \r\n        bool driving; // \r\n    }\r\n\r\n\r\n    event addReservEvent();\r\n    event acceptReservEvent(address indexed addr);\r\n    event checkInTaxiEvent(address indexed addr);\r\n    event checkOutTaxiEvent(address indexed addr);\r\n    event cancelLastReservEvent(address indexed addr);\r\n    event payCompleteEvent(address indexed addr);\r\n\r\n    address public owner; //  \r\n    mapping (address => User) public users; //  \r\n    mapping (address => Driver) public drivers; //  \r\n    mapping (address => Reservation[]) public user_reservs; //  \r\n\r\n    constructor(){\r\n        owner = msg.sender;\r\n    }\r\n\r\n\r\n    //   .\r\n    function getUser(address caller) public view returns (User memory){\r\n        require(users[caller].created == true);\r\n        return users[caller];\r\n    }\r\n\r\n    //    .    . ( )\r\n    function getLastReservation(address caller) public view returns (Reservation memory){\r\n        require(users[caller].created == true);\r\n        uint size = user_reservs[caller].length;\r\n        return user_reservs[caller][size-1];\r\n    }\r\n\r\n    //    . ( )\r\n    function _getLastReservation(address caller) internal view returns (Reservation storage){\r\n        require(users[caller].created == true);\r\n        uint size = user_reservs[caller].length;\r\n        return user_reservs[caller][size-1];\r\n    }\r\n\r\n    //   . [  ]\r\n    function getReservationList(address caller) public view returns (Reservation[] memory) {\r\n        require(users[caller].created == true);\r\n        return user_reservs[caller];\r\n    }\r\n\r\n\r\n    //  . [  ]\r\n    function addUser(string memory phone_number, string memory name) public {\r\n        require(users[msg.sender].created == false);\r\n        users[msg.sender] = User(phone_number, name, true);\r\n        \r\n    }\r\n\r\n    //   [  ]\r\n    function addReserv(string memory sp, string memory dp) public {\r\n        require(users[msg.sender].created == true && getLastReservation(msg.sender).occur == 0);\r\n        user_reservs[msg.sender].push(Reservation(msg.sender, msg.sender, block.timestamp, 0, 0, 0, false, false, sp, dp));\r\n        emit addReservEvent();\r\n    }\r\n\r\n    //   [  ]\r\n    function cancelLastReserv() public {\r\n        require(users[msg.sender].created == true && getLastReservation(msg.sender).start == 0);\r\n        Reservation storage last = _getLastReservation(msg.sender);\r\n        if (last.driver == msg.sender){\r\n            uint size = user_reservs[last.target].length;\r\n            delete user_reservs[last.target][size-1];\r\n        }else{\r\n            last.cancelled = true;\r\n            last.paid = 1000; // .\r\n            emit cancelLastReservEvent(last.target);\r\n        }\r\n    }\r\n\r\n    //   [  ]\r\n    function setPayCompleteLastReserv() public{\r\n        require(users[msg.sender].created == true && getLastReservation(msg.sender).end != 0);\r\n        Reservation storage last = _getLastReservation(msg.sender);\r\n        last.pay_completed = true;\r\n        Driver storage driver = drivers[last.driver];\r\n        driver.driving = false;\r\n        emit payCompleteEvent(last.target);\r\n    }\r\n\r\n    //   [  ]\r\n    function addDriver(string memory phone_number, string memory name) public {\r\n        require(drivers[msg.sender].created == false);\r\n        drivers[msg.sender] = Driver(phone_number, name, msg.sender, true, false);\r\n        \r\n    }\r\n    //   [  ]\r\n    function acceptReserv(address target) public {\r\n        require(drivers[msg.sender].created == true && drivers[msg.sender].driving == false);\r\n        require(users[target].created == true && getLastReservation(msg.sender).start == 0);\r\n        Driver storage driver = drivers[msg.sender];\r\n        driver.target = target;\r\n        driver.driving = true;\r\n\r\n        Reservation storage last = _getLastReservation(target);\r\n        last.driver = msg.sender;\r\n\r\n        emit acceptReservEvent(last.target);\r\n    }\r\n    //   [  ]\r\n    function checkInTaxi() public {\r\n        require(drivers[msg.sender].created == true && drivers[msg.sender].driving);\r\n        Driver memory driver = drivers[msg.sender];\r\n        address caller = driver.target;\r\n\r\n        require(users[caller].created == true && getLastReservation(caller).cancelled == false && getLastReservation(caller).start == 0);\r\n        _getLastReservation(caller).start = block.timestamp;\r\n        emit checkInTaxiEvent(getLastReservation(caller).target);\r\n    }\r\n\r\n    //      [  ]\r\n    function checkOutTaxi(uint16 paid) public {\r\n        require(drivers[msg.sender].created == true && drivers[msg.sender].driving);\r\n        Driver memory driver = drivers[msg.sender];\r\n        address caller = driver.target;\r\n\r\n        require(users[caller].created == true && user_reservs[caller].length > 0);\r\n        Reservation storage last = _getLastReservation(caller);\r\n        last.end = block.timestamp; // \r\n        last.paid = paid;\r\n        emit checkOutTaxiEvent(last.target);\r\n    }\r\n    \r\n\r\n\r\n}",
  "sourcePath": "C:\\Users\\KangHyunWoo\\Documents\\VSCODE\\taxi_mmd2022\\contracts\\TaxiTxRx.sol",
  "compiler": {
    "name": "solc",
    "version": "0.8.14+commit.80d49f37.Emscripten.clang"
  },
  "schemaVersion": "3.4.7",
  "updatedAt": "2022-06-03T09:33:43.964Z",
  "networkType": "ethereum",
  "devdoc": {
    "kind": "dev",
    "methods": {},
    "version": 1
  },
  "userdoc": {
    "kind": "user",
    "methods": {},
    "version": 1
  }
}