{
  "contractName": "TaxiTxRx",
  "abi": [
    {
      "inputs": [],
      "stateMutability": "nonpayable",
      "type": "constructor"
    },
    {
      "anonymous": false,
      "inputs": [
        {
          "indexed": true,
          "internalType": "address",
          "name": "addr",
          "type": "address"
        }
      ],
      "name": "acceptReservEvent",
      "type": "event"
    },
    {
      "anonymous": false,
      "inputs": [],
      "name": "addReservEvent",
      "type": "event"
    },
    {
      "anonymous": false,
      "inputs": [
        {
          "indexed": true,
          "internalType": "address",
          "name": "addr",
          "type": "address"
        }
      ],
      "name": "cancelLastReservEvent",
      "type": "event"
    },
    {
      "anonymous": false,
      "inputs": [
        {
          "indexed": true,
          "internalType": "address",
          "name": "addr",
          "type": "address"
        }
      ],
      "name": "checkInTaxiEvent",
      "type": "event"
    },
    {
      "anonymous": false,
      "inputs": [
        {
          "indexed": true,
          "internalType": "address",
          "name": "addr",
          "type": "address"
        }
      ],
      "name": "checkOutTaxiEvent",
      "type": "event"
    },
    {
      "anonymous": false,
      "inputs": [
        {
          "indexed": true,
          "internalType": "address",
          "name": "addr",
          "type": "address"
        }
      ],
      "name": "payCompleteEvent",
      "type": "event"
    },
    {
      "inputs": [
        {
          "internalType": "address",
          "name": "",
          "type": "address"
        }
      ],
      "name": "drivers",
      "outputs": [
        {
          "internalType": "bytes16",
          "name": "phone_number",
          "type": "bytes16"
        },
        {
          "internalType": "bytes16",
          "name": "car_number",
          "type": "bytes16"
        },
        {
          "internalType": "bytes32",
          "name": "name",
          "type": "bytes32"
        },
        {
          "internalType": "bytes32",
          "name": "nickname",
          "type": "bytes32"
        },
        {
          "internalType": "bytes32",
          "name": "email",
          "type": "bytes32"
        },
        {
          "internalType": "address",
          "name": "target",
          "type": "address"
        },
        {
          "internalType": "bool",
          "name": "created",
          "type": "bool"
        },
        {
          "internalType": "bool",
          "name": "driving",
          "type": "bool"
        }
      ],
      "stateMutability": "view",
      "type": "function",
      "constant": true
    },
    {
      "inputs": [],
      "name": "owner",
      "outputs": [
        {
          "internalType": "address",
          "name": "",
          "type": "address"
        }
      ],
      "stateMutability": "view",
      "type": "function",
      "constant": true
    },
    {
      "inputs": [
        {
          "internalType": "address",
          "name": "",
          "type": "address"
        },
        {
          "internalType": "uint256",
          "name": "",
          "type": "uint256"
        }
      ],
      "name": "user_reservs",
      "outputs": [
        {
          "internalType": "address",
          "name": "target",
          "type": "address"
        },
        {
          "internalType": "address",
          "name": "driver",
          "type": "address"
        },
        {
          "internalType": "uint256",
          "name": "occur",
          "type": "uint256"
        },
        {
          "internalType": "uint256",
          "name": "start",
          "type": "uint256"
        },
        {
          "internalType": "uint256",
          "name": "end",
          "type": "uint256"
        },
        {
          "internalType": "uint16",
          "name": "paid",
          "type": "uint16"
        },
        {
          "internalType": "bool",
          "name": "pay_completed",
          "type": "bool"
        },
        {
          "internalType": "bool",
          "name": "cancelled",
          "type": "bool"
        },
        {
          "internalType": "string",
          "name": "start_point",
          "type": "string"
        },
        {
          "internalType": "string",
          "name": "dest_point",
          "type": "string"
        }
      ],
      "stateMutability": "view",
      "type": "function",
      "constant": true
    },
    {
      "inputs": [
        {
          "internalType": "address",
          "name": "",
          "type": "address"
        }
      ],
      "name": "users",
      "outputs": [
        {
          "internalType": "bytes16",
          "name": "phone_number",
          "type": "bytes16"
        },
        {
          "internalType": "bytes32",
          "name": "name",
          "type": "bytes32"
        },
        {
          "internalType": "bytes32",
          "name": "nickname",
          "type": "bytes32"
        },
        {
          "internalType": "bytes32",
          "name": "email",
          "type": "bytes32"
        },
        {
          "internalType": "bool",
          "name": "created",
          "type": "bool"
        }
      ],
      "stateMutability": "view",
      "type": "function",
      "constant": true
    },
    {
      "inputs": [
        {
          "internalType": "address",
          "name": "caller",
          "type": "address"
        }
      ],
      "name": "getStringUser",
      "outputs": [
        {
          "components": [
            {
              "internalType": "string",
              "name": "phone_number",
              "type": "string"
            },
            {
              "internalType": "string",
              "name": "name",
              "type": "string"
            },
            {
              "internalType": "string",
              "name": "nickname",
              "type": "string"
            },
            {
              "internalType": "string",
              "name": "email",
              "type": "string"
            },
            {
              "internalType": "bool",
              "name": "created",
              "type": "bool"
            }
          ],
          "internalType": "struct TaxiTxRx.StringUser",
          "name": "",
          "type": "tuple"
        }
      ],
      "stateMutability": "view",
      "type": "function",
      "constant": true
    },
    {
      "inputs": [
        {
          "internalType": "address",
          "name": "caller",
          "type": "address"
        }
      ],
      "name": "getLastReservation",
      "outputs": [
        {
          "components": [
            {
              "internalType": "address",
              "name": "target",
              "type": "address"
            },
            {
              "internalType": "address",
              "name": "driver",
              "type": "address"
            },
            {
              "internalType": "uint256",
              "name": "occur",
              "type": "uint256"
            },
            {
              "internalType": "uint256",
              "name": "start",
              "type": "uint256"
            },
            {
              "internalType": "uint256",
              "name": "end",
              "type": "uint256"
            },
            {
              "internalType": "uint16",
              "name": "paid",
              "type": "uint16"
            },
            {
              "internalType": "bool",
              "name": "pay_completed",
              "type": "bool"
            },
            {
              "internalType": "bool",
              "name": "cancelled",
              "type": "bool"
            },
            {
              "internalType": "string",
              "name": "start_point",
              "type": "string"
            },
            {
              "internalType": "string",
              "name": "dest_point",
              "type": "string"
            }
          ],
          "internalType": "struct TaxiTxRx.Reservation",
          "name": "",
          "type": "tuple"
        }
      ],
      "stateMutability": "view",
      "type": "function",
      "constant": true
    },
    {
      "inputs": [
        {
          "internalType": "address",
          "name": "caller",
          "type": "address"
        }
      ],
      "name": "getReservationList",
      "outputs": [
        {
          "components": [
            {
              "internalType": "address",
              "name": "target",
              "type": "address"
            },
            {
              "internalType": "address",
              "name": "driver",
              "type": "address"
            },
            {
              "internalType": "uint256",
              "name": "occur",
              "type": "uint256"
            },
            {
              "internalType": "uint256",
              "name": "start",
              "type": "uint256"
            },
            {
              "internalType": "uint256",
              "name": "end",
              "type": "uint256"
            },
            {
              "internalType": "uint16",
              "name": "paid",
              "type": "uint16"
            },
            {
              "internalType": "bool",
              "name": "pay_completed",
              "type": "bool"
            },
            {
              "internalType": "bool",
              "name": "cancelled",
              "type": "bool"
            },
            {
              "internalType": "string",
              "name": "start_point",
              "type": "string"
            },
            {
              "internalType": "string",
              "name": "dest_point",
              "type": "string"
            }
          ],
          "internalType": "struct TaxiTxRx.Reservation[]",
          "name": "",
          "type": "tuple[]"
        }
      ],
      "stateMutability": "view",
      "type": "function",
      "constant": true
    },
    {
      "inputs": [
        {
          "internalType": "string",
          "name": "phone_number",
          "type": "string"
        },
        {
          "internalType": "string",
          "name": "name",
          "type": "string"
        },
        {
          "internalType": "string",
          "name": "nickname",
          "type": "string"
        },
        {
          "internalType": "string",
          "name": "email",
          "type": "string"
        }
      ],
      "name": "addUser",
      "outputs": [],
      "stateMutability": "nonpayable",
      "type": "function"
    },
    {
      "inputs": [
        {
          "internalType": "string",
          "name": "sp",
          "type": "string"
        },
        {
          "internalType": "string",
          "name": "dp",
          "type": "string"
        }
      ],
      "name": "addReserv",
      "outputs": [],
      "stateMutability": "nonpayable",
      "type": "function"
    },
    {
      "inputs": [],
      "name": "cancelLastReserv",
      "outputs": [],
      "stateMutability": "nonpayable",
      "type": "function"
    },
    {
      "inputs": [],
      "name": "setPayCompleteLastReserv",
      "outputs": [],
      "stateMutability": "nonpayable",
      "type": "function"
    },
    {
      "inputs": [
        {
          "internalType": "address",
          "name": "caller",
          "type": "address"
        }
      ],
      "name": "getStringDriver",
      "outputs": [
        {
          "components": [
            {
              "internalType": "string",
              "name": "phone_number",
              "type": "string"
            },
            {
              "internalType": "string",
              "name": "car_number",
              "type": "string"
            },
            {
              "internalType": "string",
              "name": "name",
              "type": "string"
            },
            {
              "internalType": "string",
              "name": "nickname",
              "type": "string"
            },
            {
              "internalType": "string",
              "name": "email",
              "type": "string"
            },
            {
              "internalType": "address",
              "name": "target",
              "type": "address"
            },
            {
              "internalType": "bool",
              "name": "created",
              "type": "bool"
            },
            {
              "internalType": "bool",
              "name": "driving",
              "type": "bool"
            }
          ],
          "internalType": "struct TaxiTxRx.StringDriver",
          "name": "",
          "type": "tuple"
        }
      ],
      "stateMutability": "view",
      "type": "function",
      "constant": true
    },
    {
      "inputs": [
        {
          "internalType": "string",
          "name": "phone_number",
          "type": "string"
        },
        {
          "internalType": "string",
          "name": "car_number",
          "type": "string"
        },
        {
          "internalType": "string",
          "name": "name",
          "type": "string"
        },
        {
          "internalType": "string",
          "name": "nickname",
          "type": "string"
        },
        {
          "internalType": "string",
          "name": "email",
          "type": "string"
        }
      ],
      "name": "addDriver",
      "outputs": [],
      "stateMutability": "nonpayable",
      "type": "function"
    },
    {
      "inputs": [
        {
          "internalType": "address",
          "name": "target",
          "type": "address"
        }
      ],
      "name": "acceptReserv",
      "outputs": [],
      "stateMutability": "nonpayable",
      "type": "function"
    },
    {
      "inputs": [],
      "name": "checkInTaxi",
      "outputs": [],
      "stateMutability": "nonpayable",
      "type": "function"
    },
    {
      "inputs": [
        {
          "internalType": "uint16",
          "name": "paid",
          "type": "uint16"
        }
      ],
      "name": "checkOutTaxi",
      "outputs": [],
      "stateMutability": "nonpayable",
      "type": "function"
    },
    {
      "inputs": [
        {
          "components": [
            {
              "internalType": "bytes16",
              "name": "phone_number",
              "type": "bytes16"
            },
            {
              "internalType": "bytes32",
              "name": "name",
              "type": "bytes32"
            },
            {
              "internalType": "bytes32",
              "name": "nickname",
              "type": "bytes32"
            },
            {
              "internalType": "bytes32",
              "name": "email",
              "type": "bytes32"
            },
            {
              "internalType": "bool",
              "name": "created",
              "type": "bool"
            }
          ],
          "internalType": "struct TaxiTxRx.User",
          "name": "x",
          "type": "tuple"
        }
      ],
      "name": "ToStringUser",
      "outputs": [
        {
          "components": [
            {
              "internalType": "string",
              "name": "phone_number",
              "type": "string"
            },
            {
              "internalType": "string",
              "name": "name",
              "type": "string"
            },
            {
              "internalType": "string",
              "name": "nickname",
              "type": "string"
            },
            {
              "internalType": "string",
              "name": "email",
              "type": "string"
            },
            {
              "internalType": "bool",
              "name": "created",
              "type": "bool"
            }
          ],
          "internalType": "struct TaxiTxRx.StringUser",
          "name": "",
          "type": "tuple"
        }
      ],
      "stateMutability": "pure",
      "type": "function",
      "constant": true
    },
    {
      "inputs": [
        {
          "components": [
            {
              "internalType": "bytes16",
              "name": "phone_number",
              "type": "bytes16"
            },
            {
              "internalType": "bytes16",
              "name": "car_number",
              "type": "bytes16"
            },
            {
              "internalType": "bytes32",
              "name": "name",
              "type": "bytes32"
            },
            {
              "internalType": "bytes32",
              "name": "nickname",
              "type": "bytes32"
            },
            {
              "internalType": "bytes32",
              "name": "email",
              "type": "bytes32"
            },
            {
              "internalType": "address",
              "name": "target",
              "type": "address"
            },
            {
              "internalType": "bool",
              "name": "created",
              "type": "bool"
            },
            {
              "internalType": "bool",
              "name": "driving",
              "type": "bool"
            }
          ],
          "internalType": "struct TaxiTxRx.Driver",
          "name": "x",
          "type": "tuple"
        }
      ],
      "name": "ToStringDriver",
      "outputs": [
        {
          "components": [
            {
              "internalType": "string",
              "name": "phone_number",
              "type": "string"
            },
            {
              "internalType": "string",
              "name": "car_number",
              "type": "string"
            },
            {
              "internalType": "string",
              "name": "name",
              "type": "string"
            },
            {
              "internalType": "string",
              "name": "nickname",
              "type": "string"
            },
            {
              "internalType": "string",
              "name": "email",
              "type": "string"
            },
            {
              "internalType": "address",
              "name": "target",
              "type": "address"
            },
            {
              "internalType": "bool",
              "name": "created",
              "type": "bool"
            },
            {
              "internalType": "bool",
              "name": "driving",
              "type": "bool"
            }
          ],
          "internalType": "struct TaxiTxRx.StringDriver",
          "name": "",
          "type": "tuple"
        }
      ],
      "stateMutability": "pure",
      "type": "function",
      "constant": true
    }
  ],
  "bytecode": "0x608060405234801561001057600080fd5b50336000806101000a81548173ffffffffffffffffffffffffffffffffffffffff021916908373ffffffffffffffffffffffffffffffffffffffff160217905550613e82806100606000396000f3fe608060405234801561001057600080fd5b50600436106101165760003560e01c806388372f86116100a2578063a87430ba11610071578063a87430ba14610313578063ab4a9d5414610347578063b23a62f914610363578063b9e5312a1461036d578063e2e1d18b1461039d57610116565b806388372f86146102795780638da5cb5b146102a95780639e23195c146102c7578063a79a3671146102e357610116565b80633410671d116100e95780633410671d1461019f57806343860167146101a95780634aa60186146101d9578063823c63f214610210578063863eb5c91461024957610116565b806301cda3ac1461011b57806303c0b57e146101375780631522d75b146101535780632a1e0b781461016f575b600080fd5b61013560048036038101906101309190612e69565b6103a7565b005b610151600480360381019061014c9190612f40565b61051a565b005b61016d60048036038101906101689190613081565b61076c565b005b6101896004803603810190610184919061310c565b610af0565b60405161019691906132f4565b60405180910390f35b6101a7610e62565b005b6101c360048036038101906101be919061310c565b6111ad565b6040516101d091906133e2565b60405180910390f35b6101f360048036038101906101ee919061310c565b611393565b604051610207989796959493929190613476565b60405180910390f35b61022a60048036038101906102259190613520565b61142f565b6040516102409a999897969594939291906135c8565b60405180910390f35b610263600480360381019061025e9190613787565b611618565b604051610270919061383f565b60405180910390f35b610293600480360381019061028e919061392b565b611699565b6040516102a091906133e2565b60405180910390f35b6102b161177f565b6040516102be9190613959565b60405180910390f35b6102e160048036038101906102dc919061310c565b6117a3565b005b6102fd60048036038101906102f8919061310c565b611a39565b60405161030a9190613b17565b60405180910390f35b61032d6004803603810190610328919061310c565b611d7c565b60405161033e959493929190613b39565b60405180910390f35b610361600480360381019061035c9190613b8c565b611dcc565b005b61036b6120a8565b005b6103876004803603810190610382919061310c565b6123d4565b604051610394919061383f565b60405180910390f35b6103a561250b565b005b60001515600160003373ffffffffffffffffffffffffffffffffffffffff1673ffffffffffffffffffffffffffffffffffffffff16815260200190815260200160002060040160009054906101000a900460ff1615151461040757600080fd5b6040518060a0016040528061041b8661269d565b6fffffffffffffffffffffffffffffffff1916815260200161043c856126b0565b815260200161044a846126b0565b8152602001610458836126b0565b815260200160011515815250600160003373ffffffffffffffffffffffffffffffffffffffff1673ffffffffffffffffffffffffffffffffffffffff16815260200190815260200160002060008201518160000160006101000a8154816fffffffffffffffffffffffffffffffff021916908360801c021790555060208201518160010155604082015181600201556060820151816003015560808201518160040160006101000a81548160ff02191690831515021790555090505050505050565b60001515600260003373ffffffffffffffffffffffffffffffffffffffff1673ffffffffffffffffffffffffffffffffffffffff16815260200190815260200160002060040160149054906101000a900460ff1615151461057a57600080fd5b60405180610100016040528061058f8761269d565b6fffffffffffffffffffffffffffffffff191681526020016105b08661269d565b6fffffffffffffffffffffffffffffffff191681526020016105d1856126b0565b81526020016105df846126b0565b81526020016105ed836126b0565b81526020013373ffffffffffffffffffffffffffffffffffffffff16815260200160011515815260200160001515815250600260003373ffffffffffffffffffffffffffffffffffffffff1673ffffffffffffffffffffffffffffffffffffffff16815260200190815260200160002060008201518160000160006101000a8154816fffffffffffffffffffffffffffffffff021916908360801c021790555060208201518160000160106101000a8154816fffffffffffffffffffffffffffffffff021916908360801c021790555060408201518160010155606082015181600201556080820151816003015560a08201518160040160006101000a81548173ffffffffffffffffffffffffffffffffffffffff021916908373ffffffffffffffffffffffffffffffffffffffff16021790555060c08201518160040160146101000a81548160ff02191690831515021790555060e08201518160040160156101000a81548160ff0219169083151502179055509050505050505050565b60011515600260003373ffffffffffffffffffffffffffffffffffffffff1673ffffffffffffffffffffffffffffffffffffffff16815260200190815260200160002060040160149054906101000a900460ff16151514801561081b5750600260003373ffffffffffffffffffffffffffffffffffffffff1673ffffffffffffffffffffffffffffffffffffffff16815260200190815260200160002060040160159054906101000a900460ff165b61082457600080fd5b6000600260003373ffffffffffffffffffffffffffffffffffffffff1673ffffffffffffffffffffffffffffffffffffffff168152602001908152602001600020604051806101000160405290816000820160009054906101000a900460801b6fffffffffffffffffffffffffffffffff19166fffffffffffffffffffffffffffffffff191681526020016000820160109054906101000a900460801b6fffffffffffffffffffffffffffffffff19166fffffffffffffffffffffffffffffffff191681526020016001820154815260200160028201548152602001600382015481526020016004820160009054906101000a900473ffffffffffffffffffffffffffffffffffffffff1673ffffffffffffffffffffffffffffffffffffffff1673ffffffffffffffffffffffffffffffffffffffff1681526020016004820160149054906101000a900460ff161515151581526020016004820160159054906101000a900460ff161515151581525050905060008160a00151905060011515600160008373ffffffffffffffffffffffffffffffffffffffff1673ffffffffffffffffffffffffffffffffffffffff16815260200190815260200160002060040160009054906101000a900460ff161515148015610a4557506000600360008373ffffffffffffffffffffffffffffffffffffffff1673ffffffffffffffffffffffffffffffffffffffff16815260200190815260200160002080549050115b610a4e57600080fd5b6000610a59826126c3565b9050428160040181905550838160050160006101000a81548161ffff021916908361ffff1602179055508060000160009054906101000a900473ffffffffffffffffffffffffffffffffffffffff1673ffffffffffffffffffffffffffffffffffffffff167f21babe125c5c1c150251f23a193b80984b331789fe193b4bd254674cafc9cbb160405160405180910390a250505050565b610af8612b15565b60011515600160008473ffffffffffffffffffffffffffffffffffffffff1673ffffffffffffffffffffffffffffffffffffffff16815260200190815260200160002060040160009054906101000a900460ff16151514610b5857600080fd5b6000600360008473ffffffffffffffffffffffffffffffffffffffff1673ffffffffffffffffffffffffffffffffffffffff168152602001908152602001600020805490509050600360008473ffffffffffffffffffffffffffffffffffffffff1673ffffffffffffffffffffffffffffffffffffffff168152602001908152602001600020600182610beb9190613c33565b81548110610bfc57610bfb613c67565b5b9060005260206000209060080201604051806101400160405290816000820160009054906101000a900473ffffffffffffffffffffffffffffffffffffffff1673ffffffffffffffffffffffffffffffffffffffff1673ffffffffffffffffffffffffffffffffffffffff1681526020016001820160009054906101000a900473ffffffffffffffffffffffffffffffffffffffff1673ffffffffffffffffffffffffffffffffffffffff1673ffffffffffffffffffffffffffffffffffffffff1681526020016002820154815260200160038201548152602001600482015481526020016005820160009054906101000a900461ffff1661ffff1661ffff1681526020016005820160029054906101000a900460ff161515151581526020016005820160039054906101000a900460ff16151515158152602001600682018054610d4690613cc5565b80601f0160208091040260200160405190810160405280929190818152602001828054610d7290613cc5565b8015610dbf5780601f10610d9457610100808354040283529160200191610dbf565b820191906000526020600020905b815481529060010190602001808311610da257829003601f168201915b50505050508152602001600782018054610dd890613cc5565b80601f0160208091040260200160405190810160405280929190818152602001828054610e0490613cc5565b8015610e515780601f10610e2657610100808354040283529160200191610e51565b820191906000526020600020905b815481529060010190602001808311610e3457829003601f168201915b505050505081525050915050919050565b60011515600160003373ffffffffffffffffffffffffffffffffffffffff1673ffffffffffffffffffffffffffffffffffffffff16815260200190815260200160002060040160009054906101000a900460ff161515148015610ed157506000610ecb33610af0565b60600151145b610eda57600080fd5b6000610ee5336126c3565b90503373ffffffffffffffffffffffffffffffffffffffff168160010160009054906101000a900473ffffffffffffffffffffffffffffffffffffffff1673ffffffffffffffffffffffffffffffffffffffff1603611104576000600360008360000160009054906101000a900473ffffffffffffffffffffffffffffffffffffffff1673ffffffffffffffffffffffffffffffffffffffff1673ffffffffffffffffffffffffffffffffffffffff168152602001908152602001600020805490509050600360008360000160009054906101000a900473ffffffffffffffffffffffffffffffffffffffff1673ffffffffffffffffffffffffffffffffffffffff1673ffffffffffffffffffffffffffffffffffffffff1681526020019081526020016000206001826110199190613c33565b8154811061102a57611029613c67565b5b9060005260206000209060080201600080820160006101000a81549073ffffffffffffffffffffffffffffffffffffffff02191690556001820160006101000a81549073ffffffffffffffffffffffffffffffffffffffff02191690556002820160009055600382016000905560048201600090556005820160006101000a81549061ffff02191690556005820160026101000a81549060ff02191690556005820160036101000a81549060ff02191690556006820160006110ec9190612b9c565b6007820160006110fc9190612b9c565b5050506111aa565b60018160050160036101000a81548160ff0219169083151502179055506103e88160050160006101000a81548161ffff021916908361ffff1602179055508060000160009054906101000a900473ffffffffffffffffffffffffffffffffffffffff1673ffffffffffffffffffffffffffffffffffffffff167ff3aa2fff284996e4fa38020c266c1d44b0d11899054a26f3d96dd8c46bdcc03a60405160405180910390a25b50565b6111b5612bdc565b60011515600260008473ffffffffffffffffffffffffffffffffffffffff1673ffffffffffffffffffffffffffffffffffffffff16815260200190815260200160002060040160149054906101000a900460ff1615151461121557600080fd5b61138c600260008473ffffffffffffffffffffffffffffffffffffffff1673ffffffffffffffffffffffffffffffffffffffff168152602001908152602001600020604051806101000160405290816000820160009054906101000a900460801b6fffffffffffffffffffffffffffffffff19166fffffffffffffffffffffffffffffffff191681526020016000820160109054906101000a900460801b6fffffffffffffffffffffffffffffffff19166fffffffffffffffffffffffffffffffff191681526020016001820154815260200160028201548152602001600382015481526020016004820160009054906101000a900473ffffffffffffffffffffffffffffffffffffffff1673ffffffffffffffffffffffffffffffffffffffff1673ffffffffffffffffffffffffffffffffffffffff1681526020016004820160149054906101000a900460ff161515151581526020016004820160159054906101000a900460ff161515151581525050611699565b9050919050565b60026020528060005260406000206000915090508060000160009054906101000a900460801b908060000160109054906101000a900460801b908060010154908060020154908060030154908060040160009054906101000a900473ffffffffffffffffffffffffffffffffffffffff16908060040160149054906101000a900460ff16908060040160159054906101000a900460ff16905088565b6003602052816000526040600020818154811061144b57600080fd5b9060005260206000209060080201600091509150508060000160009054906101000a900473ffffffffffffffffffffffffffffffffffffffff16908060010160009054906101000a900473ffffffffffffffffffffffffffffffffffffffff16908060020154908060030154908060040154908060050160009054906101000a900461ffff16908060050160029054906101000a900460ff16908060050160039054906101000a900460ff169080600601805461150790613cc5565b80601f016020809104026020016040519081016040528092919081815260200182805461153390613cc5565b80156115805780601f1061155557610100808354040283529160200191611580565b820191906000526020600020905b81548152906001019060200180831161156357829003601f168201915b50505050509080600701805461159590613cc5565b80601f01602080910402602001604051908101604052809291908181526020018280546115c190613cc5565b801561160e5780601f106115e35761010080835404028352916020019161160e565b820191906000526020600020905b8154815290600101906020018083116115f157829003601f168201915b505050505090508a565b611620612c3b565b611628612c3b565b61163583600001516127df565b816000018190525061164a836020015161297a565b816020018190525061165f836040015161297a565b8160400181905250611674836060015161297a565b8160600181905250826080015181608001901515908115158152505080915050919050565b6116a1612bdc565b6116a9612bdc565b6116b683600001516127df565b81600001819052506116cb83602001516127df565b81602001819052506116e0836040015161297a565b81604001819052506116f5836060015161297a565b816060018190525061170a836080015161297a565b81608001819052508260a001518160a0019073ffffffffffffffffffffffffffffffffffffffff16908173ffffffffffffffffffffffffffffffffffffffff16815250508260e001518160e00190151590811515815250508260c001518160c001901515908115158152505080915050919050565b60008054906101000a900473ffffffffffffffffffffffffffffffffffffffff1681565b60011515600260003373ffffffffffffffffffffffffffffffffffffffff1673ffffffffffffffffffffffffffffffffffffffff16815260200190815260200160002060040160149054906101000a900460ff161515148015611859575060001515600260003373ffffffffffffffffffffffffffffffffffffffff1673ffffffffffffffffffffffffffffffffffffffff16815260200190815260200160002060040160159054906101000a900460ff161515145b61186257600080fd5b60011515600160008373ffffffffffffffffffffffffffffffffffffffff1673ffffffffffffffffffffffffffffffffffffffff16815260200190815260200160002060040160009054906101000a900460ff1615151480156118d1575060006118cb33610af0565b60600151145b6118da57600080fd5b6000600260003373ffffffffffffffffffffffffffffffffffffffff1673ffffffffffffffffffffffffffffffffffffffff1681526020019081526020016000209050818160040160006101000a81548173ffffffffffffffffffffffffffffffffffffffff021916908373ffffffffffffffffffffffffffffffffffffffff16021790555060018160040160156101000a81548160ff0219169083151502179055506000611988836126c3565b9050338160010160006101000a81548173ffffffffffffffffffffffffffffffffffffffff021916908373ffffffffffffffffffffffffffffffffffffffff1602179055508060000160009054906101000a900473ffffffffffffffffffffffffffffffffffffffff1673ffffffffffffffffffffffffffffffffffffffff167f36e4768d656c049e2c7118f34be11c06bd41d1ef4f2ad404c82f0ba280f6784f60405160405180910390a2505050565b606060011515600160008473ffffffffffffffffffffffffffffffffffffffff1673ffffffffffffffffffffffffffffffffffffffff16815260200190815260200160002060040160009054906101000a900460ff16151514611a9b57600080fd5b600360008373ffffffffffffffffffffffffffffffffffffffff1673ffffffffffffffffffffffffffffffffffffffff168152602001908152602001600020805480602002602001604051908101604052809291908181526020016000905b82821015611d715783829060005260206000209060080201604051806101400160405290816000820160009054906101000a900473ffffffffffffffffffffffffffffffffffffffff1673ffffffffffffffffffffffffffffffffffffffff1673ffffffffffffffffffffffffffffffffffffffff1681526020016001820160009054906101000a900473ffffffffffffffffffffffffffffffffffffffff1673ffffffffffffffffffffffffffffffffffffffff1673ffffffffffffffffffffffffffffffffffffffff1681526020016002820154815260200160038201548152602001600482015481526020016005820160009054906101000a900461ffff1661ffff1661ffff1681526020016005820160029054906101000a900460ff161515151581526020016005820160039054906101000a900460ff16151515158152602001600682018054611c4e90613cc5565b80601f0160208091040260200160405190810160405280929190818152602001828054611c7a90613cc5565b8015611cc75780601f10611c9c57610100808354040283529160200191611cc7565b820191906000526020600020905b815481529060010190602001808311611caa57829003601f168201915b50505050508152602001600782018054611ce090613cc5565b80601f0160208091040260200160405190810160405280929190818152602001828054611d0c90613cc5565b8015611d595780601f10611d2e57610100808354040283529160200191611d59565b820191906000526020600020905b815481529060010190602001808311611d3c57829003601f168201915b50505050508152505081526020019060010190611afa565b505050509050919050565b60016020528060005260406000206000915090508060000160009054906101000a900460801b908060010154908060020154908060030154908060040160009054906101000a900460ff16905085565b60011515600160003373ffffffffffffffffffffffffffffffffffffffff1673ffffffffffffffffffffffffffffffffffffffff16815260200190815260200160002060040160009054906101000a900460ff161515148015611e3b57506000611e3533610af0565b60400151145b611e4457600080fd5b600360003373ffffffffffffffffffffffffffffffffffffffff1673ffffffffffffffffffffffffffffffffffffffff1681526020019081526020016000206040518061014001604052803373ffffffffffffffffffffffffffffffffffffffff1681526020013373ffffffffffffffffffffffffffffffffffffffff1681526020014281526020016000815260200160008152602001600061ffff16815260200160001515815260200160001515815260200184815260200183815250908060018154018082558091505060019003906000526020600020906008020160009091909190915060008201518160000160006101000a81548173ffffffffffffffffffffffffffffffffffffffff021916908373ffffffffffffffffffffffffffffffffffffffff16021790555060208201518160010160006101000a81548173ffffffffffffffffffffffffffffffffffffffff021916908373ffffffffffffffffffffffffffffffffffffffff16021790555060408201518160020155606082015181600301556080820151816004015560a08201518160050160006101000a81548161ffff021916908361ffff16021790555060c08201518160050160026101000a81548160ff02191690831515021790555060e08201518160050160036101000a81548160ff021916908315150217905550610100820151816006019080519060200190612057929190612c6c565b50610120820151816007019080519060200190612075929190612c6c565b5050507fdd1c69d29c1b10da22392c5bb2c9fcde65af28becfb66b1fadf2d41fc84c599760405160405180910390a15050565b60011515600260003373ffffffffffffffffffffffffffffffffffffffff1673ffffffffffffffffffffffffffffffffffffffff16815260200190815260200160002060040160149054906101000a900460ff1615151480156121575750600260003373ffffffffffffffffffffffffffffffffffffffff1673ffffffffffffffffffffffffffffffffffffffff16815260200190815260200160002060040160159054906101000a900460ff165b61216057600080fd5b6000600260003373ffffffffffffffffffffffffffffffffffffffff1673ffffffffffffffffffffffffffffffffffffffff168152602001908152602001600020604051806101000160405290816000820160009054906101000a900460801b6fffffffffffffffffffffffffffffffff19166fffffffffffffffffffffffffffffffff191681526020016000820160109054906101000a900460801b6fffffffffffffffffffffffffffffffff19166fffffffffffffffffffffffffffffffff191681526020016001820154815260200160028201548152602001600382015481526020016004820160009054906101000a900473ffffffffffffffffffffffffffffffffffffffff1673ffffffffffffffffffffffffffffffffffffffff1673ffffffffffffffffffffffffffffffffffffffff1681526020016004820160149054906101000a900460ff161515151581526020016004820160159054906101000a900460ff161515151581525050905060008160a00151905060011515600160008373ffffffffffffffffffffffffffffffffffffffff1673ffffffffffffffffffffffffffffffffffffffff16815260200190815260200160002060040160009054906101000a900460ff16151514801561234f57506000151561234782610af0565b60e001511515145b80156123675750600061236182610af0565b60600151145b61237057600080fd5b4261237a826126c3565b6003018190555061238a81610af0565b6000015173ffffffffffffffffffffffffffffffffffffffff167f82e5b65aeb83b3617124292be93a7628109935d45e1177d8a721401af830f42860405160405180910390a25050565b6123dc612c3b565b60011515600160008473ffffffffffffffffffffffffffffffffffffffff1673ffffffffffffffffffffffffffffffffffffffff16815260200190815260200160002060040160009054906101000a900460ff1615151461243c57600080fd5b612504600160008473ffffffffffffffffffffffffffffffffffffffff1673ffffffffffffffffffffffffffffffffffffffff1681526020019081526020016000206040518060a00160405290816000820160009054906101000a900460801b6fffffffffffffffffffffffffffffffff19166fffffffffffffffffffffffffffffffff191681526020016001820154815260200160028201548152602001600382015481526020016004820160009054906101000a900460ff161515151581525050611618565b9050919050565b60011515600160003373ffffffffffffffffffffffffffffffffffffffff1673ffffffffffffffffffffffffffffffffffffffff16815260200190815260200160002060040160009054906101000a900460ff16151514801561257b5750600061257433610af0565b6080015114155b61258457600080fd5b600061258f336126c3565b905060018160050160026101000a81548160ff0219169083151502179055506000600260008360010160009054906101000a900473ffffffffffffffffffffffffffffffffffffffff1673ffffffffffffffffffffffffffffffffffffffff1673ffffffffffffffffffffffffffffffffffffffff168152602001908152602001600020905060008160040160156101000a81548160ff0219169083151502179055508160000160009054906101000a900473ffffffffffffffffffffffffffffffffffffffff1673ffffffffffffffffffffffffffffffffffffffff167fffc23527451ba78650f0fb3d77903307a21a4d95bc670d4363793b3de9d44cc760405160405180910390a25050565b6000816126a990613d33565b9050919050565b6000816126bc90613daf565b9050919050565b600060011515600160008473ffffffffffffffffffffffffffffffffffffffff1673ffffffffffffffffffffffffffffffffffffffff16815260200190815260200160002060040160009054906101000a900460ff1615151461272557600080fd5b6000600360008473ffffffffffffffffffffffffffffffffffffffff1673ffffffffffffffffffffffffffffffffffffffff168152602001908152602001600020805490509050600360008473ffffffffffffffffffffffffffffffffffffffff1673ffffffffffffffffffffffffffffffffffffffff1681526020019081526020016000206001826127b89190613c33565b815481106127c9576127c8613c67565b5b9060005260206000209060080201915050919050565b606060005b60108160ff161080156128365750600060f81b838260ff166010811061280d5761280c613c67565b5b1a60f81b7effffffffffffffffffffffffffffffffffffffffffffffffffffffffffffff191614155b1561284e57808061284690613e23565b9150506127e4565b60008160ff1667ffffffffffffffff81111561286d5761286c612d3e565b5b6040519080825280601f01601f19166020018201604052801561289f5781602001600182028036833780820191505090505b509050600091505b60108260ff161080156128f95750600060f81b848360ff16601081106128d0576128cf613c67565b5b1a60f81b7effffffffffffffffffffffffffffffffffffffffffffffffffffffffffffff191614155b1561297057838260ff166010811061291457612913613c67565b5b1a60f81b818360ff168151811061292e5761292d613c67565b5b60200101907effffffffffffffffffffffffffffffffffffffffffffffffffffffffffffff1916908160001a905350818061296890613e23565b9250506128a7565b8092505050919050565b606060005b60208160ff161080156129d15750600060f81b838260ff16602081106129a8576129a7613c67565b5b1a60f81b7effffffffffffffffffffffffffffffffffffffffffffffffffffffffffffff191614155b156129e95780806129e190613e23565b91505061297f565b60008160ff1667ffffffffffffffff811115612a0857612a07612d3e565b5b6040519080825280601f01601f191660200182016040528015612a3a5781602001600182028036833780820191505090505b509050600091505b60208260ff16108015612a945750600060f81b848360ff1660208110612a6b57612a6a613c67565b5b1a60f81b7effffffffffffffffffffffffffffffffffffffffffffffffffffffffffffff191614155b15612b0b57838260ff1660208110612aaf57612aae613c67565b5b1a60f81b818360ff1681518110612ac957612ac8613c67565b5b60200101907effffffffffffffffffffffffffffffffffffffffffffffffffffffffffffff1916908160001a9053508180612b0390613e23565b925050612a42565b8092505050919050565b604051806101400160405280600073ffffffffffffffffffffffffffffffffffffffff168152602001600073ffffffffffffffffffffffffffffffffffffffff168152602001600081526020016000815260200160008152602001600061ffff16815260200160001515815260200160001515815260200160608152602001606081525090565b508054612ba890613cc5565b6000825580601f10612bba5750612bd9565b601f016020900490600052602060002090810190612bd89190612cf2565b5b50565b6040518061010001604052806060815260200160608152602001606081526020016060815260200160608152602001600073ffffffffffffffffffffffffffffffffffffffff1681526020016000151581526020016000151581525090565b6040518060a00160405280606081526020016060815260200160608152602001606081526020016000151581525090565b828054612c7890613cc5565b90600052602060002090601f016020900481019282612c9a5760008555612ce1565b82601f10612cb357805160ff1916838001178555612ce1565b82800160010185558215612ce1579182015b82811115612ce0578251825591602001919060010190612cc5565b5b509050612cee9190612cf2565b5090565b5b80821115612d0b576000816000905550600101612cf3565b5090565b6000604051905090565b600080fd5b600080fd5b600080fd5b600080fd5b6000601f19601f8301169050919050565b7f4e487b7100000000000000000000000000000000000000000000000000000000600052604160045260246000fd5b612d7682612d2d565b810181811067ffffffffffffffff82111715612d9557612d94612d3e565b5b80604052505050565b6000612da8612d0f565b9050612db48282612d6d565b919050565b600067ffffffffffffffff821115612dd457612dd3612d3e565b5b612ddd82612d2d565b9050602081019050919050565b82818337600083830152505050565b6000612e0c612e0784612db9565b612d9e565b905082815260208101848484011115612e2857612e27612d28565b5b612e33848285612dea565b509392505050565b600082601f830112612e5057612e4f612d23565b5b8135612e60848260208601612df9565b91505092915050565b60008060008060808587031215612e8357612e82612d19565b5b600085013567ffffffffffffffff811115612ea157612ea0612d1e565b5b612ead87828801612e3b565b945050602085013567ffffffffffffffff811115612ece57612ecd612d1e565b5b612eda87828801612e3b565b935050604085013567ffffffffffffffff811115612efb57612efa612d1e565b5b612f0787828801612e3b565b925050606085013567ffffffffffffffff811115612f2857612f27612d1e565b5b612f3487828801612e3b565b91505092959194509250565b600080600080600060a08688031215612f5c57612f5b612d19565b5b600086013567ffffffffffffffff811115612f7a57612f79612d1e565b5b612f8688828901612e3b565b955050602086013567ffffffffffffffff811115612fa757612fa6612d1e565b5b612fb388828901612e3b565b945050604086013567ffffffffffffffff811115612fd457612fd3612d1e565b5b612fe088828901612e3b565b935050606086013567ffffffffffffffff81111561300157613000612d1e565b5b61300d88828901612e3b565b925050608086013567ffffffffffffffff81111561302e5761302d612d1e565b5b61303a88828901612e3b565b9150509295509295909350565b600061ffff82169050919050565b61305e81613047565b811461306957600080fd5b50565b60008135905061307b81613055565b92915050565b60006020828403121561309757613096612d19565b5b60006130a58482850161306c565b91505092915050565b600073ffffffffffffffffffffffffffffffffffffffff82169050919050565b60006130d9826130ae565b9050919050565b6130e9816130ce565b81146130f457600080fd5b50565b600081359050613106816130e0565b92915050565b60006020828403121561312257613121612d19565b5b6000613130848285016130f7565b91505092915050565b613142816130ce565b82525050565b6000819050919050565b61315b81613148565b82525050565b61316a81613047565b82525050565b60008115159050919050565b61318581613170565b82525050565b600081519050919050565b600082825260208201905092915050565b60005b838110156131c55780820151818401526020810190506131aa565b838111156131d4576000848401525b50505050565b60006131e58261318b565b6131ef8185613196565b93506131ff8185602086016131a7565b61320881612d2d565b840191505092915050565b60006101408301600083015161322c6000860182613139565b50602083015161323f6020860182613139565b5060408301516132526040860182613152565b5060608301516132656060860182613152565b5060808301516132786080860182613152565b5060a083015161328b60a0860182613161565b5060c083015161329e60c086018261317c565b5060e08301516132b160e086018261317c565b506101008301518482036101008601526132cb82826131da565b9150506101208301518482036101208601526132e782826131da565b9150508091505092915050565b6000602082019050818103600083015261330e8184613213565b905092915050565b600061010083016000830151848203600086015261333482826131da565b9150506020830151848203602086015261334e82826131da565b9150506040830151848203604086015261336882826131da565b9150506060830151848203606086015261338282826131da565b9150506080830151848203608086015261339c82826131da565b91505060a08301516133b160a0860182613139565b5060c08301516133c460c086018261317c565b5060e08301516133d760e086018261317c565b508091505092915050565b600060208201905081810360008301526133fc8184613316565b905092915050565b60007fffffffffffffffffffffffffffffffff0000000000000000000000000000000082169050919050565b61343981613404565b82525050565b6000819050919050565b6134528161343f565b82525050565b613461816130ce565b82525050565b61347081613170565b82525050565b60006101008201905061348c600083018b613430565b613499602083018a613430565b6134a66040830189613449565b6134b36060830188613449565b6134c06080830187613449565b6134cd60a0830186613458565b6134da60c0830185613467565b6134e760e0830184613467565b9998505050505050505050565b6134fd81613148565b811461350857600080fd5b50565b60008135905061351a816134f4565b92915050565b6000806040838503121561353757613536612d19565b5b6000613545858286016130f7565b92505060206135568582860161350b565b9150509250929050565b61356981613148565b82525050565b61357881613047565b82525050565b600082825260208201905092915050565b600061359a8261318b565b6135a4818561357e565b93506135b48185602086016131a7565b6135bd81612d2d565b840191505092915050565b6000610140820190506135de600083018d613458565b6135eb602083018c613458565b6135f8604083018b613560565b613605606083018a613560565b6136126080830189613560565b61361f60a083018861356f565b61362c60c0830187613467565b61363960e0830186613467565b81810361010083015261364c818561358f565b9050818103610120830152613661818461358f565b90509b9a5050505050505050505050565b600080fd5b61368081613404565b811461368b57600080fd5b50565b60008135905061369d81613677565b92915050565b6136ac8161343f565b81146136b757600080fd5b50565b6000813590506136c9816136a3565b92915050565b6136d881613170565b81146136e357600080fd5b50565b6000813590506136f5816136cf565b92915050565b600060a0828403121561371157613710613672565b5b61371b60a0612d9e565b9050600061372b8482850161368e565b600083015250602061373f848285016136ba565b6020830152506040613753848285016136ba565b6040830152506060613767848285016136ba565b606083015250608061377b848285016136e6565b60808301525092915050565b600060a0828403121561379d5761379c612d19565b5b60006137ab848285016136fb565b91505092915050565b600060a08301600083015184820360008601526137d182826131da565b915050602083015184820360208601526137eb82826131da565b9150506040830151848203604086015261380582826131da565b9150506060830151848203606086015261381f82826131da565b9150506080830151613834608086018261317c565b508091505092915050565b6000602082019050818103600083015261385981846137b4565b905092915050565b6000610100828403121561387857613877613672565b5b613883610100612d9e565b905060006138938482850161368e565b60008301525060206138a78482850161368e565b60208301525060406138bb848285016136ba565b60408301525060606138cf848285016136ba565b60608301525060806138e3848285016136ba565b60808301525060a06138f7848285016130f7565b60a08301525060c061390b848285016136e6565b60c08301525060e061391f848285016136e6565b60e08301525092915050565b6000610100828403121561394257613941612d19565b5b600061395084828501613861565b91505092915050565b600060208201905061396e6000830184613458565b92915050565b600081519050919050565b600082825260208201905092915050565b6000819050602082019050919050565b6000610140830160008301516139b96000860182613139565b5060208301516139cc6020860182613139565b5060408301516139df6040860182613152565b5060608301516139f26060860182613152565b506080830151613a056080860182613152565b5060a0830151613a1860a0860182613161565b5060c0830151613a2b60c086018261317c565b5060e0830151613a3e60e086018261317c565b50610100830151848203610100860152613a5882826131da565b915050610120830151848203610120860152613a7482826131da565b9150508091505092915050565b6000613a8d83836139a0565b905092915050565b6000602082019050919050565b6000613aad82613974565b613ab7818561397f565b935083602082028501613ac985613990565b8060005b85811015613b055784840389528151613ae68582613a81565b9450613af183613a95565b925060208a01995050600181019050613acd565b50829750879550505050505092915050565b60006020820190508181036000830152613b318184613aa2565b905092915050565b600060a082019050613b4e6000830188613430565b613b5b6020830187613449565b613b686040830186613449565b613b756060830185613449565b613b826080830184613467565b9695505050505050565b60008060408385031215613ba357613ba2612d19565b5b600083013567ffffffffffffffff811115613bc157613bc0612d1e565b5b613bcd85828601612e3b565b925050602083013567ffffffffffffffff811115613bee57613bed612d1e565b5b613bfa85828601612e3b565b9150509250929050565b7f4e487b7100000000000000000000000000000000000000000000000000000000600052601160045260246000fd5b6000613c3e82613148565b9150613c4983613148565b925082821015613c5c57613c5b613c04565b5b828203905092915050565b7f4e487b7100000000000000000000000000000000000000000000000000000000600052603260045260246000fd5b7f4e487b7100000000000000000000000000000000000000000000000000000000600052602260045260246000fd5b60006002820490506001821680613cdd57607f821691505b602082108103613cf057613cef613c96565b5b50919050565b600081519050919050565b6000819050602082019050919050565b6000613d1d8251613404565b80915050919050565b600082821b905092915050565b6000613d3e82613cf6565b82613d4884613d01565b9050613d5381613d11565b92506010821015613d9357613d8e7fffffffffffffffffffffffffffffffff0000000000000000000000000000000083601003600802613d26565b831692505b5050919050565b6000613da6825161343f565b80915050919050565b6000613dba82613cf6565b82613dc484613d01565b9050613dcf81613d9a565b92506020821015613e0f57613e0a7fffffffffffffffffffffffffffffffffffffffffffffffffffffffffffffffff83602003600802613d26565b831692505b5050919050565b600060ff82169050919050565b6000613e2e82613e16565b915060ff8203613e4157613e40613c04565b5b60018201905091905056fea2646970667358221220af75b15c1d05b68f87a7930927e58d171f4424cd23c23fa9184ff22dc795db4964736f6c634300080e0033",
  "immutableReferences": {},
  "source": "// SPDX-License-Identifier: GPL-3.0\r\npragma solidity >=0.7.0 <0.9.0;\r\n\r\ncontract TaxiTxRx {\r\n    struct Reservation{\r\n        address target; //  \r\n        address driver; //  \r\n        uint occur; //   (timestamp)\r\n        uint start; //  \r\n        uint end; //  \r\n        uint16 paid; // \r\n        bool pay_completed; // \r\n        bool cancelled; // \r\n        string start_point; // \r\n        string dest_point;  // \r\n    }\r\n\r\n\r\n    struct User{\r\n        bytes16 phone_number; // \r\n        bytes32 name; // \r\n        bytes32 nickname; // \r\n        bytes32 email; // \r\n        bool created; // \r\n    }\r\n\r\n    struct Driver{\r\n        bytes16 phone_number; // \r\n        bytes16 car_number; // \r\n        bytes32 name; // \r\n        bytes32 nickname; // \r\n        bytes32 email; // \r\n        address target; //   \r\n        bool created; // \r\n        bool driving; // \r\n    }\r\n\r\n    struct StringUser{\r\n        string phone_number;\r\n        string name;\r\n        string nickname;\r\n        string email;\r\n        bool created;\r\n    }\r\n\r\n    struct StringDriver{\r\n        string phone_number; // \r\n        string car_number; // \r\n        string name; // \r\n        string nickname; // \r\n        string email; // \r\n        address target; //   \r\n        bool created; // \r\n        bool driving; // \r\n    }\r\n\r\n\r\n    event addReservEvent();\r\n    event acceptReservEvent(address indexed addr);\r\n    event checkInTaxiEvent(address indexed addr);\r\n    event checkOutTaxiEvent(address indexed addr);\r\n    event cancelLastReservEvent(address indexed addr);\r\n    event payCompleteEvent(address indexed addr);\r\n\r\n    address public owner; //  \r\n\r\n    mapping (address => User) public users; //  \r\n    mapping (address => Driver) public drivers; //  \r\n    mapping (address => Reservation[]) public user_reservs; //  \r\n\r\n    constructor(){\r\n        owner = msg.sender;\r\n    }\r\n\r\n\r\n    //   .\r\n    function getStringUser(address caller) public view returns (StringUser memory){\r\n        require(users[caller].created == true);\r\n        return ToStringUser(users[caller]);\r\n    }\r\n\r\n    //    .    . ( )\r\n    function getLastReservation(address caller) public view returns (Reservation memory){\r\n        require(users[caller].created == true);\r\n        uint size = user_reservs[caller].length;\r\n        return user_reservs[caller][size-1];\r\n    }\r\n\r\n    //    . ( )\r\n    function _getLastReservation(address caller) internal view returns (Reservation storage){\r\n        require(users[caller].created == true);\r\n        uint size = user_reservs[caller].length;\r\n        return user_reservs[caller][size-1];\r\n    }\r\n\r\n    //   . [  ]\r\n    function getReservationList(address caller) public view returns (Reservation[] memory) {\r\n        require(users[caller].created == true);\r\n        return user_reservs[caller];\r\n    }\r\n\r\n\r\n    //  . [  ]\r\n    function addUser(string memory phone_number, string memory name, string memory nickname, string memory email) public {\r\n        require(users[msg.sender].created == false);\r\n        users[msg.sender] = User(ToBytes16(phone_number), ToBytes32(name),ToBytes32(nickname), ToBytes32(email), true);\r\n        \r\n    }\r\n\r\n    //   [  ]\r\n    function addReserv(string memory sp, string memory dp) public {\r\n        require(users[msg.sender].created == true && getLastReservation(msg.sender).occur == 0);\r\n        user_reservs[msg.sender].push(Reservation(msg.sender, msg.sender, block.timestamp, 0, 0, 0, false, false, sp, dp));\r\n        emit addReservEvent();\r\n    }\r\n\r\n    //   [  ]\r\n    function cancelLastReserv() public {\r\n        require(users[msg.sender].created == true && getLastReservation(msg.sender).start == 0);\r\n        Reservation storage last = _getLastReservation(msg.sender);\r\n        if (last.driver == msg.sender){\r\n            uint size = user_reservs[last.target].length;\r\n            delete user_reservs[last.target][size-1];\r\n        }else{\r\n            last.cancelled = true;\r\n            last.paid = 1000; // .\r\n            emit cancelLastReservEvent(last.target);\r\n        }\r\n    }\r\n\r\n    //   [  ]\r\n    function setPayCompleteLastReserv() public{\r\n        require(users[msg.sender].created == true && getLastReservation(msg.sender).end != 0);\r\n        Reservation storage last = _getLastReservation(msg.sender);\r\n        last.pay_completed = true;\r\n        Driver storage driver = drivers[last.driver];\r\n        driver.driving = false;\r\n        emit payCompleteEvent(last.target);\r\n    }\r\n\r\n    //    [  ]\r\n    function getStringDriver(address caller) public view returns(StringDriver memory){\r\n        require(drivers[caller].created == true);\r\n        return ToStringDriver(drivers[caller]);\r\n    }\r\n    //   [  ]\r\n    function addDriver(string memory phone_number, string memory car_number, string memory name, string memory nickname, string memory email) public {\r\n        require(drivers[msg.sender].created == false);\r\n        drivers[msg.sender] = Driver(ToBytes16(phone_number), ToBytes16(car_number), ToBytes32(name), ToBytes32(nickname), ToBytes32(email),\r\n        msg.sender, true, false);\r\n        \r\n    }\r\n    //   [  ]\r\n    function acceptReserv(address target) public {\r\n        require(drivers[msg.sender].created == true && drivers[msg.sender].driving == false);\r\n        require(users[target].created == true && getLastReservation(msg.sender).start == 0);\r\n        Driver storage driver = drivers[msg.sender];\r\n        driver.target = target;\r\n        driver.driving = true;\r\n\r\n        Reservation storage last = _getLastReservation(target);\r\n        last.driver = msg.sender;\r\n\r\n        emit acceptReservEvent(last.target);\r\n    }\r\n    //   [  ]\r\n    function checkInTaxi() public {\r\n        require(drivers[msg.sender].created == true && drivers[msg.sender].driving);\r\n        Driver memory driver = drivers[msg.sender];\r\n        address caller = driver.target;\r\n\r\n        require(users[caller].created == true && getLastReservation(caller).cancelled == false && getLastReservation(caller).start == 0);\r\n        _getLastReservation(caller).start = block.timestamp;\r\n        emit checkInTaxiEvent(getLastReservation(caller).target);\r\n    }\r\n\r\n    //      [  ]\r\n    function checkOutTaxi(uint16 paid) public {\r\n        require(drivers[msg.sender].created == true && drivers[msg.sender].driving);\r\n        Driver memory driver = drivers[msg.sender];\r\n        address caller = driver.target;\r\n\r\n        require(users[caller].created == true && user_reservs[caller].length > 0);\r\n        Reservation storage last = _getLastReservation(caller);\r\n        last.end = block.timestamp; // \r\n        last.paid = paid;\r\n        emit checkOutTaxiEvent(last.target);\r\n    }\r\n    \r\n\r\n    function ToBytes32(string memory x) internal pure returns (bytes32){\r\n        return bytes32(bytes(x));\r\n    }\r\n\r\n    function ToBytes16(string memory x) internal pure returns (bytes16){\r\n        return bytes16(bytes(x));\r\n    } \r\n\r\n    function bytes16ToString(bytes16 _bytes16) internal pure returns (string memory) {\r\n        uint8 i = 0;\r\n        while(i < 16 && _bytes16[i] != 0) {\r\n            i++;\r\n        }\r\n        bytes memory bytesArray = new bytes(i);\r\n        for (i = 0; i < 16 && _bytes16[i] != 0; i++) {\r\n            bytesArray[i] = _bytes16[i];\r\n        }\r\n        return string(bytesArray);\r\n    }\r\n\r\n    function bytes32ToString(bytes32 _bytes32) internal pure returns (string memory) {\r\n        uint8 i = 0;\r\n        while(i < 32 && _bytes32[i] != 0) {\r\n            i++;\r\n        }\r\n        bytes memory bytesArray = new bytes(i);\r\n        for (i = 0; i < 32 && _bytes32[i] != 0; i++) {\r\n            bytesArray[i] = _bytes32[i];\r\n        }\r\n        return string(bytesArray);\r\n    }\r\n\r\n    function ToStringUser(User memory x) public pure returns (StringUser memory){\r\n        StringUser memory s_user;\r\n        s_user.phone_number = bytes16ToString(x.phone_number);\r\n        s_user.name = bytes32ToString(x.name);\r\n        s_user.nickname = bytes32ToString(x.nickname);\r\n        s_user.email = bytes32ToString(x.email);\r\n        s_user.created = x.created;\r\n        return s_user;\r\n    }\r\n\r\n    function ToStringDriver(Driver memory x) public pure returns (StringDriver memory){\r\n        StringDriver memory s_driver;\r\n        s_driver.phone_number = bytes16ToString(x.phone_number);\r\n        s_driver.car_number = bytes16ToString(x.car_number);\r\n        s_driver.name = bytes32ToString(x.name);\r\n        s_driver.nickname = bytes32ToString(x.nickname);\r\n        s_driver.email = bytes32ToString(x.email);\r\n        s_driver.target = x.target;\r\n        s_driver.driving = x.driving;\r\n        s_driver.created = x.created;\r\n        return s_driver;\r\n    }\r\n}",
  "sourcePath": "C:\\Users\\KangHyunWoo\\Documents\\VSCODE\\taxi_mmd2022\\contracts\\TaxiTxRx.sol",
  "compiler": {
    "name": "solc",
    "version": "0.8.14+commit.80d49f37.Emscripten.clang"
  },
  "schemaVersion": "3.4.7",
  "updatedAt": "2022-06-05T13:40:29.662Z",
  "networkType": "ethereum",
  "devdoc": {
    "kind": "dev",
    "methods": {},
    "version": 1
  },
  "userdoc": {
    "kind": "user",
    "methods": {},
    "version": 1
  }
}