{
  "contractName": "TaxiTxRx",
  "abi": [
    {
      "inputs": [],
      "stateMutability": "nonpayable",
      "type": "constructor"
    },
    {
      "anonymous": false,
      "inputs": [
        {
          "indexed": true,
          "internalType": "address",
          "name": "addr",
          "type": "address"
        }
      ],
      "name": "acceptReservEvent",
      "type": "event"
    },
    {
      "anonymous": false,
      "inputs": [],
      "name": "addReservEvent",
      "type": "event"
    },
    {
      "anonymous": false,
      "inputs": [
        {
          "indexed": true,
          "internalType": "address",
          "name": "addr",
          "type": "address"
        }
      ],
      "name": "cancelLastReservEvent",
      "type": "event"
    },
    {
      "anonymous": false,
      "inputs": [
        {
          "indexed": true,
          "internalType": "address",
          "name": "addr",
          "type": "address"
        }
      ],
      "name": "checkInTaxiEvent",
      "type": "event"
    },
    {
      "anonymous": false,
      "inputs": [
        {
          "indexed": true,
          "internalType": "address",
          "name": "addr",
          "type": "address"
        }
      ],
      "name": "checkOutTaxiEvent",
      "type": "event"
    },
    {
      "anonymous": false,
      "inputs": [
        {
          "indexed": true,
          "internalType": "address",
          "name": "addr",
          "type": "address"
        }
      ],
      "name": "payCompleteEvent",
      "type": "event"
    },
    {
      "inputs": [
        {
          "internalType": "address",
          "name": "",
          "type": "address"
        }
      ],
      "name": "drivers",
      "outputs": [
        {
          "internalType": "bytes16",
          "name": "phone_number",
          "type": "bytes16"
        },
        {
          "internalType": "bytes16",
          "name": "car_number",
          "type": "bytes16"
        },
        {
          "internalType": "bytes32",
          "name": "name",
          "type": "bytes32"
        },
        {
          "internalType": "bytes32",
          "name": "nickname",
          "type": "bytes32"
        },
        {
          "internalType": "bytes32",
          "name": "email",
          "type": "bytes32"
        },
        {
          "internalType": "address",
          "name": "target",
          "type": "address"
        },
        {
          "internalType": "bool",
          "name": "created",
          "type": "bool"
        },
        {
          "internalType": "bool",
          "name": "driving",
          "type": "bool"
        }
      ],
      "stateMutability": "view",
      "type": "function",
      "constant": true
    },
    {
      "inputs": [],
      "name": "owner",
      "outputs": [
        {
          "internalType": "address",
          "name": "",
          "type": "address"
        }
      ],
      "stateMutability": "view",
      "type": "function",
      "constant": true
    },
    {
      "inputs": [
        {
          "internalType": "uint256",
          "name": "",
          "type": "uint256"
        }
      ],
      "name": "recent_addReserv_addrs",
      "outputs": [
        {
          "internalType": "address",
          "name": "",
          "type": "address"
        }
      ],
      "stateMutability": "view",
      "type": "function",
      "constant": true
    },
    {
      "inputs": [
        {
          "internalType": "address",
          "name": "",
          "type": "address"
        },
        {
          "internalType": "uint256",
          "name": "",
          "type": "uint256"
        }
      ],
      "name": "user_reservs",
      "outputs": [
        {
          "internalType": "address",
          "name": "target",
          "type": "address"
        },
        {
          "internalType": "address",
          "name": "driver",
          "type": "address"
        },
        {
          "internalType": "uint256",
          "name": "occur",
          "type": "uint256"
        },
        {
          "internalType": "uint256",
          "name": "start",
          "type": "uint256"
        },
        {
          "internalType": "uint256",
          "name": "end",
          "type": "uint256"
        },
        {
          "internalType": "uint16",
          "name": "paid",
          "type": "uint16"
        },
        {
          "internalType": "bool",
          "name": "pay_completed",
          "type": "bool"
        },
        {
          "internalType": "bool",
          "name": "cancelled",
          "type": "bool"
        },
        {
          "internalType": "string",
          "name": "start_point",
          "type": "string"
        },
        {
          "internalType": "string",
          "name": "dest_point",
          "type": "string"
        }
      ],
      "stateMutability": "view",
      "type": "function",
      "constant": true
    },
    {
      "inputs": [
        {
          "internalType": "address",
          "name": "",
          "type": "address"
        }
      ],
      "name": "users",
      "outputs": [
        {
          "internalType": "bytes16",
          "name": "phone_number",
          "type": "bytes16"
        },
        {
          "internalType": "bytes32",
          "name": "name",
          "type": "bytes32"
        },
        {
          "internalType": "bytes32",
          "name": "nickname",
          "type": "bytes32"
        },
        {
          "internalType": "bytes32",
          "name": "email",
          "type": "bytes32"
        },
        {
          "internalType": "bool",
          "name": "created",
          "type": "bool"
        }
      ],
      "stateMutability": "view",
      "type": "function",
      "constant": true
    },
    {
      "inputs": [
        {
          "internalType": "address",
          "name": "caller",
          "type": "address"
        }
      ],
      "name": "getStringUser",
      "outputs": [
        {
          "components": [
            {
              "internalType": "string",
              "name": "phone_number",
              "type": "string"
            },
            {
              "internalType": "string",
              "name": "name",
              "type": "string"
            },
            {
              "internalType": "string",
              "name": "nickname",
              "type": "string"
            },
            {
              "internalType": "string",
              "name": "email",
              "type": "string"
            },
            {
              "internalType": "bool",
              "name": "created",
              "type": "bool"
            }
          ],
          "internalType": "struct TaxiTxRx.StringUser",
          "name": "",
          "type": "tuple"
        }
      ],
      "stateMutability": "view",
      "type": "function",
      "constant": true
    },
    {
      "inputs": [
        {
          "internalType": "address",
          "name": "caller",
          "type": "address"
        }
      ],
      "name": "getLastReservation",
      "outputs": [
        {
          "components": [
            {
              "internalType": "address",
              "name": "target",
              "type": "address"
            },
            {
              "internalType": "address",
              "name": "driver",
              "type": "address"
            },
            {
              "internalType": "uint256",
              "name": "occur",
              "type": "uint256"
            },
            {
              "internalType": "uint256",
              "name": "start",
              "type": "uint256"
            },
            {
              "internalType": "uint256",
              "name": "end",
              "type": "uint256"
            },
            {
              "internalType": "uint16",
              "name": "paid",
              "type": "uint16"
            },
            {
              "internalType": "bool",
              "name": "pay_completed",
              "type": "bool"
            },
            {
              "internalType": "bool",
              "name": "cancelled",
              "type": "bool"
            },
            {
              "internalType": "string",
              "name": "start_point",
              "type": "string"
            },
            {
              "internalType": "string",
              "name": "dest_point",
              "type": "string"
            }
          ],
          "internalType": "struct TaxiTxRx.Reservation",
          "name": "",
          "type": "tuple"
        }
      ],
      "stateMutability": "view",
      "type": "function",
      "constant": true
    },
    {
      "inputs": [
        {
          "internalType": "address",
          "name": "caller",
          "type": "address"
        }
      ],
      "name": "getReservationList",
      "outputs": [
        {
          "components": [
            {
              "internalType": "address",
              "name": "target",
              "type": "address"
            },
            {
              "internalType": "address",
              "name": "driver",
              "type": "address"
            },
            {
              "internalType": "uint256",
              "name": "occur",
              "type": "uint256"
            },
            {
              "internalType": "uint256",
              "name": "start",
              "type": "uint256"
            },
            {
              "internalType": "uint256",
              "name": "end",
              "type": "uint256"
            },
            {
              "internalType": "uint16",
              "name": "paid",
              "type": "uint16"
            },
            {
              "internalType": "bool",
              "name": "pay_completed",
              "type": "bool"
            },
            {
              "internalType": "bool",
              "name": "cancelled",
              "type": "bool"
            },
            {
              "internalType": "string",
              "name": "start_point",
              "type": "string"
            },
            {
              "internalType": "string",
              "name": "dest_point",
              "type": "string"
            }
          ],
          "internalType": "struct TaxiTxRx.Reservation[]",
          "name": "",
          "type": "tuple[]"
        }
      ],
      "stateMutability": "view",
      "type": "function",
      "constant": true
    },
    {
      "inputs": [
        {
          "internalType": "string",
          "name": "phone_number",
          "type": "string"
        },
        {
          "internalType": "string",
          "name": "name",
          "type": "string"
        },
        {
          "internalType": "string",
          "name": "nickname",
          "type": "string"
        },
        {
          "internalType": "string",
          "name": "email",
          "type": "string"
        }
      ],
      "name": "addUser",
      "outputs": [],
      "stateMutability": "nonpayable",
      "type": "function"
    },
    {
      "inputs": [
        {
          "internalType": "string",
          "name": "sp",
          "type": "string"
        },
        {
          "internalType": "string",
          "name": "dp",
          "type": "string"
        }
      ],
      "name": "addReserv",
      "outputs": [],
      "stateMutability": "nonpayable",
      "type": "function"
    },
    {
      "inputs": [],
      "name": "cancelLastReserv",
      "outputs": [],
      "stateMutability": "nonpayable",
      "type": "function"
    },
    {
      "inputs": [],
      "name": "setPayCompleteLastReserv",
      "outputs": [],
      "stateMutability": "nonpayable",
      "type": "function"
    },
    {
      "inputs": [
        {
          "internalType": "address",
          "name": "caller",
          "type": "address"
        }
      ],
      "name": "getStringDriver",
      "outputs": [
        {
          "components": [
            {
              "internalType": "string",
              "name": "phone_number",
              "type": "string"
            },
            {
              "internalType": "string",
              "name": "car_number",
              "type": "string"
            },
            {
              "internalType": "string",
              "name": "name",
              "type": "string"
            },
            {
              "internalType": "string",
              "name": "nickname",
              "type": "string"
            },
            {
              "internalType": "string",
              "name": "email",
              "type": "string"
            },
            {
              "internalType": "address",
              "name": "target",
              "type": "address"
            },
            {
              "internalType": "bool",
              "name": "created",
              "type": "bool"
            },
            {
              "internalType": "bool",
              "name": "driving",
              "type": "bool"
            }
          ],
          "internalType": "struct TaxiTxRx.StringDriver",
          "name": "",
          "type": "tuple"
        }
      ],
      "stateMutability": "view",
      "type": "function",
      "constant": true
    },
    {
      "inputs": [
        {
          "internalType": "string",
          "name": "phone_number",
          "type": "string"
        },
        {
          "internalType": "string",
          "name": "car_number",
          "type": "string"
        },
        {
          "internalType": "string",
          "name": "name",
          "type": "string"
        },
        {
          "internalType": "string",
          "name": "nickname",
          "type": "string"
        },
        {
          "internalType": "string",
          "name": "email",
          "type": "string"
        }
      ],
      "name": "addDriver",
      "outputs": [],
      "stateMutability": "nonpayable",
      "type": "function"
    },
    {
      "inputs": [
        {
          "internalType": "address",
          "name": "target",
          "type": "address"
        }
      ],
      "name": "acceptReserv",
      "outputs": [],
      "stateMutability": "nonpayable",
      "type": "function"
    },
    {
      "inputs": [],
      "name": "checkInTaxi",
      "outputs": [],
      "stateMutability": "nonpayable",
      "type": "function"
    },
    {
      "inputs": [
        {
          "internalType": "uint16",
          "name": "paid",
          "type": "uint16"
        }
      ],
      "name": "checkOutTaxi",
      "outputs": [],
      "stateMutability": "nonpayable",
      "type": "function"
    },
    {
      "inputs": [
        {
          "internalType": "uint256",
          "name": "length",
          "type": "uint256"
        },
        {
          "internalType": "uint256",
          "name": "cursor",
          "type": "uint256"
        }
      ],
      "name": "fetchReserv",
      "outputs": [
        {
          "components": [
            {
              "internalType": "address",
              "name": "target",
              "type": "address"
            },
            {
              "internalType": "address",
              "name": "driver",
              "type": "address"
            },
            {
              "internalType": "uint256",
              "name": "occur",
              "type": "uint256"
            },
            {
              "internalType": "uint256",
              "name": "start",
              "type": "uint256"
            },
            {
              "internalType": "uint256",
              "name": "end",
              "type": "uint256"
            },
            {
              "internalType": "uint16",
              "name": "paid",
              "type": "uint16"
            },
            {
              "internalType": "bool",
              "name": "pay_completed",
              "type": "bool"
            },
            {
              "internalType": "bool",
              "name": "cancelled",
              "type": "bool"
            },
            {
              "internalType": "string",
              "name": "start_point",
              "type": "string"
            },
            {
              "internalType": "string",
              "name": "dest_point",
              "type": "string"
            }
          ],
          "internalType": "struct TaxiTxRx.Reservation[]",
          "name": "",
          "type": "tuple[]"
        },
        {
          "internalType": "uint256",
          "name": "",
          "type": "uint256"
        }
      ],
      "stateMutability": "view",
      "type": "function",
      "constant": true
    },
    {
      "inputs": [
        {
          "components": [
            {
              "internalType": "bytes16",
              "name": "phone_number",
              "type": "bytes16"
            },
            {
              "internalType": "bytes32",
              "name": "name",
              "type": "bytes32"
            },
            {
              "internalType": "bytes32",
              "name": "nickname",
              "type": "bytes32"
            },
            {
              "internalType": "bytes32",
              "name": "email",
              "type": "bytes32"
            },
            {
              "internalType": "bool",
              "name": "created",
              "type": "bool"
            }
          ],
          "internalType": "struct TaxiTxRx.User",
          "name": "x",
          "type": "tuple"
        }
      ],
      "name": "ToStringUser",
      "outputs": [
        {
          "components": [
            {
              "internalType": "string",
              "name": "phone_number",
              "type": "string"
            },
            {
              "internalType": "string",
              "name": "name",
              "type": "string"
            },
            {
              "internalType": "string",
              "name": "nickname",
              "type": "string"
            },
            {
              "internalType": "string",
              "name": "email",
              "type": "string"
            },
            {
              "internalType": "bool",
              "name": "created",
              "type": "bool"
            }
          ],
          "internalType": "struct TaxiTxRx.StringUser",
          "name": "",
          "type": "tuple"
        }
      ],
      "stateMutability": "pure",
      "type": "function",
      "constant": true
    },
    {
      "inputs": [
        {
          "components": [
            {
              "internalType": "bytes16",
              "name": "phone_number",
              "type": "bytes16"
            },
            {
              "internalType": "bytes16",
              "name": "car_number",
              "type": "bytes16"
            },
            {
              "internalType": "bytes32",
              "name": "name",
              "type": "bytes32"
            },
            {
              "internalType": "bytes32",
              "name": "nickname",
              "type": "bytes32"
            },
            {
              "internalType": "bytes32",
              "name": "email",
              "type": "bytes32"
            },
            {
              "internalType": "address",
              "name": "target",
              "type": "address"
            },
            {
              "internalType": "bool",
              "name": "created",
              "type": "bool"
            },
            {
              "internalType": "bool",
              "name": "driving",
              "type": "bool"
            }
          ],
          "internalType": "struct TaxiTxRx.Driver",
          "name": "x",
          "type": "tuple"
        }
      ],
      "name": "ToStringDriver",
      "outputs": [
        {
          "components": [
            {
              "internalType": "string",
              "name": "phone_number",
              "type": "string"
            },
            {
              "internalType": "string",
              "name": "car_number",
              "type": "string"
            },
            {
              "internalType": "string",
              "name": "name",
              "type": "string"
            },
            {
              "internalType": "string",
              "name": "nickname",
              "type": "string"
            },
            {
              "internalType": "string",
              "name": "email",
              "type": "string"
            },
            {
              "internalType": "address",
              "name": "target",
              "type": "address"
            },
            {
              "internalType": "bool",
              "name": "created",
              "type": "bool"
            },
            {
              "internalType": "bool",
              "name": "driving",
              "type": "bool"
            }
          ],
          "internalType": "struct TaxiTxRx.StringDriver",
          "name": "",
          "type": "tuple"
        }
      ],
      "stateMutability": "pure",
      "type": "function",
      "constant": true
    }
  ],
  "bytecode": "0x608060405234801561001057600080fd5b50336000806101000a81548173ffffffffffffffffffffffffffffffffffffffff021916908373ffffffffffffffffffffffffffffffffffffffff1602179055506143bb806100606000396000f3fe608060405234801561001057600080fd5b506004361061012c5760003560e01c806388372f86116100ad578063ab4a9d5411610071578063ab4a9d541461038d578063b23a62f9146103a9578063b9e5312a146103b3578063d2816419146103e3578063e2e1d18b146104145761012c565b806388372f86146102bf5780638da5cb5b146102ef5780639e23195c1461030d578063a79a367114610329578063a87430ba146103595761012c565b806343860167116100f457806343860167146101bf5780634aa60186146101ef578063774ab8bc14610226578063823c63f214610256578063863eb5c91461028f5761012c565b806301cda3ac1461013157806303c0b57e1461014d5780631522d75b146101695780632a1e0b78146101855780633410671d146101b5575b600080fd5b61014b6004803603810190610146919061323e565b61041e565b005b61016760048036038101906101629190613315565b610591565b005b610183600480360381019061017e9190613456565b6107e3565b005b61019f600480360381019061019a91906134e1565b610b67565b6040516101ac91906136c9565b60405180910390f35b6101bd610ed9565b005b6101d960048036038101906101d491906134e1565b611272565b6040516101e691906137b7565b60405180910390f35b610209600480360381019061020491906134e1565b611458565b60405161021d98979695949392919061384b565b60405180910390f35b610240600480360381019061023b91906138f5565b6114f4565b60405161024d9190613922565b60405180910390f35b610270600480360381019061026b919061393d565b611533565b6040516102869a999897969594939291906139e5565b60405180910390f35b6102a960048036038101906102a49190613ba4565b61171c565b6040516102b69190613c5c565b60405180910390f35b6102d960048036038101906102d49190613d48565b61179d565b6040516102e691906137b7565b60405180910390f35b6102f7611883565b6040516103049190613922565b60405180910390f35b610327600480360381019061032291906134e1565b6118a7565b005b610343600480360381019061033e91906134e1565b611b3d565b6040516103509190613f19565b60405180910390f35b610373600480360381019061036e91906134e1565b611e80565b604051610384959493929190613f3b565b60405180910390f35b6103a760048036038101906103a29190613f8e565b611ed0565b005b6103b16122ab565b005b6103cd60048036038101906103c891906134e1565b6125d7565b6040516103da9190613c5c565b60405180910390f35b6103fd60048036038101906103f89190614006565b61270e565b60405161040b929190614046565b60405180910390f35b61041c612892565b005b60001515600160003373ffffffffffffffffffffffffffffffffffffffff1673ffffffffffffffffffffffffffffffffffffffff16815260200190815260200160002060040160009054906101000a900460ff1615151461047e57600080fd5b6040518060a0016040528061049286612a72565b6fffffffffffffffffffffffffffffffff191681526020016104b385612a85565b81526020016104c184612a85565b81526020016104cf83612a85565b815260200160011515815250600160003373ffffffffffffffffffffffffffffffffffffffff1673ffffffffffffffffffffffffffffffffffffffff16815260200190815260200160002060008201518160000160006101000a8154816fffffffffffffffffffffffffffffffff021916908360801c021790555060208201518160010155604082015181600201556060820151816003015560808201518160040160006101000a81548160ff02191690831515021790555090505050505050565b60001515600260003373ffffffffffffffffffffffffffffffffffffffff1673ffffffffffffffffffffffffffffffffffffffff16815260200190815260200160002060040160149054906101000a900460ff161515146105f157600080fd5b60405180610100016040528061060687612a72565b6fffffffffffffffffffffffffffffffff1916815260200161062786612a72565b6fffffffffffffffffffffffffffffffff1916815260200161064885612a85565b815260200161065684612a85565b815260200161066483612a85565b81526020013373ffffffffffffffffffffffffffffffffffffffff16815260200160011515815260200160001515815250600260003373ffffffffffffffffffffffffffffffffffffffff1673ffffffffffffffffffffffffffffffffffffffff16815260200190815260200160002060008201518160000160006101000a8154816fffffffffffffffffffffffffffffffff021916908360801c021790555060208201518160000160106101000a8154816fffffffffffffffffffffffffffffffff021916908360801c021790555060408201518160010155606082015181600201556080820151816003015560a08201518160040160006101000a81548173ffffffffffffffffffffffffffffffffffffffff021916908373ffffffffffffffffffffffffffffffffffffffff16021790555060c08201518160040160146101000a81548160ff02191690831515021790555060e08201518160040160156101000a81548160ff0219169083151502179055509050505050505050565b60011515600260003373ffffffffffffffffffffffffffffffffffffffff1673ffffffffffffffffffffffffffffffffffffffff16815260200190815260200160002060040160149054906101000a900460ff1615151480156108925750600260003373ffffffffffffffffffffffffffffffffffffffff1673ffffffffffffffffffffffffffffffffffffffff16815260200190815260200160002060040160159054906101000a900460ff165b61089b57600080fd5b6000600260003373ffffffffffffffffffffffffffffffffffffffff1673ffffffffffffffffffffffffffffffffffffffff168152602001908152602001600020604051806101000160405290816000820160009054906101000a900460801b6fffffffffffffffffffffffffffffffff19166fffffffffffffffffffffffffffffffff191681526020016000820160109054906101000a900460801b6fffffffffffffffffffffffffffffffff19166fffffffffffffffffffffffffffffffff191681526020016001820154815260200160028201548152602001600382015481526020016004820160009054906101000a900473ffffffffffffffffffffffffffffffffffffffff1673ffffffffffffffffffffffffffffffffffffffff1673ffffffffffffffffffffffffffffffffffffffff1681526020016004820160149054906101000a900460ff161515151581526020016004820160159054906101000a900460ff161515151581525050905060008160a00151905060011515600160008373ffffffffffffffffffffffffffffffffffffffff1673ffffffffffffffffffffffffffffffffffffffff16815260200190815260200160002060040160009054906101000a900460ff161515148015610abc57506000600360008373ffffffffffffffffffffffffffffffffffffffff1673ffffffffffffffffffffffffffffffffffffffff16815260200190815260200160002080549050115b610ac557600080fd5b6000610ad082612a98565b9050428160040181905550838160050160006101000a81548161ffff021916908361ffff1602179055508060000160009054906101000a900473ffffffffffffffffffffffffffffffffffffffff1673ffffffffffffffffffffffffffffffffffffffff167f21babe125c5c1c150251f23a193b80984b331789fe193b4bd254674cafc9cbb160405160405180910390a250505050565b610b6f612eea565b60011515600160008473ffffffffffffffffffffffffffffffffffffffff1673ffffffffffffffffffffffffffffffffffffffff16815260200190815260200160002060040160009054906101000a900460ff16151514610bcf57600080fd5b6000600360008473ffffffffffffffffffffffffffffffffffffffff1673ffffffffffffffffffffffffffffffffffffffff168152602001908152602001600020805490509050600360008473ffffffffffffffffffffffffffffffffffffffff1673ffffffffffffffffffffffffffffffffffffffff168152602001908152602001600020600182610c6291906140a5565b81548110610c7357610c726140d9565b5b9060005260206000209060080201604051806101400160405290816000820160009054906101000a900473ffffffffffffffffffffffffffffffffffffffff1673ffffffffffffffffffffffffffffffffffffffff1673ffffffffffffffffffffffffffffffffffffffff1681526020016001820160009054906101000a900473ffffffffffffffffffffffffffffffffffffffff1673ffffffffffffffffffffffffffffffffffffffff1673ffffffffffffffffffffffffffffffffffffffff1681526020016002820154815260200160038201548152602001600482015481526020016005820160009054906101000a900461ffff1661ffff1661ffff1681526020016005820160029054906101000a900460ff161515151581526020016005820160039054906101000a900460ff16151515158152602001600682018054610dbd90614137565b80601f0160208091040260200160405190810160405280929190818152602001828054610de990614137565b8015610e365780601f10610e0b57610100808354040283529160200191610e36565b820191906000526020600020905b815481529060010190602001808311610e1957829003601f168201915b50505050508152602001600782018054610e4f90614137565b80601f0160208091040260200160405190810160405280929190818152602001828054610e7b90614137565b8015610ec85780601f10610e9d57610100808354040283529160200191610ec8565b820191906000526020600020905b815481529060010190602001808311610eab57829003601f168201915b505050505081525050915050919050565b60011515600160003373ffffffffffffffffffffffffffffffffffffffff1673ffffffffffffffffffffffffffffffffffffffff16815260200190815260200160002060040160009054906101000a900460ff161515148015610f9657506000600360003373ffffffffffffffffffffffffffffffffffffffff1673ffffffffffffffffffffffffffffffffffffffff16815260200190815260200160002080549050118015610f9557506000610f8f33610b67565b60600151145b5b610f9f57600080fd5b6000610faa33612a98565b90503373ffffffffffffffffffffffffffffffffffffffff168160010160009054906101000a900473ffffffffffffffffffffffffffffffffffffffff1673ffffffffffffffffffffffffffffffffffffffff16036111c9576000600360008360000160009054906101000a900473ffffffffffffffffffffffffffffffffffffffff1673ffffffffffffffffffffffffffffffffffffffff1673ffffffffffffffffffffffffffffffffffffffff168152602001908152602001600020805490509050600360008360000160009054906101000a900473ffffffffffffffffffffffffffffffffffffffff1673ffffffffffffffffffffffffffffffffffffffff1673ffffffffffffffffffffffffffffffffffffffff1681526020019081526020016000206001826110de91906140a5565b815481106110ef576110ee6140d9565b5b9060005260206000209060080201600080820160006101000a81549073ffffffffffffffffffffffffffffffffffffffff02191690556001820160006101000a81549073ffffffffffffffffffffffffffffffffffffffff02191690556002820160009055600382016000905560048201600090556005820160006101000a81549061ffff02191690556005820160026101000a81549060ff02191690556005820160036101000a81549060ff02191690556006820160006111b19190612f71565b6007820160006111c19190612f71565b50505061126f565b60018160050160036101000a81548160ff0219169083151502179055506103e88160050160006101000a81548161ffff021916908361ffff1602179055508060000160009054906101000a900473ffffffffffffffffffffffffffffffffffffffff1673ffffffffffffffffffffffffffffffffffffffff167ff3aa2fff284996e4fa38020c266c1d44b0d11899054a26f3d96dd8c46bdcc03a60405160405180910390a25b50565b61127a612fb1565b60011515600260008473ffffffffffffffffffffffffffffffffffffffff1673ffffffffffffffffffffffffffffffffffffffff16815260200190815260200160002060040160149054906101000a900460ff161515146112da57600080fd5b611451600260008473ffffffffffffffffffffffffffffffffffffffff1673ffffffffffffffffffffffffffffffffffffffff168152602001908152602001600020604051806101000160405290816000820160009054906101000a900460801b6fffffffffffffffffffffffffffffffff19166fffffffffffffffffffffffffffffffff191681526020016000820160109054906101000a900460801b6fffffffffffffffffffffffffffffffff19166fffffffffffffffffffffffffffffffff191681526020016001820154815260200160028201548152602001600382015481526020016004820160009054906101000a900473ffffffffffffffffffffffffffffffffffffffff1673ffffffffffffffffffffffffffffffffffffffff1673ffffffffffffffffffffffffffffffffffffffff1681526020016004820160149054906101000a900460ff161515151581526020016004820160159054906101000a900460ff16151515158152505061179d565b9050919050565b60026020528060005260406000206000915090508060000160009054906101000a900460801b908060000160109054906101000a900460801b908060010154908060020154908060030154908060040160009054906101000a900473ffffffffffffffffffffffffffffffffffffffff16908060040160149054906101000a900460ff16908060040160159054906101000a900460ff16905088565b6004818154811061150457600080fd5b906000526020600020016000915054906101000a900473ffffffffffffffffffffffffffffffffffffffff1681565b6003602052816000526040600020818154811061154f57600080fd5b9060005260206000209060080201600091509150508060000160009054906101000a900473ffffffffffffffffffffffffffffffffffffffff16908060010160009054906101000a900473ffffffffffffffffffffffffffffffffffffffff16908060020154908060030154908060040154908060050160009054906101000a900461ffff16908060050160029054906101000a900460ff16908060050160039054906101000a900460ff169080600601805461160b90614137565b80601f016020809104026020016040519081016040528092919081815260200182805461163790614137565b80156116845780601f1061165957610100808354040283529160200191611684565b820191906000526020600020905b81548152906001019060200180831161166757829003601f168201915b50505050509080600701805461169990614137565b80601f01602080910402602001604051908101604052809291908181526020018280546116c590614137565b80156117125780601f106116e757610100808354040283529160200191611712565b820191906000526020600020905b8154815290600101906020018083116116f557829003601f168201915b505050505090508a565b611724613010565b61172c613010565b6117398360000151612bb4565b816000018190525061174e8360200151612d4f565b81602001819052506117638360400151612d4f565b81604001819052506117788360600151612d4f565b8160600181905250826080015181608001901515908115158152505080915050919050565b6117a5612fb1565b6117ad612fb1565b6117ba8360000151612bb4565b81600001819052506117cf8360200151612bb4565b81602001819052506117e48360400151612d4f565b81604001819052506117f98360600151612d4f565b816060018190525061180e8360800151612d4f565b81608001819052508260a001518160a0019073ffffffffffffffffffffffffffffffffffffffff16908173ffffffffffffffffffffffffffffffffffffffff16815250508260e001518160e00190151590811515815250508260c001518160c001901515908115158152505080915050919050565b60008054906101000a900473ffffffffffffffffffffffffffffffffffffffff1681565b60011515600260003373ffffffffffffffffffffffffffffffffffffffff1673ffffffffffffffffffffffffffffffffffffffff16815260200190815260200160002060040160149054906101000a900460ff16151514801561195d575060001515600260003373ffffffffffffffffffffffffffffffffffffffff1673ffffffffffffffffffffffffffffffffffffffff16815260200190815260200160002060040160159054906101000a900460ff161515145b61196657600080fd5b60011515600160008373ffffffffffffffffffffffffffffffffffffffff1673ffffffffffffffffffffffffffffffffffffffff16815260200190815260200160002060040160009054906101000a900460ff1615151480156119d5575060006119cf82610b67565b60600151145b6119de57600080fd5b6000600260003373ffffffffffffffffffffffffffffffffffffffff1673ffffffffffffffffffffffffffffffffffffffff1681526020019081526020016000209050818160040160006101000a81548173ffffffffffffffffffffffffffffffffffffffff021916908373ffffffffffffffffffffffffffffffffffffffff16021790555060018160040160156101000a81548160ff0219169083151502179055506000611a8c83612a98565b9050338160010160006101000a81548173ffffffffffffffffffffffffffffffffffffffff021916908373ffffffffffffffffffffffffffffffffffffffff1602179055508060000160009054906101000a900473ffffffffffffffffffffffffffffffffffffffff1673ffffffffffffffffffffffffffffffffffffffff167f36e4768d656c049e2c7118f34be11c06bd41d1ef4f2ad404c82f0ba280f6784f60405160405180910390a2505050565b606060011515600160008473ffffffffffffffffffffffffffffffffffffffff1673ffffffffffffffffffffffffffffffffffffffff16815260200190815260200160002060040160009054906101000a900460ff16151514611b9f57600080fd5b600360008373ffffffffffffffffffffffffffffffffffffffff1673ffffffffffffffffffffffffffffffffffffffff168152602001908152602001600020805480602002602001604051908101604052809291908181526020016000905b82821015611e755783829060005260206000209060080201604051806101400160405290816000820160009054906101000a900473ffffffffffffffffffffffffffffffffffffffff1673ffffffffffffffffffffffffffffffffffffffff1673ffffffffffffffffffffffffffffffffffffffff1681526020016001820160009054906101000a900473ffffffffffffffffffffffffffffffffffffffff1673ffffffffffffffffffffffffffffffffffffffff1673ffffffffffffffffffffffffffffffffffffffff1681526020016002820154815260200160038201548152602001600482015481526020016005820160009054906101000a900461ffff1661ffff1661ffff1681526020016005820160029054906101000a900460ff161515151581526020016005820160039054906101000a900460ff16151515158152602001600682018054611d5290614137565b80601f0160208091040260200160405190810160405280929190818152602001828054611d7e90614137565b8015611dcb5780601f10611da057610100808354040283529160200191611dcb565b820191906000526020600020905b815481529060010190602001808311611dae57829003601f168201915b50505050508152602001600782018054611de490614137565b80601f0160208091040260200160405190810160405280929190818152602001828054611e1090614137565b8015611e5d5780601f10611e3257610100808354040283529160200191611e5d565b820191906000526020600020905b815481529060010190602001808311611e4057829003601f168201915b50505050508152505081526020019060010190611bfe565b505050509050919050565b60016020528060005260406000206000915090508060000160009054906101000a900460801b908060010154908060020154908060030154908060040160009054906101000a900460ff16905085565b60011515600160003373ffffffffffffffffffffffffffffffffffffffff1673ffffffffffffffffffffffffffffffffffffffff16815260200190815260200160002060040160009054906101000a900460ff16151514611f3057600080fd5b6000600360003373ffffffffffffffffffffffffffffffffffffffff1673ffffffffffffffffffffffffffffffffffffffff168152602001908152602001600020805490501480611fdb57506000600360003373ffffffffffffffffffffffffffffffffffffffff1673ffffffffffffffffffffffffffffffffffffffff16815260200190815260200160002080549050118015611fda57506000611fd433610b67565b60400151145b5b611fe457600080fd5b600360003373ffffffffffffffffffffffffffffffffffffffff1673ffffffffffffffffffffffffffffffffffffffff1681526020019081526020016000206040518061014001604052803373ffffffffffffffffffffffffffffffffffffffff1681526020013373ffffffffffffffffffffffffffffffffffffffff1681526020014281526020016000815260200160008152602001600061ffff16815260200160001515815260200160001515815260200184815260200183815250908060018154018082558091505060019003906000526020600020906008020160009091909190915060008201518160000160006101000a81548173ffffffffffffffffffffffffffffffffffffffff021916908373ffffffffffffffffffffffffffffffffffffffff16021790555060208201518160010160006101000a81548173ffffffffffffffffffffffffffffffffffffffff021916908373ffffffffffffffffffffffffffffffffffffffff16021790555060408201518160020155606082015181600301556080820151816004015560a08201518160050160006101000a81548161ffff021916908361ffff16021790555060c08201518160050160026101000a81548160ff02191690831515021790555060e08201518160050160036101000a81548160ff0219169083151502179055506101008201518160060190805190602001906121f7929190613041565b50610120820151816007019080519060200190612215929190613041565b5050506004339080600181540180825580915050600190039060005260206000200160009091909190916101000a81548173ffffffffffffffffffffffffffffffffffffffff021916908373ffffffffffffffffffffffffffffffffffffffff1602179055507fdd1c69d29c1b10da22392c5bb2c9fcde65af28becfb66b1fadf2d41fc84c599760405160405180910390a15050565b60011515600260003373ffffffffffffffffffffffffffffffffffffffff1673ffffffffffffffffffffffffffffffffffffffff16815260200190815260200160002060040160149054906101000a900460ff16151514801561235a5750600260003373ffffffffffffffffffffffffffffffffffffffff1673ffffffffffffffffffffffffffffffffffffffff16815260200190815260200160002060040160159054906101000a900460ff165b61236357600080fd5b6000600260003373ffffffffffffffffffffffffffffffffffffffff1673ffffffffffffffffffffffffffffffffffffffff168152602001908152602001600020604051806101000160405290816000820160009054906101000a900460801b6fffffffffffffffffffffffffffffffff19166fffffffffffffffffffffffffffffffff191681526020016000820160109054906101000a900460801b6fffffffffffffffffffffffffffffffff19166fffffffffffffffffffffffffffffffff191681526020016001820154815260200160028201548152602001600382015481526020016004820160009054906101000a900473ffffffffffffffffffffffffffffffffffffffff1673ffffffffffffffffffffffffffffffffffffffff1673ffffffffffffffffffffffffffffffffffffffff1681526020016004820160149054906101000a900460ff161515151581526020016004820160159054906101000a900460ff161515151581525050905060008160a00151905060011515600160008373ffffffffffffffffffffffffffffffffffffffff1673ffffffffffffffffffffffffffffffffffffffff16815260200190815260200160002060040160009054906101000a900460ff16151514801561255257506000151561254a82610b67565b60e001511515145b801561256a5750600061256482610b67565b60600151145b61257357600080fd5b4261257d82612a98565b6003018190555061258d81610b67565b6000015173ffffffffffffffffffffffffffffffffffffffff167f82e5b65aeb83b3617124292be93a7628109935d45e1177d8a721401af830f42860405160405180910390a25050565b6125df613010565b60011515600160008473ffffffffffffffffffffffffffffffffffffffff1673ffffffffffffffffffffffffffffffffffffffff16815260200190815260200160002060040160009054906101000a900460ff1615151461263f57600080fd5b612707600160008473ffffffffffffffffffffffffffffffffffffffff1673ffffffffffffffffffffffffffffffffffffffff1681526020019081526020016000206040518060a00160405290816000820160009054906101000a900460801b6fffffffffffffffffffffffffffffffff19166fffffffffffffffffffffffffffffffff191681526020016001820154815260200160028201548152602001600382015481526020016004820160009054906101000a900460ff16151515158152505061171c565b9050919050565b60606000806004805490509050600080858361272a91906140a5565b905086866127389190614168565b83111561275d5786868461274c91906140a5565b61275691906140a5565b9150612762565b600091505b60008767ffffffffffffffff81111561277e5761277d613113565b5b6040519080825280602002602001820160405280156127b757816020015b6127a4612eea565b81526020019060019003908161279c5790505b5090506000808390505b8481111561285b5761281c60046001836127db91906140a5565b815481106127ec576127eb6140d9565b5b9060005260206000200160009054906101000a900473ffffffffffffffffffffffffffffffffffffffff16610b67565b83838151811061282f5761282e6140d9565b5b60200260200101819052508180612845906141be565b925050808061285390614206565b9150506127c1565b5088881061287e5781898961287091906140a5565b96509650505050505061288b565b8160009650965050505050505b9250929050565b60011515600160003373ffffffffffffffffffffffffffffffffffffffff1673ffffffffffffffffffffffffffffffffffffffff16815260200190815260200160002060040160009054906101000a900460ff16151514801561295057506000600360003373ffffffffffffffffffffffffffffffffffffffff1673ffffffffffffffffffffffffffffffffffffffff1681526020019081526020016000208054905011801561294f5750600061294833610b67565b6080015114155b5b61295957600080fd5b600061296433612a98565b905060018160050160026101000a81548160ff0219169083151502179055506000600260008360010160009054906101000a900473ffffffffffffffffffffffffffffffffffffffff1673ffffffffffffffffffffffffffffffffffffffff1673ffffffffffffffffffffffffffffffffffffffff168152602001908152602001600020905060008160040160156101000a81548160ff0219169083151502179055508160000160009054906101000a900473ffffffffffffffffffffffffffffffffffffffff1673ffffffffffffffffffffffffffffffffffffffff167fffc23527451ba78650f0fb3d77903307a21a4d95bc670d4363793b3de9d44cc760405160405180910390a25050565b600081612a7e9061426c565b9050919050565b600081612a91906142e8565b9050919050565b600060011515600160008473ffffffffffffffffffffffffffffffffffffffff1673ffffffffffffffffffffffffffffffffffffffff16815260200190815260200160002060040160009054906101000a900460ff16151514612afa57600080fd5b6000600360008473ffffffffffffffffffffffffffffffffffffffff1673ffffffffffffffffffffffffffffffffffffffff168152602001908152602001600020805490509050600360008473ffffffffffffffffffffffffffffffffffffffff1673ffffffffffffffffffffffffffffffffffffffff168152602001908152602001600020600182612b8d91906140a5565b81548110612b9e57612b9d6140d9565b5b9060005260206000209060080201915050919050565b606060005b60108160ff16108015612c0b5750600060f81b838260ff1660108110612be257612be16140d9565b5b1a60f81b7effffffffffffffffffffffffffffffffffffffffffffffffffffffffffffff191614155b15612c23578080612c1b9061435c565b915050612bb9565b60008160ff1667ffffffffffffffff811115612c4257612c41613113565b5b6040519080825280601f01601f191660200182016040528015612c745781602001600182028036833780820191505090505b509050600091505b60108260ff16108015612cce5750600060f81b848360ff1660108110612ca557612ca46140d9565b5b1a60f81b7effffffffffffffffffffffffffffffffffffffffffffffffffffffffffffff191614155b15612d4557838260ff1660108110612ce957612ce86140d9565b5b1a60f81b818360ff1681518110612d0357612d026140d9565b5b60200101907effffffffffffffffffffffffffffffffffffffffffffffffffffffffffffff1916908160001a9053508180612d3d9061435c565b925050612c7c565b8092505050919050565b606060005b60208160ff16108015612da65750600060f81b838260ff1660208110612d7d57612d7c6140d9565b5b1a60f81b7effffffffffffffffffffffffffffffffffffffffffffffffffffffffffffff191614155b15612dbe578080612db69061435c565b915050612d54565b60008160ff1667ffffffffffffffff811115612ddd57612ddc613113565b5b6040519080825280601f01601f191660200182016040528015612e0f5781602001600182028036833780820191505090505b509050600091505b60208260ff16108015612e695750600060f81b848360ff1660208110612e4057612e3f6140d9565b5b1a60f81b7effffffffffffffffffffffffffffffffffffffffffffffffffffffffffffff191614155b15612ee057838260ff1660208110612e8457612e836140d9565b5b1a60f81b818360ff1681518110612e9e57612e9d6140d9565b5b60200101907effffffffffffffffffffffffffffffffffffffffffffffffffffffffffffff1916908160001a9053508180612ed89061435c565b925050612e17565b8092505050919050565b604051806101400160405280600073ffffffffffffffffffffffffffffffffffffffff168152602001600073ffffffffffffffffffffffffffffffffffffffff168152602001600081526020016000815260200160008152602001600061ffff16815260200160001515815260200160001515815260200160608152602001606081525090565b508054612f7d90614137565b6000825580601f10612f8f5750612fae565b601f016020900490600052602060002090810190612fad91906130c7565b5b50565b6040518061010001604052806060815260200160608152602001606081526020016060815260200160608152602001600073ffffffffffffffffffffffffffffffffffffffff1681526020016000151581526020016000151581525090565b6040518060a00160405280606081526020016060815260200160608152602001606081526020016000151581525090565b82805461304d90614137565b90600052602060002090601f01602090048101928261306f57600085556130b6565b82601f1061308857805160ff19168380011785556130b6565b828001600101855582156130b6579182015b828111156130b557825182559160200191906001019061309a565b5b5090506130c391906130c7565b5090565b5b808211156130e05760008160009055506001016130c8565b5090565b6000604051905090565b600080fd5b600080fd5b600080fd5b600080fd5b6000601f19601f8301169050919050565b7f4e487b7100000000000000000000000000000000000000000000000000000000600052604160045260246000fd5b61314b82613102565b810181811067ffffffffffffffff8211171561316a57613169613113565b5b80604052505050565b600061317d6130e4565b90506131898282613142565b919050565b600067ffffffffffffffff8211156131a9576131a8613113565b5b6131b282613102565b9050602081019050919050565b82818337600083830152505050565b60006131e16131dc8461318e565b613173565b9050828152602081018484840111156131fd576131fc6130fd565b5b6132088482856131bf565b509392505050565b600082601f830112613225576132246130f8565b5b81356132358482602086016131ce565b91505092915050565b60008060008060808587031215613258576132576130ee565b5b600085013567ffffffffffffffff811115613276576132756130f3565b5b61328287828801613210565b945050602085013567ffffffffffffffff8111156132a3576132a26130f3565b5b6132af87828801613210565b935050604085013567ffffffffffffffff8111156132d0576132cf6130f3565b5b6132dc87828801613210565b925050606085013567ffffffffffffffff8111156132fd576132fc6130f3565b5b61330987828801613210565b91505092959194509250565b600080600080600060a08688031215613331576133306130ee565b5b600086013567ffffffffffffffff81111561334f5761334e6130f3565b5b61335b88828901613210565b955050602086013567ffffffffffffffff81111561337c5761337b6130f3565b5b61338888828901613210565b945050604086013567ffffffffffffffff8111156133a9576133a86130f3565b5b6133b588828901613210565b935050606086013567ffffffffffffffff8111156133d6576133d56130f3565b5b6133e288828901613210565b925050608086013567ffffffffffffffff811115613403576134026130f3565b5b61340f88828901613210565b9150509295509295909350565b600061ffff82169050919050565b6134338161341c565b811461343e57600080fd5b50565b6000813590506134508161342a565b92915050565b60006020828403121561346c5761346b6130ee565b5b600061347a84828501613441565b91505092915050565b600073ffffffffffffffffffffffffffffffffffffffff82169050919050565b60006134ae82613483565b9050919050565b6134be816134a3565b81146134c957600080fd5b50565b6000813590506134db816134b5565b92915050565b6000602082840312156134f7576134f66130ee565b5b6000613505848285016134cc565b91505092915050565b613517816134a3565b82525050565b6000819050919050565b6135308161351d565b82525050565b61353f8161341c565b82525050565b60008115159050919050565b61355a81613545565b82525050565b600081519050919050565b600082825260208201905092915050565b60005b8381101561359a57808201518184015260208101905061357f565b838111156135a9576000848401525b50505050565b60006135ba82613560565b6135c4818561356b565b93506135d481856020860161357c565b6135dd81613102565b840191505092915050565b600061014083016000830151613601600086018261350e565b506020830151613614602086018261350e565b5060408301516136276040860182613527565b50606083015161363a6060860182613527565b50608083015161364d6080860182613527565b5060a083015161366060a0860182613536565b5060c083015161367360c0860182613551565b5060e083015161368660e0860182613551565b506101008301518482036101008601526136a082826135af565b9150506101208301518482036101208601526136bc82826135af565b9150508091505092915050565b600060208201905081810360008301526136e381846135e8565b905092915050565b600061010083016000830151848203600086015261370982826135af565b9150506020830151848203602086015261372382826135af565b9150506040830151848203604086015261373d82826135af565b9150506060830151848203606086015261375782826135af565b9150506080830151848203608086015261377182826135af565b91505060a083015161378660a086018261350e565b5060c083015161379960c0860182613551565b5060e08301516137ac60e0860182613551565b508091505092915050565b600060208201905081810360008301526137d181846136eb565b905092915050565b60007fffffffffffffffffffffffffffffffff0000000000000000000000000000000082169050919050565b61380e816137d9565b82525050565b6000819050919050565b61382781613814565b82525050565b613836816134a3565b82525050565b61384581613545565b82525050565b600061010082019050613861600083018b613805565b61386e602083018a613805565b61387b604083018961381e565b613888606083018861381e565b613895608083018761381e565b6138a260a083018661382d565b6138af60c083018561383c565b6138bc60e083018461383c565b9998505050505050505050565b6138d28161351d565b81146138dd57600080fd5b50565b6000813590506138ef816138c9565b92915050565b60006020828403121561390b5761390a6130ee565b5b6000613919848285016138e0565b91505092915050565b6000602082019050613937600083018461382d565b92915050565b60008060408385031215613954576139536130ee565b5b6000613962858286016134cc565b9250506020613973858286016138e0565b9150509250929050565b6139868161351d565b82525050565b6139958161341c565b82525050565b600082825260208201905092915050565b60006139b782613560565b6139c1818561399b565b93506139d181856020860161357c565b6139da81613102565b840191505092915050565b6000610140820190506139fb600083018d61382d565b613a08602083018c61382d565b613a15604083018b61397d565b613a22606083018a61397d565b613a2f608083018961397d565b613a3c60a083018861398c565b613a4960c083018761383c565b613a5660e083018661383c565b818103610100830152613a6981856139ac565b9050818103610120830152613a7e81846139ac565b90509b9a5050505050505050505050565b600080fd5b613a9d816137d9565b8114613aa857600080fd5b50565b600081359050613aba81613a94565b92915050565b613ac981613814565b8114613ad457600080fd5b50565b600081359050613ae681613ac0565b92915050565b613af581613545565b8114613b0057600080fd5b50565b600081359050613b1281613aec565b92915050565b600060a08284031215613b2e57613b2d613a8f565b5b613b3860a0613173565b90506000613b4884828501613aab565b6000830152506020613b5c84828501613ad7565b6020830152506040613b7084828501613ad7565b6040830152506060613b8484828501613ad7565b6060830152506080613b9884828501613b03565b60808301525092915050565b600060a08284031215613bba57613bb96130ee565b5b6000613bc884828501613b18565b91505092915050565b600060a0830160008301518482036000860152613bee82826135af565b91505060208301518482036020860152613c0882826135af565b91505060408301518482036040860152613c2282826135af565b91505060608301518482036060860152613c3c82826135af565b9150506080830151613c516080860182613551565b508091505092915050565b60006020820190508181036000830152613c768184613bd1565b905092915050565b60006101008284031215613c9557613c94613a8f565b5b613ca0610100613173565b90506000613cb084828501613aab565b6000830152506020613cc484828501613aab565b6020830152506040613cd884828501613ad7565b6040830152506060613cec84828501613ad7565b6060830152506080613d0084828501613ad7565b60808301525060a0613d14848285016134cc565b60a08301525060c0613d2884828501613b03565b60c08301525060e0613d3c84828501613b03565b60e08301525092915050565b60006101008284031215613d5f57613d5e6130ee565b5b6000613d6d84828501613c7e565b91505092915050565b600081519050919050565b600082825260208201905092915050565b6000819050602082019050919050565b600061014083016000830151613dbb600086018261350e565b506020830151613dce602086018261350e565b506040830151613de16040860182613527565b506060830151613df46060860182613527565b506080830151613e076080860182613527565b5060a0830151613e1a60a0860182613536565b5060c0830151613e2d60c0860182613551565b5060e0830151613e4060e0860182613551565b50610100830151848203610100860152613e5a82826135af565b915050610120830151848203610120860152613e7682826135af565b9150508091505092915050565b6000613e8f8383613da2565b905092915050565b6000602082019050919050565b6000613eaf82613d76565b613eb98185613d81565b935083602082028501613ecb85613d92565b8060005b85811015613f075784840389528151613ee88582613e83565b9450613ef383613e97565b925060208a01995050600181019050613ecf565b50829750879550505050505092915050565b60006020820190508181036000830152613f338184613ea4565b905092915050565b600060a082019050613f506000830188613805565b613f5d602083018761381e565b613f6a604083018661381e565b613f77606083018561381e565b613f84608083018461383c565b9695505050505050565b60008060408385031215613fa557613fa46130ee565b5b600083013567ffffffffffffffff811115613fc357613fc26130f3565b5b613fcf85828601613210565b925050602083013567ffffffffffffffff811115613ff057613fef6130f3565b5b613ffc85828601613210565b9150509250929050565b6000806040838503121561401d5761401c6130ee565b5b600061402b858286016138e0565b925050602061403c858286016138e0565b9150509250929050565b600060408201905081810360008301526140608185613ea4565b905061406f602083018461397d565b9392505050565b7f4e487b7100000000000000000000000000000000000000000000000000000000600052601160045260246000fd5b60006140b08261351d565b91506140bb8361351d565b9250828210156140ce576140cd614076565b5b828203905092915050565b7f4e487b7100000000000000000000000000000000000000000000000000000000600052603260045260246000fd5b7f4e487b7100000000000000000000000000000000000000000000000000000000600052602260045260246000fd5b6000600282049050600182168061414f57607f821691505b60208210810361416257614161614108565b5b50919050565b60006141738261351d565b915061417e8361351d565b9250827fffffffffffffffffffffffffffffffffffffffffffffffffffffffffffffffff038211156141b3576141b2614076565b5b828201905092915050565b60006141c98261351d565b91507fffffffffffffffffffffffffffffffffffffffffffffffffffffffffffffffff82036141fb576141fa614076565b5b600182019050919050565b60006142118261351d565b91506000820361422457614223614076565b5b600182039050919050565b600081519050919050565b6000819050602082019050919050565b600061425682516137d9565b80915050919050565b600082821b905092915050565b60006142778261422f565b826142818461423a565b905061428c8161424a565b925060108210156142cc576142c77fffffffffffffffffffffffffffffffff000000000000000000000000000000008360100360080261425f565b831692505b5050919050565b60006142df8251613814565b80915050919050565b60006142f38261422f565b826142fd8461423a565b9050614308816142d3565b92506020821015614348576143437fffffffffffffffffffffffffffffffffffffffffffffffffffffffffffffffff8360200360080261425f565b831692505b5050919050565b600060ff82169050919050565b60006143678261434f565b915060ff820361437a57614379614076565b5b60018201905091905056fea26469706673582212203e2d17d2ea98bf719965e7f822f702d1bea372fd416d78db65726dadd4d62f4264736f6c634300080e0033",
  "immutableReferences": {},
  "source": "// SPDX-License-Identifier: GPL-3.0\r\npragma solidity >=0.7.0 <0.9.0;\r\n\r\ncontract TaxiTxRx {\r\n    struct Reservation{\r\n        address target; //  \r\n        address driver; //  \r\n        uint occur; //   (timestamp)\r\n        uint start; //  \r\n        uint end; //  \r\n        uint16 paid; // \r\n        bool pay_completed; // \r\n        bool cancelled; // \r\n        string start_point; // \r\n        string dest_point;  // \r\n    }\r\n\r\n\r\n    struct User{\r\n        bytes16 phone_number; // \r\n        bytes32 name; // \r\n        bytes32 nickname; // \r\n        bytes32 email; // \r\n        bool created; // \r\n    }\r\n\r\n    struct Driver{\r\n        bytes16 phone_number; // \r\n        bytes16 car_number; // \r\n        bytes32 name; // \r\n        bytes32 nickname; // \r\n        bytes32 email; // \r\n        address target; //   \r\n        bool created; // \r\n        bool driving; // \r\n    }\r\n\r\n    struct StringUser{\r\n        string phone_number;\r\n        string name;\r\n        string nickname;\r\n        string email;\r\n        bool created;\r\n    }\r\n\r\n    struct StringDriver{\r\n        string phone_number; // \r\n        string car_number; // \r\n        string name; // \r\n        string nickname; // \r\n        string email; // \r\n        address target; //   \r\n        bool created; // \r\n        bool driving; // \r\n    }\r\n\r\n\r\n    event addReservEvent();\r\n    event acceptReservEvent(address indexed addr);\r\n    event checkInTaxiEvent(address indexed addr);\r\n    event checkOutTaxiEvent(address indexed addr);\r\n    event cancelLastReservEvent(address indexed addr);\r\n    event payCompleteEvent(address indexed addr);\r\n\r\n    address public owner; //  \r\n\r\n    mapping (address => User) public users; //  \r\n    mapping (address => Driver) public drivers; //  \r\n    mapping (address => Reservation[]) public user_reservs; //  \r\n\r\n    address[] public recent_addReserv_addrs; //    \r\n\r\n    constructor(){\r\n        owner = msg.sender;\r\n    }\r\n\r\n\r\n    //   .\r\n    function getStringUser(address caller) public view returns (StringUser memory){\r\n        require(users[caller].created == true);\r\n        return ToStringUser(users[caller]);\r\n    }\r\n\r\n    //    .    . ( )\r\n    function getLastReservation(address caller) public view returns (Reservation memory){\r\n        require(users[caller].created == true);\r\n        uint size = user_reservs[caller].length;\r\n        return user_reservs[caller][size-1];\r\n    }\r\n\r\n    //    . ( )\r\n    function _getLastReservation(address caller) internal view returns (Reservation storage){\r\n        require(users[caller].created == true);\r\n        uint size = user_reservs[caller].length;\r\n        return user_reservs[caller][size-1];\r\n    }\r\n\r\n    //   . [  ]\r\n    function getReservationList(address caller) public view returns (Reservation[] memory) {\r\n        require(users[caller].created == true);\r\n        return user_reservs[caller];\r\n    }\r\n\r\n\r\n    //  . [  ]\r\n    function addUser(string memory phone_number, string memory name, string memory nickname, string memory email) public {\r\n        require(users[msg.sender].created == false);\r\n        users[msg.sender] = User(ToBytes16(phone_number), ToBytes32(name),ToBytes32(nickname), ToBytes32(email), true);\r\n        \r\n    }\r\n\r\n    //   [  ]\r\n    function addReserv(string memory sp, string memory dp) public {\r\n        require(users[msg.sender].created == true);\r\n        require(user_reservs[msg.sender].length == 0 || (user_reservs[msg.sender].length > 0 && getLastReservation(msg.sender).occur == 0));\r\n        user_reservs[msg.sender].push(Reservation(msg.sender, msg.sender, block.timestamp, 0, 0, 0, false, false, sp, dp));\r\n        recent_addReserv_addrs.push(msg.sender);\r\n        emit addReservEvent();\r\n    }\r\n\r\n    //   [  ]\r\n    function cancelLastReserv() public {\r\n        require(users[msg.sender].created == true && (user_reservs[msg.sender].length > 0 && getLastReservation(msg.sender).start == 0));\r\n        Reservation storage last = _getLastReservation(msg.sender);\r\n        if (last.driver == msg.sender){\r\n            uint size = user_reservs[last.target].length;\r\n            delete user_reservs[last.target][size-1];\r\n        }else{\r\n            last.cancelled = true;\r\n            last.paid = 1000; // .\r\n            emit cancelLastReservEvent(last.target);\r\n        }\r\n    }\r\n\r\n    //   [  ]\r\n    function setPayCompleteLastReserv() public{\r\n        require(users[msg.sender].created == true && (user_reservs[msg.sender].length > 0 && getLastReservation(msg.sender).end != 0));\r\n        Reservation storage last = _getLastReservation(msg.sender);\r\n        last.pay_completed = true;\r\n        Driver storage driver = drivers[last.driver];\r\n        driver.driving = false;\r\n        emit payCompleteEvent(last.target);\r\n    }\r\n\r\n    //    [  ]\r\n    function getStringDriver(address caller) public view returns(StringDriver memory){\r\n        require(drivers[caller].created == true);\r\n        return ToStringDriver(drivers[caller]);\r\n    }\r\n    //   [  ]\r\n    function addDriver(string memory phone_number, string memory car_number, string memory name, string memory nickname, string memory email) public {\r\n        require(drivers[msg.sender].created == false);\r\n        drivers[msg.sender] = Driver(ToBytes16(phone_number), ToBytes16(car_number), ToBytes32(name), ToBytes32(nickname), ToBytes32(email),\r\n        msg.sender, true, false);\r\n        \r\n    }\r\n    //   [  ]\r\n    function acceptReserv(address target) public {\r\n        require(drivers[msg.sender].created == true && drivers[msg.sender].driving == false);\r\n        require(users[target].created == true && getLastReservation(target).start == 0);\r\n        Driver storage driver = drivers[msg.sender];\r\n        driver.target = target;\r\n        driver.driving = true;\r\n\r\n        Reservation storage last = _getLastReservation(target);\r\n        last.driver = msg.sender;\r\n\r\n        emit acceptReservEvent(last.target);\r\n    }\r\n    //   [  ]\r\n    function checkInTaxi() public {\r\n        require(drivers[msg.sender].created == true && drivers[msg.sender].driving);\r\n        Driver memory driver = drivers[msg.sender];\r\n        address caller = driver.target;\r\n\r\n        require(users[caller].created == true && getLastReservation(caller).cancelled == false && getLastReservation(caller).start == 0);\r\n        _getLastReservation(caller).start = block.timestamp;\r\n        emit checkInTaxiEvent(getLastReservation(caller).target);\r\n    }\r\n\r\n    //      [  ]\r\n    function checkOutTaxi(uint16 paid) public {\r\n        require(drivers[msg.sender].created == true && drivers[msg.sender].driving);\r\n        Driver memory driver = drivers[msg.sender];\r\n        address caller = driver.target;\r\n\r\n        require(users[caller].created == true && user_reservs[caller].length > 0);\r\n        Reservation storage last = _getLastReservation(caller);\r\n        last.end = block.timestamp; // \r\n        last.paid = paid;\r\n        emit checkOutTaxiEvent(last.target);\r\n    }\r\n    \r\n    \r\n    //   [  ]\r\n    function fetchReserv(uint length, uint cursor) public view returns(Reservation[] memory, uint){\r\n        uint offset = recent_addReserv_addrs.length;\r\n        uint start = 0;\r\n        uint end = (offset - cursor);\r\n\r\n        if (offset > cursor + length){\r\n            start = offset - cursor - length;\r\n        }else{\r\n            start = 0;\r\n        }\r\n\r\n        \r\n        Reservation[] memory reservs = new Reservation[](length);\r\n        uint j = 0;\r\n        for (uint i=end; i>start; i--){\r\n            reservs[j] = getLastReservation(recent_addReserv_addrs[i-1]);\r\n            j++;\r\n        }\r\n        if (cursor >= length)\r\n            return (reservs, cursor - length);\r\n        else\r\n            return (reservs, 0);\r\n    }\r\n\r\n    //  \r\n\r\n    function ToBytes32(string memory x) internal pure returns (bytes32){\r\n        return bytes32(bytes(x));\r\n    }\r\n\r\n    function ToBytes16(string memory x) internal pure returns (bytes16){\r\n        return bytes16(bytes(x));\r\n    } \r\n\r\n    function bytes16ToString(bytes16 _bytes16) internal pure returns (string memory) {\r\n        uint8 i = 0;\r\n        while(i < 16 && _bytes16[i] != 0) {\r\n            i++;\r\n        }\r\n        bytes memory bytesArray = new bytes(i);\r\n        for (i = 0; i < 16 && _bytes16[i] != 0; i++) {\r\n            bytesArray[i] = _bytes16[i];\r\n        }\r\n        return string(bytesArray);\r\n    }\r\n\r\n    function bytes32ToString(bytes32 _bytes32) internal pure returns (string memory) {\r\n        uint8 i = 0;\r\n        while(i < 32 && _bytes32[i] != 0) {\r\n            i++;\r\n        }\r\n        bytes memory bytesArray = new bytes(i);\r\n        for (i = 0; i < 32 && _bytes32[i] != 0; i++) {\r\n            bytesArray[i] = _bytes32[i];\r\n        }\r\n        return string(bytesArray);\r\n    }\r\n\r\n    function ToStringUser(User memory x) public pure returns (StringUser memory){\r\n        StringUser memory s_user;\r\n        s_user.phone_number = bytes16ToString(x.phone_number);\r\n        s_user.name = bytes32ToString(x.name);\r\n        s_user.nickname = bytes32ToString(x.nickname);\r\n        s_user.email = bytes32ToString(x.email);\r\n        s_user.created = x.created;\r\n        return s_user;\r\n    }\r\n\r\n    function ToStringDriver(Driver memory x) public pure returns (StringDriver memory){\r\n        StringDriver memory s_driver;\r\n        s_driver.phone_number = bytes16ToString(x.phone_number);\r\n        s_driver.car_number = bytes16ToString(x.car_number);\r\n        s_driver.name = bytes32ToString(x.name);\r\n        s_driver.nickname = bytes32ToString(x.nickname);\r\n        s_driver.email = bytes32ToString(x.email);\r\n        s_driver.target = x.target;\r\n        s_driver.driving = x.driving;\r\n        s_driver.created = x.created;\r\n        return s_driver;\r\n    }\r\n}",
  "sourcePath": "C:\\Users\\KangHyunWoo\\Documents\\VSCODE\\taxi_mmd2022\\contracts\\TaxiTxRx.sol",
  "compiler": {
    "name": "solc",
    "version": "0.8.14+commit.80d49f37.Emscripten.clang"
  },
  "schemaVersion": "3.4.7",
  "updatedAt": "2022-06-05T17:44:04.902Z",
  "networkType": "ethereum",
  "devdoc": {
    "kind": "dev",
    "methods": {},
    "version": 1
  },
  "userdoc": {
    "kind": "user",
    "methods": {},
    "version": 1
  }
}