{
  "contractName": "TaxiTxRx",
  "abi": [
    {
      "inputs": [],
      "stateMutability": "nonpayable",
      "type": "constructor"
    },
    {
      "anonymous": false,
      "inputs": [
        {
          "indexed": true,
          "internalType": "address",
          "name": "addr",
          "type": "address"
        }
      ],
      "name": "acceptReservEvent",
      "type": "event"
    },
    {
      "anonymous": false,
      "inputs": [],
      "name": "addReservEvent",
      "type": "event"
    },
    {
      "anonymous": false,
      "inputs": [
        {
          "indexed": true,
          "internalType": "address",
          "name": "addr",
          "type": "address"
        }
      ],
      "name": "cancelLastReservEvent",
      "type": "event"
    },
    {
      "anonymous": false,
      "inputs": [
        {
          "indexed": true,
          "internalType": "address",
          "name": "addr",
          "type": "address"
        }
      ],
      "name": "checkInTaxiEvent",
      "type": "event"
    },
    {
      "anonymous": false,
      "inputs": [
        {
          "indexed": true,
          "internalType": "address",
          "name": "addr",
          "type": "address"
        }
      ],
      "name": "checkOutTaxiEvent",
      "type": "event"
    },
    {
      "anonymous": false,
      "inputs": [
        {
          "indexed": true,
          "internalType": "address",
          "name": "addr",
          "type": "address"
        }
      ],
      "name": "payCompleteEvent",
      "type": "event"
    },
    {
      "inputs": [
        {
          "internalType": "address",
          "name": "",
          "type": "address"
        }
      ],
      "name": "drivers",
      "outputs": [
        {
          "internalType": "bytes16",
          "name": "phone_number",
          "type": "bytes16"
        },
        {
          "internalType": "bytes16",
          "name": "car_number",
          "type": "bytes16"
        },
        {
          "internalType": "bytes32",
          "name": "name",
          "type": "bytes32"
        },
        {
          "internalType": "bytes32",
          "name": "nickname",
          "type": "bytes32"
        },
        {
          "internalType": "bytes32",
          "name": "email",
          "type": "bytes32"
        },
        {
          "internalType": "address",
          "name": "target",
          "type": "address"
        },
        {
          "internalType": "bool",
          "name": "created",
          "type": "bool"
        },
        {
          "internalType": "bool",
          "name": "driving",
          "type": "bool"
        }
      ],
      "stateMutability": "view",
      "type": "function",
      "constant": true
    },
    {
      "inputs": [],
      "name": "owner",
      "outputs": [
        {
          "internalType": "address",
          "name": "",
          "type": "address"
        }
      ],
      "stateMutability": "view",
      "type": "function",
      "constant": true
    },
    {
      "inputs": [
        {
          "internalType": "address",
          "name": "",
          "type": "address"
        },
        {
          "internalType": "uint256",
          "name": "",
          "type": "uint256"
        }
      ],
      "name": "user_reservs",
      "outputs": [
        {
          "internalType": "address",
          "name": "target",
          "type": "address"
        },
        {
          "internalType": "address",
          "name": "driver",
          "type": "address"
        },
        {
          "internalType": "uint256",
          "name": "occur",
          "type": "uint256"
        },
        {
          "internalType": "uint256",
          "name": "start",
          "type": "uint256"
        },
        {
          "internalType": "uint256",
          "name": "end",
          "type": "uint256"
        },
        {
          "internalType": "uint16",
          "name": "paid",
          "type": "uint16"
        },
        {
          "internalType": "bool",
          "name": "pay_completed",
          "type": "bool"
        },
        {
          "internalType": "bool",
          "name": "cancelled",
          "type": "bool"
        },
        {
          "internalType": "string",
          "name": "start_point",
          "type": "string"
        },
        {
          "internalType": "string",
          "name": "dest_point",
          "type": "string"
        }
      ],
      "stateMutability": "view",
      "type": "function",
      "constant": true
    },
    {
      "inputs": [
        {
          "internalType": "address",
          "name": "",
          "type": "address"
        }
      ],
      "name": "users",
      "outputs": [
        {
          "internalType": "bytes16",
          "name": "phone_number",
          "type": "bytes16"
        },
        {
          "internalType": "bytes32",
          "name": "name",
          "type": "bytes32"
        },
        {
          "internalType": "bytes32",
          "name": "nickname",
          "type": "bytes32"
        },
        {
          "internalType": "bytes32",
          "name": "email",
          "type": "bytes32"
        },
        {
          "internalType": "bool",
          "name": "created",
          "type": "bool"
        }
      ],
      "stateMutability": "view",
      "type": "function",
      "constant": true
    },
    {
      "inputs": [
        {
          "internalType": "address",
          "name": "caller",
          "type": "address"
        }
      ],
      "name": "getStringUser",
      "outputs": [
        {
          "components": [
            {
              "internalType": "string",
              "name": "phone_number",
              "type": "string"
            },
            {
              "internalType": "string",
              "name": "name",
              "type": "string"
            },
            {
              "internalType": "string",
              "name": "nickname",
              "type": "string"
            },
            {
              "internalType": "string",
              "name": "email",
              "type": "string"
            },
            {
              "internalType": "bool",
              "name": "created",
              "type": "bool"
            }
          ],
          "internalType": "struct TaxiTxRx.StringUser",
          "name": "",
          "type": "tuple"
        }
      ],
      "stateMutability": "view",
      "type": "function",
      "constant": true
    },
    {
      "inputs": [
        {
          "internalType": "address",
          "name": "caller",
          "type": "address"
        }
      ],
      "name": "getLastReservation",
      "outputs": [
        {
          "components": [
            {
              "internalType": "address",
              "name": "target",
              "type": "address"
            },
            {
              "internalType": "address",
              "name": "driver",
              "type": "address"
            },
            {
              "internalType": "uint256",
              "name": "occur",
              "type": "uint256"
            },
            {
              "internalType": "uint256",
              "name": "start",
              "type": "uint256"
            },
            {
              "internalType": "uint256",
              "name": "end",
              "type": "uint256"
            },
            {
              "internalType": "uint16",
              "name": "paid",
              "type": "uint16"
            },
            {
              "internalType": "bool",
              "name": "pay_completed",
              "type": "bool"
            },
            {
              "internalType": "bool",
              "name": "cancelled",
              "type": "bool"
            },
            {
              "internalType": "string",
              "name": "start_point",
              "type": "string"
            },
            {
              "internalType": "string",
              "name": "dest_point",
              "type": "string"
            }
          ],
          "internalType": "struct TaxiTxRx.Reservation",
          "name": "",
          "type": "tuple"
        }
      ],
      "stateMutability": "view",
      "type": "function",
      "constant": true
    },
    {
      "inputs": [
        {
          "internalType": "address",
          "name": "caller",
          "type": "address"
        }
      ],
      "name": "getReservationList",
      "outputs": [
        {
          "components": [
            {
              "internalType": "address",
              "name": "target",
              "type": "address"
            },
            {
              "internalType": "address",
              "name": "driver",
              "type": "address"
            },
            {
              "internalType": "uint256",
              "name": "occur",
              "type": "uint256"
            },
            {
              "internalType": "uint256",
              "name": "start",
              "type": "uint256"
            },
            {
              "internalType": "uint256",
              "name": "end",
              "type": "uint256"
            },
            {
              "internalType": "uint16",
              "name": "paid",
              "type": "uint16"
            },
            {
              "internalType": "bool",
              "name": "pay_completed",
              "type": "bool"
            },
            {
              "internalType": "bool",
              "name": "cancelled",
              "type": "bool"
            },
            {
              "internalType": "string",
              "name": "start_point",
              "type": "string"
            },
            {
              "internalType": "string",
              "name": "dest_point",
              "type": "string"
            }
          ],
          "internalType": "struct TaxiTxRx.Reservation[]",
          "name": "",
          "type": "tuple[]"
        }
      ],
      "stateMutability": "view",
      "type": "function",
      "constant": true
    },
    {
      "inputs": [
        {
          "internalType": "string",
          "name": "phone_number",
          "type": "string"
        },
        {
          "internalType": "string",
          "name": "name",
          "type": "string"
        },
        {
          "internalType": "string",
          "name": "nickname",
          "type": "string"
        },
        {
          "internalType": "string",
          "name": "email",
          "type": "string"
        }
      ],
      "name": "addUser",
      "outputs": [],
      "stateMutability": "nonpayable",
      "type": "function"
    },
    {
      "inputs": [
        {
          "internalType": "string",
          "name": "sp",
          "type": "string"
        },
        {
          "internalType": "string",
          "name": "dp",
          "type": "string"
        }
      ],
      "name": "addReserv",
      "outputs": [],
      "stateMutability": "nonpayable",
      "type": "function"
    },
    {
      "inputs": [],
      "name": "cancelLastReserv",
      "outputs": [],
      "stateMutability": "nonpayable",
      "type": "function"
    },
    {
      "inputs": [],
      "name": "setPayCompleteLastReserv",
      "outputs": [],
      "stateMutability": "nonpayable",
      "type": "function"
    },
    {
      "inputs": [
        {
          "internalType": "address",
          "name": "caller",
          "type": "address"
        }
      ],
      "name": "getStringDriver",
      "outputs": [
        {
          "components": [
            {
              "internalType": "string",
              "name": "phone_number",
              "type": "string"
            },
            {
              "internalType": "string",
              "name": "car_number",
              "type": "string"
            },
            {
              "internalType": "string",
              "name": "name",
              "type": "string"
            },
            {
              "internalType": "string",
              "name": "nickname",
              "type": "string"
            },
            {
              "internalType": "string",
              "name": "email",
              "type": "string"
            },
            {
              "internalType": "address",
              "name": "target",
              "type": "address"
            },
            {
              "internalType": "bool",
              "name": "created",
              "type": "bool"
            },
            {
              "internalType": "bool",
              "name": "driving",
              "type": "bool"
            }
          ],
          "internalType": "struct TaxiTxRx.StringDriver",
          "name": "",
          "type": "tuple"
        }
      ],
      "stateMutability": "view",
      "type": "function",
      "constant": true
    },
    {
      "inputs": [
        {
          "internalType": "string",
          "name": "phone_number",
          "type": "string"
        },
        {
          "internalType": "string",
          "name": "car_number",
          "type": "string"
        },
        {
          "internalType": "string",
          "name": "name",
          "type": "string"
        },
        {
          "internalType": "string",
          "name": "nickname",
          "type": "string"
        },
        {
          "internalType": "string",
          "name": "email",
          "type": "string"
        }
      ],
      "name": "addDriver",
      "outputs": [],
      "stateMutability": "nonpayable",
      "type": "function"
    },
    {
      "inputs": [
        {
          "internalType": "address",
          "name": "target",
          "type": "address"
        }
      ],
      "name": "acceptReserv",
      "outputs": [],
      "stateMutability": "nonpayable",
      "type": "function"
    },
    {
      "inputs": [],
      "name": "checkInTaxi",
      "outputs": [],
      "stateMutability": "nonpayable",
      "type": "function"
    },
    {
      "inputs": [
        {
          "internalType": "uint16",
          "name": "paid",
          "type": "uint16"
        }
      ],
      "name": "checkOutTaxi",
      "outputs": [],
      "stateMutability": "nonpayable",
      "type": "function"
    },
    {
      "inputs": [
        {
          "components": [
            {
              "internalType": "bytes16",
              "name": "phone_number",
              "type": "bytes16"
            },
            {
              "internalType": "bytes32",
              "name": "name",
              "type": "bytes32"
            },
            {
              "internalType": "bytes32",
              "name": "nickname",
              "type": "bytes32"
            },
            {
              "internalType": "bytes32",
              "name": "email",
              "type": "bytes32"
            },
            {
              "internalType": "bool",
              "name": "created",
              "type": "bool"
            }
          ],
          "internalType": "struct TaxiTxRx.User",
          "name": "x",
          "type": "tuple"
        }
      ],
      "name": "ToStringUser",
      "outputs": [
        {
          "components": [
            {
              "internalType": "string",
              "name": "phone_number",
              "type": "string"
            },
            {
              "internalType": "string",
              "name": "name",
              "type": "string"
            },
            {
              "internalType": "string",
              "name": "nickname",
              "type": "string"
            },
            {
              "internalType": "string",
              "name": "email",
              "type": "string"
            },
            {
              "internalType": "bool",
              "name": "created",
              "type": "bool"
            }
          ],
          "internalType": "struct TaxiTxRx.StringUser",
          "name": "",
          "type": "tuple"
        }
      ],
      "stateMutability": "pure",
      "type": "function",
      "constant": true
    },
    {
      "inputs": [
        {
          "components": [
            {
              "internalType": "bytes16",
              "name": "phone_number",
              "type": "bytes16"
            },
            {
              "internalType": "bytes16",
              "name": "car_number",
              "type": "bytes16"
            },
            {
              "internalType": "bytes32",
              "name": "name",
              "type": "bytes32"
            },
            {
              "internalType": "bytes32",
              "name": "nickname",
              "type": "bytes32"
            },
            {
              "internalType": "bytes32",
              "name": "email",
              "type": "bytes32"
            },
            {
              "internalType": "address",
              "name": "target",
              "type": "address"
            },
            {
              "internalType": "bool",
              "name": "created",
              "type": "bool"
            },
            {
              "internalType": "bool",
              "name": "driving",
              "type": "bool"
            }
          ],
          "internalType": "struct TaxiTxRx.Driver",
          "name": "x",
          "type": "tuple"
        }
      ],
      "name": "ToStringDriver",
      "outputs": [
        {
          "components": [
            {
              "internalType": "string",
              "name": "phone_number",
              "type": "string"
            },
            {
              "internalType": "string",
              "name": "car_number",
              "type": "string"
            },
            {
              "internalType": "string",
              "name": "name",
              "type": "string"
            },
            {
              "internalType": "string",
              "name": "nickname",
              "type": "string"
            },
            {
              "internalType": "string",
              "name": "email",
              "type": "string"
            },
            {
              "internalType": "address",
              "name": "target",
              "type": "address"
            },
            {
              "internalType": "bool",
              "name": "created",
              "type": "bool"
            },
            {
              "internalType": "bool",
              "name": "driving",
              "type": "bool"
            }
          ],
          "internalType": "struct TaxiTxRx.StringDriver",
          "name": "",
          "type": "tuple"
        }
      ],
      "stateMutability": "pure",
      "type": "function",
      "constant": true
    }
  ],
  "bytecode": "0x608060405234801561001057600080fd5b50336000806101000a81548173ffffffffffffffffffffffffffffffffffffffff021916908373ffffffffffffffffffffffffffffffffffffffff160217905550613fba806100606000396000f3fe608060405234801561001057600080fd5b50600436106101165760003560e01c806388372f86116100a2578063a87430ba11610071578063a87430ba14610313578063ab4a9d5414610347578063b23a62f914610363578063b9e5312a1461036d578063e2e1d18b1461039d57610116565b806388372f86146102795780638da5cb5b146102a95780639e23195c146102c7578063a79a3671146102e357610116565b80633410671d116100e95780633410671d1461019f57806343860167146101a95780634aa60186146101d9578063823c63f214610210578063863eb5c91461024957610116565b806301cda3ac1461011b57806303c0b57e146101375780631522d75b146101535780632a1e0b781461016f575b600080fd5b61013560048036038101906101309190612fa1565b6103a7565b005b610151600480360381019061014c9190613078565b61051a565b005b61016d600480360381019061016891906131b9565b61076c565b005b61018960048036038101906101849190613244565b610af0565b604051610196919061342c565b60405180910390f35b6101a7610e62565b005b6101c360048036038101906101be9190613244565b6111fb565b6040516101d0919061351a565b60405180910390f35b6101f360048036038101906101ee9190613244565b6113e1565b6040516102079897969594939291906135ae565b60405180910390f35b61022a60048036038101906102259190613658565b61147d565b6040516102409a99989796959493929190613700565b60405180910390f35b610263600480360381019061025e91906138bf565b611666565b6040516102709190613977565b60405180910390f35b610293600480360381019061028e9190613a63565b6116e7565b6040516102a0919061351a565b60405180910390f35b6102b16117cd565b6040516102be9190613a91565b60405180910390f35b6102e160048036038101906102dc9190613244565b6117f1565b005b6102fd60048036038101906102f89190613244565b611a87565b60405161030a9190613c4f565b60405180910390f35b61032d60048036038101906103289190613244565b611dca565b60405161033e959493929190613c71565b60405180910390f35b610361600480360381019061035c9190613cc4565b611e1a565b005b61036b612192565b005b61038760048036038101906103829190613244565b6124be565b6040516103949190613977565b60405180910390f35b6103a56125f5565b005b60001515600160003373ffffffffffffffffffffffffffffffffffffffff1673ffffffffffffffffffffffffffffffffffffffff16815260200190815260200160002060040160009054906101000a900460ff1615151461040757600080fd5b6040518060a0016040528061041b866127d5565b6fffffffffffffffffffffffffffffffff1916815260200161043c856127e8565b815260200161044a846127e8565b8152602001610458836127e8565b815260200160011515815250600160003373ffffffffffffffffffffffffffffffffffffffff1673ffffffffffffffffffffffffffffffffffffffff16815260200190815260200160002060008201518160000160006101000a8154816fffffffffffffffffffffffffffffffff021916908360801c021790555060208201518160010155604082015181600201556060820151816003015560808201518160040160006101000a81548160ff02191690831515021790555090505050505050565b60001515600260003373ffffffffffffffffffffffffffffffffffffffff1673ffffffffffffffffffffffffffffffffffffffff16815260200190815260200160002060040160149054906101000a900460ff1615151461057a57600080fd5b60405180610100016040528061058f876127d5565b6fffffffffffffffffffffffffffffffff191681526020016105b0866127d5565b6fffffffffffffffffffffffffffffffff191681526020016105d1856127e8565b81526020016105df846127e8565b81526020016105ed836127e8565b81526020013373ffffffffffffffffffffffffffffffffffffffff16815260200160011515815260200160001515815250600260003373ffffffffffffffffffffffffffffffffffffffff1673ffffffffffffffffffffffffffffffffffffffff16815260200190815260200160002060008201518160000160006101000a8154816fffffffffffffffffffffffffffffffff021916908360801c021790555060208201518160000160106101000a8154816fffffffffffffffffffffffffffffffff021916908360801c021790555060408201518160010155606082015181600201556080820151816003015560a08201518160040160006101000a81548173ffffffffffffffffffffffffffffffffffffffff021916908373ffffffffffffffffffffffffffffffffffffffff16021790555060c08201518160040160146101000a81548160ff02191690831515021790555060e08201518160040160156101000a81548160ff0219169083151502179055509050505050505050565b60011515600260003373ffffffffffffffffffffffffffffffffffffffff1673ffffffffffffffffffffffffffffffffffffffff16815260200190815260200160002060040160149054906101000a900460ff16151514801561081b5750600260003373ffffffffffffffffffffffffffffffffffffffff1673ffffffffffffffffffffffffffffffffffffffff16815260200190815260200160002060040160159054906101000a900460ff165b61082457600080fd5b6000600260003373ffffffffffffffffffffffffffffffffffffffff1673ffffffffffffffffffffffffffffffffffffffff168152602001908152602001600020604051806101000160405290816000820160009054906101000a900460801b6fffffffffffffffffffffffffffffffff19166fffffffffffffffffffffffffffffffff191681526020016000820160109054906101000a900460801b6fffffffffffffffffffffffffffffffff19166fffffffffffffffffffffffffffffffff191681526020016001820154815260200160028201548152602001600382015481526020016004820160009054906101000a900473ffffffffffffffffffffffffffffffffffffffff1673ffffffffffffffffffffffffffffffffffffffff1673ffffffffffffffffffffffffffffffffffffffff1681526020016004820160149054906101000a900460ff161515151581526020016004820160159054906101000a900460ff161515151581525050905060008160a00151905060011515600160008373ffffffffffffffffffffffffffffffffffffffff1673ffffffffffffffffffffffffffffffffffffffff16815260200190815260200160002060040160009054906101000a900460ff161515148015610a4557506000600360008373ffffffffffffffffffffffffffffffffffffffff1673ffffffffffffffffffffffffffffffffffffffff16815260200190815260200160002080549050115b610a4e57600080fd5b6000610a59826127fb565b9050428160040181905550838160050160006101000a81548161ffff021916908361ffff1602179055508060000160009054906101000a900473ffffffffffffffffffffffffffffffffffffffff1673ffffffffffffffffffffffffffffffffffffffff167f21babe125c5c1c150251f23a193b80984b331789fe193b4bd254674cafc9cbb160405160405180910390a250505050565b610af8612c4d565b60011515600160008473ffffffffffffffffffffffffffffffffffffffff1673ffffffffffffffffffffffffffffffffffffffff16815260200190815260200160002060040160009054906101000a900460ff16151514610b5857600080fd5b6000600360008473ffffffffffffffffffffffffffffffffffffffff1673ffffffffffffffffffffffffffffffffffffffff168152602001908152602001600020805490509050600360008473ffffffffffffffffffffffffffffffffffffffff1673ffffffffffffffffffffffffffffffffffffffff168152602001908152602001600020600182610beb9190613d6b565b81548110610bfc57610bfb613d9f565b5b9060005260206000209060080201604051806101400160405290816000820160009054906101000a900473ffffffffffffffffffffffffffffffffffffffff1673ffffffffffffffffffffffffffffffffffffffff1673ffffffffffffffffffffffffffffffffffffffff1681526020016001820160009054906101000a900473ffffffffffffffffffffffffffffffffffffffff1673ffffffffffffffffffffffffffffffffffffffff1673ffffffffffffffffffffffffffffffffffffffff1681526020016002820154815260200160038201548152602001600482015481526020016005820160009054906101000a900461ffff1661ffff1661ffff1681526020016005820160029054906101000a900460ff161515151581526020016005820160039054906101000a900460ff16151515158152602001600682018054610d4690613dfd565b80601f0160208091040260200160405190810160405280929190818152602001828054610d7290613dfd565b8015610dbf5780601f10610d9457610100808354040283529160200191610dbf565b820191906000526020600020905b815481529060010190602001808311610da257829003601f168201915b50505050508152602001600782018054610dd890613dfd565b80601f0160208091040260200160405190810160405280929190818152602001828054610e0490613dfd565b8015610e515780601f10610e2657610100808354040283529160200191610e51565b820191906000526020600020905b815481529060010190602001808311610e3457829003601f168201915b505050505081525050915050919050565b60011515600160003373ffffffffffffffffffffffffffffffffffffffff1673ffffffffffffffffffffffffffffffffffffffff16815260200190815260200160002060040160009054906101000a900460ff161515148015610f1f57506000600360003373ffffffffffffffffffffffffffffffffffffffff1673ffffffffffffffffffffffffffffffffffffffff16815260200190815260200160002080549050118015610f1e57506000610f1833610af0565b60600151145b5b610f2857600080fd5b6000610f33336127fb565b90503373ffffffffffffffffffffffffffffffffffffffff168160010160009054906101000a900473ffffffffffffffffffffffffffffffffffffffff1673ffffffffffffffffffffffffffffffffffffffff1603611152576000600360008360000160009054906101000a900473ffffffffffffffffffffffffffffffffffffffff1673ffffffffffffffffffffffffffffffffffffffff1673ffffffffffffffffffffffffffffffffffffffff168152602001908152602001600020805490509050600360008360000160009054906101000a900473ffffffffffffffffffffffffffffffffffffffff1673ffffffffffffffffffffffffffffffffffffffff1673ffffffffffffffffffffffffffffffffffffffff1681526020019081526020016000206001826110679190613d6b565b8154811061107857611077613d9f565b5b9060005260206000209060080201600080820160006101000a81549073ffffffffffffffffffffffffffffffffffffffff02191690556001820160006101000a81549073ffffffffffffffffffffffffffffffffffffffff02191690556002820160009055600382016000905560048201600090556005820160006101000a81549061ffff02191690556005820160026101000a81549060ff02191690556005820160036101000a81549060ff021916905560068201600061113a9190612cd4565b60078201600061114a9190612cd4565b5050506111f8565b60018160050160036101000a81548160ff0219169083151502179055506103e88160050160006101000a81548161ffff021916908361ffff1602179055508060000160009054906101000a900473ffffffffffffffffffffffffffffffffffffffff1673ffffffffffffffffffffffffffffffffffffffff167ff3aa2fff284996e4fa38020c266c1d44b0d11899054a26f3d96dd8c46bdcc03a60405160405180910390a25b50565b611203612d14565b60011515600260008473ffffffffffffffffffffffffffffffffffffffff1673ffffffffffffffffffffffffffffffffffffffff16815260200190815260200160002060040160149054906101000a900460ff1615151461126357600080fd5b6113da600260008473ffffffffffffffffffffffffffffffffffffffff1673ffffffffffffffffffffffffffffffffffffffff168152602001908152602001600020604051806101000160405290816000820160009054906101000a900460801b6fffffffffffffffffffffffffffffffff19166fffffffffffffffffffffffffffffffff191681526020016000820160109054906101000a900460801b6fffffffffffffffffffffffffffffffff19166fffffffffffffffffffffffffffffffff191681526020016001820154815260200160028201548152602001600382015481526020016004820160009054906101000a900473ffffffffffffffffffffffffffffffffffffffff1673ffffffffffffffffffffffffffffffffffffffff1673ffffffffffffffffffffffffffffffffffffffff1681526020016004820160149054906101000a900460ff161515151581526020016004820160159054906101000a900460ff1615151515815250506116e7565b9050919050565b60026020528060005260406000206000915090508060000160009054906101000a900460801b908060000160109054906101000a900460801b908060010154908060020154908060030154908060040160009054906101000a900473ffffffffffffffffffffffffffffffffffffffff16908060040160149054906101000a900460ff16908060040160159054906101000a900460ff16905088565b6003602052816000526040600020818154811061149957600080fd5b9060005260206000209060080201600091509150508060000160009054906101000a900473ffffffffffffffffffffffffffffffffffffffff16908060010160009054906101000a900473ffffffffffffffffffffffffffffffffffffffff16908060020154908060030154908060040154908060050160009054906101000a900461ffff16908060050160029054906101000a900460ff16908060050160039054906101000a900460ff169080600601805461155590613dfd565b80601f016020809104026020016040519081016040528092919081815260200182805461158190613dfd565b80156115ce5780601f106115a3576101008083540402835291602001916115ce565b820191906000526020600020905b8154815290600101906020018083116115b157829003601f168201915b5050505050908060070180546115e390613dfd565b80601f016020809104026020016040519081016040528092919081815260200182805461160f90613dfd565b801561165c5780601f106116315761010080835404028352916020019161165c565b820191906000526020600020905b81548152906001019060200180831161163f57829003601f168201915b505050505090508a565b61166e612d73565b611676612d73565b6116838360000151612917565b81600001819052506116988360200151612ab2565b81602001819052506116ad8360400151612ab2565b81604001819052506116c28360600151612ab2565b8160600181905250826080015181608001901515908115158152505080915050919050565b6116ef612d14565b6116f7612d14565b6117048360000151612917565b81600001819052506117198360200151612917565b816020018190525061172e8360400151612ab2565b81604001819052506117438360600151612ab2565b81606001819052506117588360800151612ab2565b81608001819052508260a001518160a0019073ffffffffffffffffffffffffffffffffffffffff16908173ffffffffffffffffffffffffffffffffffffffff16815250508260e001518160e00190151590811515815250508260c001518160c001901515908115158152505080915050919050565b60008054906101000a900473ffffffffffffffffffffffffffffffffffffffff1681565b60011515600260003373ffffffffffffffffffffffffffffffffffffffff1673ffffffffffffffffffffffffffffffffffffffff16815260200190815260200160002060040160149054906101000a900460ff1615151480156118a7575060001515600260003373ffffffffffffffffffffffffffffffffffffffff1673ffffffffffffffffffffffffffffffffffffffff16815260200190815260200160002060040160159054906101000a900460ff161515145b6118b057600080fd5b60011515600160008373ffffffffffffffffffffffffffffffffffffffff1673ffffffffffffffffffffffffffffffffffffffff16815260200190815260200160002060040160009054906101000a900460ff16151514801561191f5750600061191982610af0565b60600151145b61192857600080fd5b6000600260003373ffffffffffffffffffffffffffffffffffffffff1673ffffffffffffffffffffffffffffffffffffffff1681526020019081526020016000209050818160040160006101000a81548173ffffffffffffffffffffffffffffffffffffffff021916908373ffffffffffffffffffffffffffffffffffffffff16021790555060018160040160156101000a81548160ff02191690831515021790555060006119d6836127fb565b9050338160010160006101000a81548173ffffffffffffffffffffffffffffffffffffffff021916908373ffffffffffffffffffffffffffffffffffffffff1602179055508060000160009054906101000a900473ffffffffffffffffffffffffffffffffffffffff1673ffffffffffffffffffffffffffffffffffffffff167f36e4768d656c049e2c7118f34be11c06bd41d1ef4f2ad404c82f0ba280f6784f60405160405180910390a2505050565b606060011515600160008473ffffffffffffffffffffffffffffffffffffffff1673ffffffffffffffffffffffffffffffffffffffff16815260200190815260200160002060040160009054906101000a900460ff16151514611ae957600080fd5b600360008373ffffffffffffffffffffffffffffffffffffffff1673ffffffffffffffffffffffffffffffffffffffff168152602001908152602001600020805480602002602001604051908101604052809291908181526020016000905b82821015611dbf5783829060005260206000209060080201604051806101400160405290816000820160009054906101000a900473ffffffffffffffffffffffffffffffffffffffff1673ffffffffffffffffffffffffffffffffffffffff1673ffffffffffffffffffffffffffffffffffffffff1681526020016001820160009054906101000a900473ffffffffffffffffffffffffffffffffffffffff1673ffffffffffffffffffffffffffffffffffffffff1673ffffffffffffffffffffffffffffffffffffffff1681526020016002820154815260200160038201548152602001600482015481526020016005820160009054906101000a900461ffff1661ffff1661ffff1681526020016005820160029054906101000a900460ff161515151581526020016005820160039054906101000a900460ff16151515158152602001600682018054611c9c90613dfd565b80601f0160208091040260200160405190810160405280929190818152602001828054611cc890613dfd565b8015611d155780601f10611cea57610100808354040283529160200191611d15565b820191906000526020600020905b815481529060010190602001808311611cf857829003601f168201915b50505050508152602001600782018054611d2e90613dfd565b80601f0160208091040260200160405190810160405280929190818152602001828054611d5a90613dfd565b8015611da75780601f10611d7c57610100808354040283529160200191611da7565b820191906000526020600020905b815481529060010190602001808311611d8a57829003601f168201915b50505050508152505081526020019060010190611b48565b505050509050919050565b60016020528060005260406000206000915090508060000160009054906101000a900460801b908060010154908060020154908060030154908060040160009054906101000a900460ff16905085565b60011515600160003373ffffffffffffffffffffffffffffffffffffffff1673ffffffffffffffffffffffffffffffffffffffff16815260200190815260200160002060040160009054906101000a900460ff16151514611e7a57600080fd5b6000600360003373ffffffffffffffffffffffffffffffffffffffff1673ffffffffffffffffffffffffffffffffffffffff168152602001908152602001600020805490501480611f2557506000600360003373ffffffffffffffffffffffffffffffffffffffff1673ffffffffffffffffffffffffffffffffffffffff16815260200190815260200160002080549050118015611f2457506000611f1e33610af0565b60400151145b5b611f2e57600080fd5b600360003373ffffffffffffffffffffffffffffffffffffffff1673ffffffffffffffffffffffffffffffffffffffff1681526020019081526020016000206040518061014001604052803373ffffffffffffffffffffffffffffffffffffffff1681526020013373ffffffffffffffffffffffffffffffffffffffff1681526020014281526020016000815260200160008152602001600061ffff16815260200160001515815260200160001515815260200184815260200183815250908060018154018082558091505060019003906000526020600020906008020160009091909190915060008201518160000160006101000a81548173ffffffffffffffffffffffffffffffffffffffff021916908373ffffffffffffffffffffffffffffffffffffffff16021790555060208201518160010160006101000a81548173ffffffffffffffffffffffffffffffffffffffff021916908373ffffffffffffffffffffffffffffffffffffffff16021790555060408201518160020155606082015181600301556080820151816004015560a08201518160050160006101000a81548161ffff021916908361ffff16021790555060c08201518160050160026101000a81548160ff02191690831515021790555060e08201518160050160036101000a81548160ff021916908315150217905550610100820151816006019080519060200190612141929190612da4565b5061012082015181600701908051906020019061215f929190612da4565b5050507fdd1c69d29c1b10da22392c5bb2c9fcde65af28becfb66b1fadf2d41fc84c599760405160405180910390a15050565b60011515600260003373ffffffffffffffffffffffffffffffffffffffff1673ffffffffffffffffffffffffffffffffffffffff16815260200190815260200160002060040160149054906101000a900460ff1615151480156122415750600260003373ffffffffffffffffffffffffffffffffffffffff1673ffffffffffffffffffffffffffffffffffffffff16815260200190815260200160002060040160159054906101000a900460ff165b61224a57600080fd5b6000600260003373ffffffffffffffffffffffffffffffffffffffff1673ffffffffffffffffffffffffffffffffffffffff168152602001908152602001600020604051806101000160405290816000820160009054906101000a900460801b6fffffffffffffffffffffffffffffffff19166fffffffffffffffffffffffffffffffff191681526020016000820160109054906101000a900460801b6fffffffffffffffffffffffffffffffff19166fffffffffffffffffffffffffffffffff191681526020016001820154815260200160028201548152602001600382015481526020016004820160009054906101000a900473ffffffffffffffffffffffffffffffffffffffff1673ffffffffffffffffffffffffffffffffffffffff1673ffffffffffffffffffffffffffffffffffffffff1681526020016004820160149054906101000a900460ff161515151581526020016004820160159054906101000a900460ff161515151581525050905060008160a00151905060011515600160008373ffffffffffffffffffffffffffffffffffffffff1673ffffffffffffffffffffffffffffffffffffffff16815260200190815260200160002060040160009054906101000a900460ff16151514801561243957506000151561243182610af0565b60e001511515145b80156124515750600061244b82610af0565b60600151145b61245a57600080fd5b42612464826127fb565b6003018190555061247481610af0565b6000015173ffffffffffffffffffffffffffffffffffffffff167f82e5b65aeb83b3617124292be93a7628109935d45e1177d8a721401af830f42860405160405180910390a25050565b6124c6612d73565b60011515600160008473ffffffffffffffffffffffffffffffffffffffff1673ffffffffffffffffffffffffffffffffffffffff16815260200190815260200160002060040160009054906101000a900460ff1615151461252657600080fd5b6125ee600160008473ffffffffffffffffffffffffffffffffffffffff1673ffffffffffffffffffffffffffffffffffffffff1681526020019081526020016000206040518060a00160405290816000820160009054906101000a900460801b6fffffffffffffffffffffffffffffffff19166fffffffffffffffffffffffffffffffff191681526020016001820154815260200160028201548152602001600382015481526020016004820160009054906101000a900460ff161515151581525050611666565b9050919050565b60011515600160003373ffffffffffffffffffffffffffffffffffffffff1673ffffffffffffffffffffffffffffffffffffffff16815260200190815260200160002060040160009054906101000a900460ff1615151480156126b357506000600360003373ffffffffffffffffffffffffffffffffffffffff1673ffffffffffffffffffffffffffffffffffffffff168152602001908152602001600020805490501180156126b2575060006126ab33610af0565b6080015114155b5b6126bc57600080fd5b60006126c7336127fb565b905060018160050160026101000a81548160ff0219169083151502179055506000600260008360010160009054906101000a900473ffffffffffffffffffffffffffffffffffffffff1673ffffffffffffffffffffffffffffffffffffffff1673ffffffffffffffffffffffffffffffffffffffff168152602001908152602001600020905060008160040160156101000a81548160ff0219169083151502179055508160000160009054906101000a900473ffffffffffffffffffffffffffffffffffffffff1673ffffffffffffffffffffffffffffffffffffffff167fffc23527451ba78650f0fb3d77903307a21a4d95bc670d4363793b3de9d44cc760405160405180910390a25050565b6000816127e190613e6b565b9050919050565b6000816127f490613ee7565b9050919050565b600060011515600160008473ffffffffffffffffffffffffffffffffffffffff1673ffffffffffffffffffffffffffffffffffffffff16815260200190815260200160002060040160009054906101000a900460ff1615151461285d57600080fd5b6000600360008473ffffffffffffffffffffffffffffffffffffffff1673ffffffffffffffffffffffffffffffffffffffff168152602001908152602001600020805490509050600360008473ffffffffffffffffffffffffffffffffffffffff1673ffffffffffffffffffffffffffffffffffffffff1681526020019081526020016000206001826128f09190613d6b565b8154811061290157612900613d9f565b5b9060005260206000209060080201915050919050565b606060005b60108160ff1610801561296e5750600060f81b838260ff166010811061294557612944613d9f565b5b1a60f81b7effffffffffffffffffffffffffffffffffffffffffffffffffffffffffffff191614155b1561298657808061297e90613f5b565b91505061291c565b60008160ff1667ffffffffffffffff8111156129a5576129a4612e76565b5b6040519080825280601f01601f1916602001820160405280156129d75781602001600182028036833780820191505090505b509050600091505b60108260ff16108015612a315750600060f81b848360ff1660108110612a0857612a07613d9f565b5b1a60f81b7effffffffffffffffffffffffffffffffffffffffffffffffffffffffffffff191614155b15612aa857838260ff1660108110612a4c57612a4b613d9f565b5b1a60f81b818360ff1681518110612a6657612a65613d9f565b5b60200101907effffffffffffffffffffffffffffffffffffffffffffffffffffffffffffff1916908160001a9053508180612aa090613f5b565b9250506129df565b8092505050919050565b606060005b60208160ff16108015612b095750600060f81b838260ff1660208110612ae057612adf613d9f565b5b1a60f81b7effffffffffffffffffffffffffffffffffffffffffffffffffffffffffffff191614155b15612b21578080612b1990613f5b565b915050612ab7565b60008160ff1667ffffffffffffffff811115612b4057612b3f612e76565b5b6040519080825280601f01601f191660200182016040528015612b725781602001600182028036833780820191505090505b509050600091505b60208260ff16108015612bcc5750600060f81b848360ff1660208110612ba357612ba2613d9f565b5b1a60f81b7effffffffffffffffffffffffffffffffffffffffffffffffffffffffffffff191614155b15612c4357838260ff1660208110612be757612be6613d9f565b5b1a60f81b818360ff1681518110612c0157612c00613d9f565b5b60200101907effffffffffffffffffffffffffffffffffffffffffffffffffffffffffffff1916908160001a9053508180612c3b90613f5b565b925050612b7a565b8092505050919050565b604051806101400160405280600073ffffffffffffffffffffffffffffffffffffffff168152602001600073ffffffffffffffffffffffffffffffffffffffff168152602001600081526020016000815260200160008152602001600061ffff16815260200160001515815260200160001515815260200160608152602001606081525090565b508054612ce090613dfd565b6000825580601f10612cf25750612d11565b601f016020900490600052602060002090810190612d109190612e2a565b5b50565b6040518061010001604052806060815260200160608152602001606081526020016060815260200160608152602001600073ffffffffffffffffffffffffffffffffffffffff1681526020016000151581526020016000151581525090565b6040518060a00160405280606081526020016060815260200160608152602001606081526020016000151581525090565b828054612db090613dfd565b90600052602060002090601f016020900481019282612dd25760008555612e19565b82601f10612deb57805160ff1916838001178555612e19565b82800160010185558215612e19579182015b82811115612e18578251825591602001919060010190612dfd565b5b509050612e269190612e2a565b5090565b5b80821115612e43576000816000905550600101612e2b565b5090565b6000604051905090565b600080fd5b600080fd5b600080fd5b600080fd5b6000601f19601f8301169050919050565b7f4e487b7100000000000000000000000000000000000000000000000000000000600052604160045260246000fd5b612eae82612e65565b810181811067ffffffffffffffff82111715612ecd57612ecc612e76565b5b80604052505050565b6000612ee0612e47565b9050612eec8282612ea5565b919050565b600067ffffffffffffffff821115612f0c57612f0b612e76565b5b612f1582612e65565b9050602081019050919050565b82818337600083830152505050565b6000612f44612f3f84612ef1565b612ed6565b905082815260208101848484011115612f6057612f5f612e60565b5b612f6b848285612f22565b509392505050565b600082601f830112612f8857612f87612e5b565b5b8135612f98848260208601612f31565b91505092915050565b60008060008060808587031215612fbb57612fba612e51565b5b600085013567ffffffffffffffff811115612fd957612fd8612e56565b5b612fe587828801612f73565b945050602085013567ffffffffffffffff81111561300657613005612e56565b5b61301287828801612f73565b935050604085013567ffffffffffffffff81111561303357613032612e56565b5b61303f87828801612f73565b925050606085013567ffffffffffffffff8111156130605761305f612e56565b5b61306c87828801612f73565b91505092959194509250565b600080600080600060a0868803121561309457613093612e51565b5b600086013567ffffffffffffffff8111156130b2576130b1612e56565b5b6130be88828901612f73565b955050602086013567ffffffffffffffff8111156130df576130de612e56565b5b6130eb88828901612f73565b945050604086013567ffffffffffffffff81111561310c5761310b612e56565b5b61311888828901612f73565b935050606086013567ffffffffffffffff81111561313957613138612e56565b5b61314588828901612f73565b925050608086013567ffffffffffffffff81111561316657613165612e56565b5b61317288828901612f73565b9150509295509295909350565b600061ffff82169050919050565b6131968161317f565b81146131a157600080fd5b50565b6000813590506131b38161318d565b92915050565b6000602082840312156131cf576131ce612e51565b5b60006131dd848285016131a4565b91505092915050565b600073ffffffffffffffffffffffffffffffffffffffff82169050919050565b6000613211826131e6565b9050919050565b61322181613206565b811461322c57600080fd5b50565b60008135905061323e81613218565b92915050565b60006020828403121561325a57613259612e51565b5b60006132688482850161322f565b91505092915050565b61327a81613206565b82525050565b6000819050919050565b61329381613280565b82525050565b6132a28161317f565b82525050565b60008115159050919050565b6132bd816132a8565b82525050565b600081519050919050565b600082825260208201905092915050565b60005b838110156132fd5780820151818401526020810190506132e2565b8381111561330c576000848401525b50505050565b600061331d826132c3565b61332781856132ce565b93506133378185602086016132df565b61334081612e65565b840191505092915050565b6000610140830160008301516133646000860182613271565b5060208301516133776020860182613271565b50604083015161338a604086018261328a565b50606083015161339d606086018261328a565b5060808301516133b0608086018261328a565b5060a08301516133c360a0860182613299565b5060c08301516133d660c08601826132b4565b5060e08301516133e960e08601826132b4565b506101008301518482036101008601526134038282613312565b91505061012083015184820361012086015261341f8282613312565b9150508091505092915050565b60006020820190508181036000830152613446818461334b565b905092915050565b600061010083016000830151848203600086015261346c8282613312565b915050602083015184820360208601526134868282613312565b915050604083015184820360408601526134a08282613312565b915050606083015184820360608601526134ba8282613312565b915050608083015184820360808601526134d48282613312565b91505060a08301516134e960a0860182613271565b5060c08301516134fc60c08601826132b4565b5060e083015161350f60e08601826132b4565b508091505092915050565b60006020820190508181036000830152613534818461344e565b905092915050565b60007fffffffffffffffffffffffffffffffff0000000000000000000000000000000082169050919050565b6135718161353c565b82525050565b6000819050919050565b61358a81613577565b82525050565b61359981613206565b82525050565b6135a8816132a8565b82525050565b6000610100820190506135c4600083018b613568565b6135d1602083018a613568565b6135de6040830189613581565b6135eb6060830188613581565b6135f86080830187613581565b61360560a0830186613590565b61361260c083018561359f565b61361f60e083018461359f565b9998505050505050505050565b61363581613280565b811461364057600080fd5b50565b6000813590506136528161362c565b92915050565b6000806040838503121561366f5761366e612e51565b5b600061367d8582860161322f565b925050602061368e85828601613643565b9150509250929050565b6136a181613280565b82525050565b6136b08161317f565b82525050565b600082825260208201905092915050565b60006136d2826132c3565b6136dc81856136b6565b93506136ec8185602086016132df565b6136f581612e65565b840191505092915050565b600061014082019050613716600083018d613590565b613723602083018c613590565b613730604083018b613698565b61373d606083018a613698565b61374a6080830189613698565b61375760a08301886136a7565b61376460c083018761359f565b61377160e083018661359f565b81810361010083015261378481856136c7565b905081810361012083015261379981846136c7565b90509b9a5050505050505050505050565b600080fd5b6137b88161353c565b81146137c357600080fd5b50565b6000813590506137d5816137af565b92915050565b6137e481613577565b81146137ef57600080fd5b50565b600081359050613801816137db565b92915050565b613810816132a8565b811461381b57600080fd5b50565b60008135905061382d81613807565b92915050565b600060a08284031215613849576138486137aa565b5b61385360a0612ed6565b90506000613863848285016137c6565b6000830152506020613877848285016137f2565b602083015250604061388b848285016137f2565b604083015250606061389f848285016137f2565b60608301525060806138b38482850161381e565b60808301525092915050565b600060a082840312156138d5576138d4612e51565b5b60006138e384828501613833565b91505092915050565b600060a08301600083015184820360008601526139098282613312565b915050602083015184820360208601526139238282613312565b9150506040830151848203604086015261393d8282613312565b915050606083015184820360608601526139578282613312565b915050608083015161396c60808601826132b4565b508091505092915050565b6000602082019050818103600083015261399181846138ec565b905092915050565b600061010082840312156139b0576139af6137aa565b5b6139bb610100612ed6565b905060006139cb848285016137c6565b60008301525060206139df848285016137c6565b60208301525060406139f3848285016137f2565b6040830152506060613a07848285016137f2565b6060830152506080613a1b848285016137f2565b60808301525060a0613a2f8482850161322f565b60a08301525060c0613a438482850161381e565b60c08301525060e0613a578482850161381e565b60e08301525092915050565b60006101008284031215613a7a57613a79612e51565b5b6000613a8884828501613999565b91505092915050565b6000602082019050613aa66000830184613590565b92915050565b600081519050919050565b600082825260208201905092915050565b6000819050602082019050919050565b600061014083016000830151613af16000860182613271565b506020830151613b046020860182613271565b506040830151613b17604086018261328a565b506060830151613b2a606086018261328a565b506080830151613b3d608086018261328a565b5060a0830151613b5060a0860182613299565b5060c0830151613b6360c08601826132b4565b5060e0830151613b7660e08601826132b4565b50610100830151848203610100860152613b908282613312565b915050610120830151848203610120860152613bac8282613312565b9150508091505092915050565b6000613bc58383613ad8565b905092915050565b6000602082019050919050565b6000613be582613aac565b613bef8185613ab7565b935083602082028501613c0185613ac8565b8060005b85811015613c3d5784840389528151613c1e8582613bb9565b9450613c2983613bcd565b925060208a01995050600181019050613c05565b50829750879550505050505092915050565b60006020820190508181036000830152613c698184613bda565b905092915050565b600060a082019050613c866000830188613568565b613c936020830187613581565b613ca06040830186613581565b613cad6060830185613581565b613cba608083018461359f565b9695505050505050565b60008060408385031215613cdb57613cda612e51565b5b600083013567ffffffffffffffff811115613cf957613cf8612e56565b5b613d0585828601612f73565b925050602083013567ffffffffffffffff811115613d2657613d25612e56565b5b613d3285828601612f73565b9150509250929050565b7f4e487b7100000000000000000000000000000000000000000000000000000000600052601160045260246000fd5b6000613d7682613280565b9150613d8183613280565b925082821015613d9457613d93613d3c565b5b828203905092915050565b7f4e487b7100000000000000000000000000000000000000000000000000000000600052603260045260246000fd5b7f4e487b7100000000000000000000000000000000000000000000000000000000600052602260045260246000fd5b60006002820490506001821680613e1557607f821691505b602082108103613e2857613e27613dce565b5b50919050565b600081519050919050565b6000819050602082019050919050565b6000613e55825161353c565b80915050919050565b600082821b905092915050565b6000613e7682613e2e565b82613e8084613e39565b9050613e8b81613e49565b92506010821015613ecb57613ec67fffffffffffffffffffffffffffffffff0000000000000000000000000000000083601003600802613e5e565b831692505b5050919050565b6000613ede8251613577565b80915050919050565b6000613ef282613e2e565b82613efc84613e39565b9050613f0781613ed2565b92506020821015613f4757613f427fffffffffffffffffffffffffffffffffffffffffffffffffffffffffffffffff83602003600802613e5e565b831692505b5050919050565b600060ff82169050919050565b6000613f6682613f4e565b915060ff8203613f7957613f78613d3c565b5b60018201905091905056fea26469706673582212208b659152de5e380e828709fd5d48883ca67bf611a00ace0f50055d4a9239712064736f6c634300080e0033",
  "immutableReferences": {},
  "source": "// SPDX-License-Identifier: GPL-3.0\r\npragma solidity >=0.7.0 <0.9.0;\r\n\r\ncontract TaxiTxRx {\r\n    struct Reservation{\r\n        address target; //  \r\n        address driver; //  \r\n        uint occur; //   (timestamp)\r\n        uint start; //  \r\n        uint end; //  \r\n        uint16 paid; // \r\n        bool pay_completed; // \r\n        bool cancelled; // \r\n        string start_point; // \r\n        string dest_point;  // \r\n    }\r\n\r\n\r\n    struct User{\r\n        bytes16 phone_number; // \r\n        bytes32 name; // \r\n        bytes32 nickname; // \r\n        bytes32 email; // \r\n        bool created; // \r\n    }\r\n\r\n    struct Driver{\r\n        bytes16 phone_number; // \r\n        bytes16 car_number; // \r\n        bytes32 name; // \r\n        bytes32 nickname; // \r\n        bytes32 email; // \r\n        address target; //   \r\n        bool created; // \r\n        bool driving; // \r\n    }\r\n\r\n    struct StringUser{\r\n        string phone_number;\r\n        string name;\r\n        string nickname;\r\n        string email;\r\n        bool created;\r\n    }\r\n\r\n    struct StringDriver{\r\n        string phone_number; // \r\n        string car_number; // \r\n        string name; // \r\n        string nickname; // \r\n        string email; // \r\n        address target; //   \r\n        bool created; // \r\n        bool driving; // \r\n    }\r\n\r\n\r\n    event addReservEvent();\r\n    event acceptReservEvent(address indexed addr);\r\n    event checkInTaxiEvent(address indexed addr);\r\n    event checkOutTaxiEvent(address indexed addr);\r\n    event cancelLastReservEvent(address indexed addr);\r\n    event payCompleteEvent(address indexed addr);\r\n\r\n    address public owner; //  \r\n\r\n    mapping (address => User) public users; //  \r\n    mapping (address => Driver) public drivers; //  \r\n    mapping (address => Reservation[]) public user_reservs; //  \r\n\r\n    constructor(){\r\n        owner = msg.sender;\r\n    }\r\n\r\n\r\n    //   .\r\n    function getStringUser(address caller) public view returns (StringUser memory){\r\n        require(users[caller].created == true);\r\n        return ToStringUser(users[caller]);\r\n    }\r\n\r\n    //    .    . ( )\r\n    function getLastReservation(address caller) public view returns (Reservation memory){\r\n        require(users[caller].created == true);\r\n        uint size = user_reservs[caller].length;\r\n        return user_reservs[caller][size-1];\r\n    }\r\n\r\n    //    . ( )\r\n    function _getLastReservation(address caller) internal view returns (Reservation storage){\r\n        require(users[caller].created == true);\r\n        uint size = user_reservs[caller].length;\r\n        return user_reservs[caller][size-1];\r\n    }\r\n\r\n    //   . [  ]\r\n    function getReservationList(address caller) public view returns (Reservation[] memory) {\r\n        require(users[caller].created == true);\r\n        return user_reservs[caller];\r\n    }\r\n\r\n\r\n    //  . [  ]\r\n    function addUser(string memory phone_number, string memory name, string memory nickname, string memory email) public {\r\n        require(users[msg.sender].created == false);\r\n        users[msg.sender] = User(ToBytes16(phone_number), ToBytes32(name),ToBytes32(nickname), ToBytes32(email), true);\r\n        \r\n    }\r\n\r\n    //   [  ]\r\n    function addReserv(string memory sp, string memory dp) public {\r\n        require(users[msg.sender].created == true);\r\n        require(user_reservs[msg.sender].length == 0 || (user_reservs[msg.sender].length > 0 && getLastReservation(msg.sender).occur == 0));\r\n        user_reservs[msg.sender].push(Reservation(msg.sender, msg.sender, block.timestamp, 0, 0, 0, false, false, sp, dp));\r\n        emit addReservEvent();\r\n    }\r\n\r\n    //   [  ]\r\n    function cancelLastReserv() public {\r\n        require(users[msg.sender].created == true && (user_reservs[msg.sender].length > 0 && getLastReservation(msg.sender).start == 0));\r\n        Reservation storage last = _getLastReservation(msg.sender);\r\n        if (last.driver == msg.sender){\r\n            uint size = user_reservs[last.target].length;\r\n            delete user_reservs[last.target][size-1];\r\n        }else{\r\n            last.cancelled = true;\r\n            last.paid = 1000; // .\r\n            emit cancelLastReservEvent(last.target);\r\n        }\r\n    }\r\n\r\n    //   [  ]\r\n    function setPayCompleteLastReserv() public{\r\n        require(users[msg.sender].created == true && (user_reservs[msg.sender].length > 0 && getLastReservation(msg.sender).end != 0));\r\n        Reservation storage last = _getLastReservation(msg.sender);\r\n        last.pay_completed = true;\r\n        Driver storage driver = drivers[last.driver];\r\n        driver.driving = false;\r\n        emit payCompleteEvent(last.target);\r\n    }\r\n\r\n    //    [  ]\r\n    function getStringDriver(address caller) public view returns(StringDriver memory){\r\n        require(drivers[caller].created == true);\r\n        return ToStringDriver(drivers[caller]);\r\n    }\r\n    //   [  ]\r\n    function addDriver(string memory phone_number, string memory car_number, string memory name, string memory nickname, string memory email) public {\r\n        require(drivers[msg.sender].created == false);\r\n        drivers[msg.sender] = Driver(ToBytes16(phone_number), ToBytes16(car_number), ToBytes32(name), ToBytes32(nickname), ToBytes32(email),\r\n        msg.sender, true, false);\r\n        \r\n    }\r\n    //   [  ]\r\n    function acceptReserv(address target) public {\r\n        require(drivers[msg.sender].created == true && drivers[msg.sender].driving == false);\r\n        require(users[target].created == true && getLastReservation(target).start == 0);\r\n        Driver storage driver = drivers[msg.sender];\r\n        driver.target = target;\r\n        driver.driving = true;\r\n\r\n        Reservation storage last = _getLastReservation(target);\r\n        last.driver = msg.sender;\r\n\r\n        emit acceptReservEvent(last.target);\r\n    }\r\n    //   [  ]\r\n    function checkInTaxi() public {\r\n        require(drivers[msg.sender].created == true && drivers[msg.sender].driving);\r\n        Driver memory driver = drivers[msg.sender];\r\n        address caller = driver.target;\r\n\r\n        require(users[caller].created == true && getLastReservation(caller).cancelled == false && getLastReservation(caller).start == 0);\r\n        _getLastReservation(caller).start = block.timestamp;\r\n        emit checkInTaxiEvent(getLastReservation(caller).target);\r\n    }\r\n\r\n    //      [  ]\r\n    function checkOutTaxi(uint16 paid) public {\r\n        require(drivers[msg.sender].created == true && drivers[msg.sender].driving);\r\n        Driver memory driver = drivers[msg.sender];\r\n        address caller = driver.target;\r\n\r\n        require(users[caller].created == true && user_reservs[caller].length > 0);\r\n        Reservation storage last = _getLastReservation(caller);\r\n        last.end = block.timestamp; // \r\n        last.paid = paid;\r\n        emit checkOutTaxiEvent(last.target);\r\n    }\r\n    \r\n\r\n    function ToBytes32(string memory x) internal pure returns (bytes32){\r\n        return bytes32(bytes(x));\r\n    }\r\n\r\n    function ToBytes16(string memory x) internal pure returns (bytes16){\r\n        return bytes16(bytes(x));\r\n    } \r\n\r\n    function bytes16ToString(bytes16 _bytes16) internal pure returns (string memory) {\r\n        uint8 i = 0;\r\n        while(i < 16 && _bytes16[i] != 0) {\r\n            i++;\r\n        }\r\n        bytes memory bytesArray = new bytes(i);\r\n        for (i = 0; i < 16 && _bytes16[i] != 0; i++) {\r\n            bytesArray[i] = _bytes16[i];\r\n        }\r\n        return string(bytesArray);\r\n    }\r\n\r\n    function bytes32ToString(bytes32 _bytes32) internal pure returns (string memory) {\r\n        uint8 i = 0;\r\n        while(i < 32 && _bytes32[i] != 0) {\r\n            i++;\r\n        }\r\n        bytes memory bytesArray = new bytes(i);\r\n        for (i = 0; i < 32 && _bytes32[i] != 0; i++) {\r\n            bytesArray[i] = _bytes32[i];\r\n        }\r\n        return string(bytesArray);\r\n    }\r\n\r\n    function ToStringUser(User memory x) public pure returns (StringUser memory){\r\n        StringUser memory s_user;\r\n        s_user.phone_number = bytes16ToString(x.phone_number);\r\n        s_user.name = bytes32ToString(x.name);\r\n        s_user.nickname = bytes32ToString(x.nickname);\r\n        s_user.email = bytes32ToString(x.email);\r\n        s_user.created = x.created;\r\n        return s_user;\r\n    }\r\n\r\n    function ToStringDriver(Driver memory x) public pure returns (StringDriver memory){\r\n        StringDriver memory s_driver;\r\n        s_driver.phone_number = bytes16ToString(x.phone_number);\r\n        s_driver.car_number = bytes16ToString(x.car_number);\r\n        s_driver.name = bytes32ToString(x.name);\r\n        s_driver.nickname = bytes32ToString(x.nickname);\r\n        s_driver.email = bytes32ToString(x.email);\r\n        s_driver.target = x.target;\r\n        s_driver.driving = x.driving;\r\n        s_driver.created = x.created;\r\n        return s_driver;\r\n    }\r\n}",
  "sourcePath": "C:\\Users\\KangHyunWoo\\Documents\\VSCODE\\taxi_mmd2022\\contracts\\TaxiTxRx.sol",
  "compiler": {
    "name": "solc",
    "version": "0.8.14+commit.80d49f37.Emscripten.clang"
  },
  "schemaVersion": "3.4.7",
  "updatedAt": "2022-06-05T15:14:51.099Z",
  "networkType": "ethereum",
  "devdoc": {
    "kind": "dev",
    "methods": {},
    "version": 1
  },
  "userdoc": {
    "kind": "user",
    "methods": {},
    "version": 1
  }
}