{
  "contractName": "TaxiTxRx",
  "abi": [
    {
      "inputs": [],
      "stateMutability": "nonpayable",
      "type": "constructor"
    },
    {
      "anonymous": false,
      "inputs": [],
      "name": "addReservEvent",
      "type": "event"
    },
    {
      "anonymous": false,
      "inputs": [
        {
          "indexed": true,
          "internalType": "address",
          "name": "addr",
          "type": "address"
        }
      ],
      "name": "cancelLastReservEvent",
      "type": "event"
    },
    {
      "anonymous": false,
      "inputs": [
        {
          "indexed": true,
          "internalType": "address",
          "name": "addr",
          "type": "address"
        }
      ],
      "name": "checkInTaxiEvent",
      "type": "event"
    },
    {
      "anonymous": false,
      "inputs": [
        {
          "indexed": true,
          "internalType": "address",
          "name": "addr",
          "type": "address"
        }
      ],
      "name": "checkOutTaxiEvent",
      "type": "event"
    },
    {
      "anonymous": false,
      "inputs": [
        {
          "indexed": true,
          "internalType": "address",
          "name": "addr",
          "type": "address"
        }
      ],
      "name": "payCompleteEvent",
      "type": "event"
    },
    {
      "inputs": [],
      "name": "owner",
      "outputs": [
        {
          "internalType": "address",
          "name": "",
          "type": "address"
        }
      ],
      "stateMutability": "view",
      "type": "function",
      "constant": true
    },
    {
      "inputs": [
        {
          "internalType": "address",
          "name": "",
          "type": "address"
        }
      ],
      "name": "user_ranks",
      "outputs": [
        {
          "internalType": "enum TaxiTxRx.UserRank",
          "name": "",
          "type": "uint8"
        }
      ],
      "stateMutability": "view",
      "type": "function",
      "constant": true
    },
    {
      "inputs": [
        {
          "internalType": "address",
          "name": "",
          "type": "address"
        },
        {
          "internalType": "uint256",
          "name": "",
          "type": "uint256"
        }
      ],
      "name": "user_reservs",
      "outputs": [
        {
          "internalType": "address",
          "name": "target",
          "type": "address"
        },
        {
          "internalType": "uint256",
          "name": "occur",
          "type": "uint256"
        },
        {
          "internalType": "uint256",
          "name": "start",
          "type": "uint256"
        },
        {
          "internalType": "uint256",
          "name": "end",
          "type": "uint256"
        },
        {
          "internalType": "uint8",
          "name": "paid",
          "type": "uint8"
        },
        {
          "internalType": "bool",
          "name": "pay_completed",
          "type": "bool"
        },
        {
          "internalType": "bool",
          "name": "cancelled",
          "type": "bool"
        },
        {
          "internalType": "string",
          "name": "start_point",
          "type": "string"
        },
        {
          "internalType": "string",
          "name": "dest_point",
          "type": "string"
        }
      ],
      "stateMutability": "view",
      "type": "function",
      "constant": true
    },
    {
      "inputs": [
        {
          "internalType": "address",
          "name": "",
          "type": "address"
        }
      ],
      "name": "users",
      "outputs": [
        {
          "internalType": "string",
          "name": "phone_number",
          "type": "string"
        },
        {
          "internalType": "string",
          "name": "name",
          "type": "string"
        },
        {
          "internalType": "uint256",
          "name": "balance",
          "type": "uint256"
        },
        {
          "internalType": "bool",
          "name": "created",
          "type": "bool"
        }
      ],
      "stateMutability": "view",
      "type": "function",
      "constant": true
    },
    {
      "inputs": [
        {
          "internalType": "address",
          "name": "caller",
          "type": "address"
        }
      ],
      "name": "getBalance",
      "outputs": [
        {
          "internalType": "uint256",
          "name": "",
          "type": "uint256"
        }
      ],
      "stateMutability": "view",
      "type": "function",
      "constant": true
    },
    {
      "inputs": [
        {
          "internalType": "address",
          "name": "caller",
          "type": "address"
        }
      ],
      "name": "getUser",
      "outputs": [
        {
          "components": [
            {
              "internalType": "string",
              "name": "phone_number",
              "type": "string"
            },
            {
              "internalType": "string",
              "name": "name",
              "type": "string"
            },
            {
              "internalType": "uint256",
              "name": "balance",
              "type": "uint256"
            },
            {
              "internalType": "bool",
              "name": "created",
              "type": "bool"
            }
          ],
          "internalType": "struct TaxiTxRx.User",
          "name": "",
          "type": "tuple"
        }
      ],
      "stateMutability": "view",
      "type": "function",
      "constant": true
    },
    {
      "inputs": [
        {
          "internalType": "address",
          "name": "caller",
          "type": "address"
        }
      ],
      "name": "getReservationList",
      "outputs": [
        {
          "components": [
            {
              "internalType": "address",
              "name": "target",
              "type": "address"
            },
            {
              "internalType": "uint256",
              "name": "occur",
              "type": "uint256"
            },
            {
              "internalType": "uint256",
              "name": "start",
              "type": "uint256"
            },
            {
              "internalType": "uint256",
              "name": "end",
              "type": "uint256"
            },
            {
              "internalType": "uint8",
              "name": "paid",
              "type": "uint8"
            },
            {
              "internalType": "bool",
              "name": "pay_completed",
              "type": "bool"
            },
            {
              "internalType": "bool",
              "name": "cancelled",
              "type": "bool"
            },
            {
              "internalType": "string",
              "name": "start_point",
              "type": "string"
            },
            {
              "internalType": "string",
              "name": "dest_point",
              "type": "string"
            }
          ],
          "internalType": "struct TaxiTxRx.Reservation[]",
          "name": "",
          "type": "tuple[]"
        }
      ],
      "stateMutability": "view",
      "type": "function",
      "constant": true
    },
    {
      "inputs": [
        {
          "internalType": "address",
          "name": "caller",
          "type": "address"
        }
      ],
      "name": "getLastReservation",
      "outputs": [
        {
          "components": [
            {
              "internalType": "address",
              "name": "target",
              "type": "address"
            },
            {
              "internalType": "uint256",
              "name": "occur",
              "type": "uint256"
            },
            {
              "internalType": "uint256",
              "name": "start",
              "type": "uint256"
            },
            {
              "internalType": "uint256",
              "name": "end",
              "type": "uint256"
            },
            {
              "internalType": "uint8",
              "name": "paid",
              "type": "uint8"
            },
            {
              "internalType": "bool",
              "name": "pay_completed",
              "type": "bool"
            },
            {
              "internalType": "bool",
              "name": "cancelled",
              "type": "bool"
            },
            {
              "internalType": "string",
              "name": "start_point",
              "type": "string"
            },
            {
              "internalType": "string",
              "name": "dest_point",
              "type": "string"
            }
          ],
          "internalType": "struct TaxiTxRx.Reservation",
          "name": "",
          "type": "tuple"
        }
      ],
      "stateMutability": "view",
      "type": "function",
      "constant": true
    },
    {
      "inputs": [
        {
          "internalType": "string",
          "name": "phone_number",
          "type": "string"
        },
        {
          "internalType": "string",
          "name": "name",
          "type": "string"
        }
      ],
      "name": "addUser",
      "outputs": [],
      "stateMutability": "nonpayable",
      "type": "function"
    },
    {
      "inputs": [
        {
          "internalType": "string",
          "name": "sp",
          "type": "string"
        },
        {
          "internalType": "string",
          "name": "dp",
          "type": "string"
        }
      ],
      "name": "addReserv",
      "outputs": [],
      "stateMutability": "nonpayable",
      "type": "function"
    },
    {
      "inputs": [],
      "name": "checkInTaxi",
      "outputs": [],
      "stateMutability": "nonpayable",
      "type": "function"
    },
    {
      "inputs": [
        {
          "internalType": "uint8",
          "name": "paid",
          "type": "uint8"
        }
      ],
      "name": "checkOutTaxi",
      "outputs": [],
      "stateMutability": "nonpayable",
      "type": "function"
    },
    {
      "inputs": [],
      "name": "cancelLastReserv",
      "outputs": [],
      "stateMutability": "nonpayable",
      "type": "function"
    },
    {
      "inputs": [],
      "name": "setPayCompleteLastReserv",
      "outputs": [],
      "stateMutability": "nonpayable",
      "type": "function"
    },
    {
      "inputs": [
        {
          "internalType": "address",
          "name": "target",
          "type": "address"
        }
      ],
      "name": "setUserToAdmin",
      "outputs": [],
      "stateMutability": "nonpayable",
      "type": "function"
    },
    {
      "inputs": [
        {
          "internalType": "address",
          "name": "target",
          "type": "address"
        }
      ],
      "name": "setUserToDriver",
      "outputs": [],
      "stateMutability": "nonpayable",
      "type": "function"
    }
  ],
  "bytecode": "0x608060405234801561001057600080fd5b50336000806101000a81548173ffffffffffffffffffffffffffffffffffffffff021916908373ffffffffffffffffffffffffffffffffffffffff16021790555061274e806100606000396000f3fe608060405234801561001057600080fd5b50600436106101005760003560e01c80638da5cb5b11610097578063b23a62f911610066578063b23a62f9146102c8578063e2e1d18b146102d2578063e54e5741146102dc578063f8b2cb4f146102f857610100565b80638da5cb5b1461022b578063a79a367114610249578063a87430ba14610279578063ab4a9d54146102ac57610100565b80632a1e0b78116100d35780632a1e0b78146101895780633410671d146101b95780636f77926b146101c3578063823c63f2146101f357610100565b8063079eaf34146101055780630c33cf64146101215780630d07f90b1461013d5780630e6db3ba1461016d575b600080fd5b61011f600480360381019061011a9190611e11565b610328565b005b61013b60048036038101906101369190611ee7565b6104bf565b005b61015760048036038101906101529190611ee7565b6105e0565b6040516101649190611f8b565b60405180910390f35b61018760048036038101906101829190611ee7565b610600565b005b6101a3600480360381019061019e9190611ee7565b61079c565b6040516101b09190612159565b60405180910390f35b6101c1610ab5565b005b6101dd60048036038101906101d89190611ee7565b610bc1565b6040516101ea91906121e5565b60405180910390f35b61020d60048036038101906102089190612233565b610dc3565b604051610222999897969594939291906122f9565b60405180910390f35b610233610f85565b6040516102409190612394565b60405180910390f35b610263600480360381019061025e9190611ee7565b610fa9565b604051610270919061253d565b60405180910390f35b610293600480360381019061028e9190611ee7565b611293565b6040516102a3949392919061255f565b60405180910390f35b6102c660048036038101906102c19190611e11565b6113e0565b005b6102d061163d565b005b6102da611760565b005b6102f660048036038101906102f191906125de565b61186d565b005b610312600480360381019061030d9190611ee7565b6119b9565b60405161031f919061260b565b60405180910390f35b60001515600160003373ffffffffffffffffffffffffffffffffffffffff1673ffffffffffffffffffffffffffffffffffffffff16815260200190815260200160002060030160009054906101000a900460ff1615151461038857600080fd5b60405180608001604052808381526020018281526020016000815260200160011515815250600160003373ffffffffffffffffffffffffffffffffffffffff1673ffffffffffffffffffffffffffffffffffffffff1681526020019081526020016000206000820151816000019080519060200190610408929190611b81565b506020820151816001019080519060200190610425929190611b81565b506040820151816002015560608201518160030160006101000a81548160ff0219169083151502179055509050506000600260003373ffffffffffffffffffffffffffffffffffffffff1673ffffffffffffffffffffffffffffffffffffffff16815260200190815260200160002060006101000a81548160ff021916908360028111156104b6576104b5611f14565b5b02179055505050565b60008054906101000a900473ffffffffffffffffffffffffffffffffffffffff1673ffffffffffffffffffffffffffffffffffffffff163373ffffffffffffffffffffffffffffffffffffffff1614801561056d575060011515600160003373ffffffffffffffffffffffffffffffffffffffff1673ffffffffffffffffffffffffffffffffffffffff16815260200190815260200160002060030160009054906101000a900460ff161515145b61057657600080fd5b60028060008373ffffffffffffffffffffffffffffffffffffffff1673ffffffffffffffffffffffffffffffffffffffff16815260200190815260200160002060006101000a81548160ff021916908360028111156105d8576105d7611f14565b5b021790555050565b60026020528060005260406000206000915054906101000a900460ff1681565b60008054906101000a900473ffffffffffffffffffffffffffffffffffffffff1673ffffffffffffffffffffffffffffffffffffffff163373ffffffffffffffffffffffffffffffffffffffff161480610728575060011515600160003373ffffffffffffffffffffffffffffffffffffffff1673ffffffffffffffffffffffffffffffffffffffff16815260200190815260200160002060030160009054906101000a900460ff16151514801561072757506002808111156106c6576106c5611f14565b5b600260003373ffffffffffffffffffffffffffffffffffffffff1673ffffffffffffffffffffffffffffffffffffffff16815260200190815260200160002060009054906101000a900460ff16600281111561072557610724611f14565b5b145b5b61073157600080fd5b6001600260008373ffffffffffffffffffffffffffffffffffffffff1673ffffffffffffffffffffffffffffffffffffffff16815260200190815260200160002060006101000a81548160ff0219169083600281111561079457610793611f14565b5b021790555050565b6107a4611c07565b60011515600160008473ffffffffffffffffffffffffffffffffffffffff1673ffffffffffffffffffffffffffffffffffffffff16815260200190815260200160002060030160009054906101000a900460ff1615151461080457600080fd5b6000600360008473ffffffffffffffffffffffffffffffffffffffff1673ffffffffffffffffffffffffffffffffffffffff168152602001908152602001600020805490509050600360008473ffffffffffffffffffffffffffffffffffffffff1673ffffffffffffffffffffffffffffffffffffffff1681526020019081526020016000206001826108979190612655565b815481106108a8576108a7612689565b5b9060005260206000209060070201604051806101200160405290816000820160009054906101000a900473ffffffffffffffffffffffffffffffffffffffff1673ffffffffffffffffffffffffffffffffffffffff1673ffffffffffffffffffffffffffffffffffffffff1681526020016001820154815260200160028201548152602001600382015481526020016004820160009054906101000a900460ff1660ff1660ff1681526020016004820160019054906101000a900460ff161515151581526020016004820160029054906101000a900460ff16151515158152602001600582018054610999906126e7565b80601f01602080910402602001604051908101604052809291908181526020018280546109c5906126e7565b8015610a125780601f106109e757610100808354040283529160200191610a12565b820191906000526020600020905b8154815290600101906020018083116109f557829003601f168201915b50505050508152602001600682018054610a2b906126e7565b80601f0160208091040260200160405190810160405280929190818152602001828054610a57906126e7565b8015610aa45780601f10610a7957610100808354040283529160200191610aa4565b820191906000526020600020905b815481529060010190602001808311610a8757829003601f168201915b505050505081525050915050919050565b60011515600160003373ffffffffffffffffffffffffffffffffffffffff1673ffffffffffffffffffffffffffffffffffffffff16815260200190815260200160002060030160009054906101000a900460ff161515148015610b2457506000610b1e33611a65565b60020154145b610b2d57600080fd5b6000610b3833611a65565b905060018160040160026101000a81548160ff0219169083151502179055508060000160009054906101000a900473ffffffffffffffffffffffffffffffffffffffff1673ffffffffffffffffffffffffffffffffffffffff167ff3aa2fff284996e4fa38020c266c1d44b0d11899054a26f3d96dd8c46bdcc03a60405160405180910390a250565b610bc9611c70565b60011515600160008473ffffffffffffffffffffffffffffffffffffffff1673ffffffffffffffffffffffffffffffffffffffff16815260200190815260200160002060030160009054906101000a900460ff16151514610c2957600080fd5b600160008373ffffffffffffffffffffffffffffffffffffffff1673ffffffffffffffffffffffffffffffffffffffff168152602001908152602001600020604051806080016040529081600082018054610c83906126e7565b80601f0160208091040260200160405190810160405280929190818152602001828054610caf906126e7565b8015610cfc5780601f10610cd157610100808354040283529160200191610cfc565b820191906000526020600020905b815481529060010190602001808311610cdf57829003601f168201915b50505050508152602001600182018054610d15906126e7565b80601f0160208091040260200160405190810160405280929190818152602001828054610d41906126e7565b8015610d8e5780601f10610d6357610100808354040283529160200191610d8e565b820191906000526020600020905b815481529060010190602001808311610d7157829003601f168201915b50505050508152602001600282015481526020016003820160009054906101000a900460ff1615151515815250509050919050565b60036020528160005260406000208181548110610ddf57600080fd5b9060005260206000209060070201600091509150508060000160009054906101000a900473ffffffffffffffffffffffffffffffffffffffff16908060010154908060020154908060030154908060040160009054906101000a900460ff16908060040160019054906101000a900460ff16908060040160029054906101000a900460ff1690806005018054610e74906126e7565b80601f0160208091040260200160405190810160405280929190818152602001828054610ea0906126e7565b8015610eed5780601f10610ec257610100808354040283529160200191610eed565b820191906000526020600020905b815481529060010190602001808311610ed057829003601f168201915b505050505090806006018054610f02906126e7565b80601f0160208091040260200160405190810160405280929190818152602001828054610f2e906126e7565b8015610f7b5780601f10610f5057610100808354040283529160200191610f7b565b820191906000526020600020905b815481529060010190602001808311610f5e57829003601f168201915b5050505050905089565b60008054906101000a900473ffffffffffffffffffffffffffffffffffffffff1681565b606060011515600160008473ffffffffffffffffffffffffffffffffffffffff1673ffffffffffffffffffffffffffffffffffffffff16815260200190815260200160002060030160009054906101000a900460ff1615151461100b57600080fd5b600360008373ffffffffffffffffffffffffffffffffffffffff1673ffffffffffffffffffffffffffffffffffffffff168152602001908152602001600020805480602002602001604051908101604052809291908181526020016000905b828210156112885783829060005260206000209060070201604051806101200160405290816000820160009054906101000a900473ffffffffffffffffffffffffffffffffffffffff1673ffffffffffffffffffffffffffffffffffffffff1673ffffffffffffffffffffffffffffffffffffffff1681526020016001820154815260200160028201548152602001600382015481526020016004820160009054906101000a900460ff1660ff1660ff1681526020016004820160019054906101000a900460ff161515151581526020016004820160029054906101000a900460ff16151515158152602001600582018054611165906126e7565b80601f0160208091040260200160405190810160405280929190818152602001828054611191906126e7565b80156111de5780601f106111b3576101008083540402835291602001916111de565b820191906000526020600020905b8154815290600101906020018083116111c157829003601f168201915b505050505081526020016006820180546111f7906126e7565b80601f0160208091040260200160405190810160405280929190818152602001828054611223906126e7565b80156112705780601f1061124557610100808354040283529160200191611270565b820191906000526020600020905b81548152906001019060200180831161125357829003601f168201915b5050505050815250508152602001906001019061106a565b505050509050919050565b60016020528060005260406000206000915090508060000180546112b6906126e7565b80601f01602080910402602001604051908101604052809291908181526020018280546112e2906126e7565b801561132f5780601f106113045761010080835404028352916020019161132f565b820191906000526020600020905b81548152906001019060200180831161131257829003601f168201915b505050505090806001018054611344906126e7565b80601f0160208091040260200160405190810160405280929190818152602001828054611370906126e7565b80156113bd5780601f10611392576101008083540402835291602001916113bd565b820191906000526020600020905b8154815290600101906020018083116113a057829003601f168201915b5050505050908060020154908060030160009054906101000a900460ff16905084565b60011515600160003373ffffffffffffffffffffffffffffffffffffffff1673ffffffffffffffffffffffffffffffffffffffff16815260200190815260200160002060030160009054906101000a900460ff1615151461144057600080fd5b600360003373ffffffffffffffffffffffffffffffffffffffff1673ffffffffffffffffffffffffffffffffffffffff1681526020019081526020016000206040518061012001604052803373ffffffffffffffffffffffffffffffffffffffff1681526020014281526020016000815260200160008152602001600060ff16815260200160001515815260200160001515815260200184815260200183815250908060018154018082558091505060019003906000526020600020906007020160009091909190915060008201518160000160006101000a81548173ffffffffffffffffffffffffffffffffffffffff021916908373ffffffffffffffffffffffffffffffffffffffff16021790555060208201518160010155604082015181600201556060820151816003015560808201518160040160006101000a81548160ff021916908360ff16021790555060a08201518160040160016101000a81548160ff02191690831515021790555060c08201518160040160026101000a81548160ff02191690831515021790555060e08201518160050190805190602001906115ec929190611b81565b5061010082015181600601908051906020019061160a929190611b81565b5050507fdd1c69d29c1b10da22392c5bb2c9fcde65af28becfb66b1fadf2d41fc84c599760405160405180910390a15050565b60011515600160003373ffffffffffffffffffffffffffffffffffffffff1673ffffffffffffffffffffffffffffffffffffffff16815260200190815260200160002060030160009054906101000a900460ff1615151480156116bd5750600015156116a833611a65565b60040160029054906101000a900460ff161515145b80156116d5575060006116cf33611a65565b60020154145b6116de57600080fd5b426116e833611a65565b600201819055506116f833611a65565b60000160009054906101000a900473ffffffffffffffffffffffffffffffffffffffff1673ffffffffffffffffffffffffffffffffffffffff167f82e5b65aeb83b3617124292be93a7628109935d45e1177d8a721401af830f42860405160405180910390a2565b60011515600160003373ffffffffffffffffffffffffffffffffffffffff1673ffffffffffffffffffffffffffffffffffffffff16815260200190815260200160002060030160009054906101000a900460ff1615151480156117d0575060006117c933611a65565b6003015414155b6117d957600080fd5b60006117e433611a65565b905060018160040160016101000a81548160ff0219169083151502179055508060000160009054906101000a900473ffffffffffffffffffffffffffffffffffffffff1673ffffffffffffffffffffffffffffffffffffffff167fffc23527451ba78650f0fb3d77903307a21a4d95bc670d4363793b3de9d44cc760405160405180910390a250565b60011515600160003373ffffffffffffffffffffffffffffffffffffffff1673ffffffffffffffffffffffffffffffffffffffff16815260200190815260200160002060030160009054906101000a900460ff16151514801561191257506000600360003373ffffffffffffffffffffffffffffffffffffffff1673ffffffffffffffffffffffffffffffffffffffff16815260200190815260200160002080549050115b61191b57600080fd5b600061192633611a65565b9050428160030181905550818160040160006101000a81548160ff021916908360ff1602179055508060000160009054906101000a900473ffffffffffffffffffffffffffffffffffffffff1673ffffffffffffffffffffffffffffffffffffffff167f21babe125c5c1c150251f23a193b80984b331789fe193b4bd254674cafc9cbb160405160405180910390a25050565b600060011515600160008473ffffffffffffffffffffffffffffffffffffffff1673ffffffffffffffffffffffffffffffffffffffff16815260200190815260200160002060030160009054906101000a900460ff16151514611a1b57600080fd5b600160008373ffffffffffffffffffffffffffffffffffffffff1673ffffffffffffffffffffffffffffffffffffffff168152602001908152602001600020600201549050919050565b600060011515600160008473ffffffffffffffffffffffffffffffffffffffff1673ffffffffffffffffffffffffffffffffffffffff16815260200190815260200160002060030160009054906101000a900460ff16151514611ac757600080fd5b6000600360008473ffffffffffffffffffffffffffffffffffffffff1673ffffffffffffffffffffffffffffffffffffffff168152602001908152602001600020805490509050600360008473ffffffffffffffffffffffffffffffffffffffff1673ffffffffffffffffffffffffffffffffffffffff168152602001908152602001600020600182611b5a9190612655565b81548110611b6b57611b6a612689565b5b9060005260206000209060070201915050919050565b828054611b8d906126e7565b90600052602060002090601f016020900481019282611baf5760008555611bf6565b82601f10611bc857805160ff1916838001178555611bf6565b82800160010185558215611bf6579182015b82811115611bf5578251825591602001919060010190611bda565b5b509050611c039190611c9a565b5090565b604051806101200160405280600073ffffffffffffffffffffffffffffffffffffffff168152602001600081526020016000815260200160008152602001600060ff16815260200160001515815260200160001515815260200160608152602001606081525090565b60405180608001604052806060815260200160608152602001600081526020016000151581525090565b5b80821115611cb3576000816000905550600101611c9b565b5090565b6000604051905090565b600080fd5b600080fd5b600080fd5b600080fd5b6000601f19601f8301169050919050565b7f4e487b7100000000000000000000000000000000000000000000000000000000600052604160045260246000fd5b611d1e82611cd5565b810181811067ffffffffffffffff82111715611d3d57611d3c611ce6565b5b80604052505050565b6000611d50611cb7565b9050611d5c8282611d15565b919050565b600067ffffffffffffffff821115611d7c57611d7b611ce6565b5b611d8582611cd5565b9050602081019050919050565b82818337600083830152505050565b6000611db4611daf84611d61565b611d46565b905082815260208101848484011115611dd057611dcf611cd0565b5b611ddb848285611d92565b509392505050565b600082601f830112611df857611df7611ccb565b5b8135611e08848260208601611da1565b91505092915050565b60008060408385031215611e2857611e27611cc1565b5b600083013567ffffffffffffffff811115611e4657611e45611cc6565b5b611e5285828601611de3565b925050602083013567ffffffffffffffff811115611e7357611e72611cc6565b5b611e7f85828601611de3565b9150509250929050565b600073ffffffffffffffffffffffffffffffffffffffff82169050919050565b6000611eb482611e89565b9050919050565b611ec481611ea9565b8114611ecf57600080fd5b50565b600081359050611ee181611ebb565b92915050565b600060208284031215611efd57611efc611cc1565b5b6000611f0b84828501611ed2565b91505092915050565b7f4e487b7100000000000000000000000000000000000000000000000000000000600052602160045260246000fd5b60038110611f5457611f53611f14565b5b50565b6000819050611f6582611f43565b919050565b6000611f7582611f57565b9050919050565b611f8581611f6a565b82525050565b6000602082019050611fa06000830184611f7c565b92915050565b611faf81611ea9565b82525050565b6000819050919050565b611fc881611fb5565b82525050565b600060ff82169050919050565b611fe481611fce565b82525050565b60008115159050919050565b611fff81611fea565b82525050565b600081519050919050565b600082825260208201905092915050565b60005b8381101561203f578082015181840152602081019050612024565b8381111561204e576000848401525b50505050565b600061205f82612005565b6120698185612010565b9350612079818560208601612021565b61208281611cd5565b840191505092915050565b6000610120830160008301516120a66000860182611fa6565b5060208301516120b96020860182611fbf565b5060408301516120cc6040860182611fbf565b5060608301516120df6060860182611fbf565b5060808301516120f26080860182611fdb565b5060a083015161210560a0860182611ff6565b5060c083015161211860c0860182611ff6565b5060e083015184820360e08601526121308282612054565b91505061010083015184820361010086015261214c8282612054565b9150508091505092915050565b60006020820190508181036000830152612173818461208d565b905092915050565b600060808301600083015184820360008601526121988282612054565b915050602083015184820360208601526121b28282612054565b91505060408301516121c76040860182611fbf565b5060608301516121da6060860182611ff6565b508091505092915050565b600060208201905081810360008301526121ff818461217b565b905092915050565b61221081611fb5565b811461221b57600080fd5b50565b60008135905061222d81612207565b92915050565b6000806040838503121561224a57612249611cc1565b5b600061225885828601611ed2565b92505060206122698582860161221e565b9150509250929050565b61227c81611ea9565b82525050565b61228b81611fb5565b82525050565b61229a81611fce565b82525050565b6122a981611fea565b82525050565b600082825260208201905092915050565b60006122cb82612005565b6122d581856122af565b93506122e5818560208601612021565b6122ee81611cd5565b840191505092915050565b60006101208201905061230f600083018c612273565b61231c602083018b612282565b612329604083018a612282565b6123366060830189612282565b6123436080830188612291565b61235060a08301876122a0565b61235d60c08301866122a0565b81810360e083015261236f81856122c0565b905081810361010083015261238481846122c0565b90509a9950505050505050505050565b60006020820190506123a96000830184612273565b92915050565b600081519050919050565b600082825260208201905092915050565b6000819050602082019050919050565b6000610120830160008301516123f46000860182611fa6565b5060208301516124076020860182611fbf565b50604083015161241a6040860182611fbf565b50606083015161242d6060860182611fbf565b5060808301516124406080860182611fdb565b5060a083015161245360a0860182611ff6565b5060c083015161246660c0860182611ff6565b5060e083015184820360e086015261247e8282612054565b91505061010083015184820361010086015261249a8282612054565b9150508091505092915050565b60006124b383836123db565b905092915050565b6000602082019050919050565b60006124d3826123af565b6124dd81856123ba565b9350836020820285016124ef856123cb565b8060005b8581101561252b578484038952815161250c85826124a7565b9450612517836124bb565b925060208a019950506001810190506124f3565b50829750879550505050505092915050565b6000602082019050818103600083015261255781846124c8565b905092915050565b6000608082019050818103600083015261257981876122c0565b9050818103602083015261258d81866122c0565b905061259c6040830185612282565b6125a960608301846122a0565b95945050505050565b6125bb81611fce565b81146125c657600080fd5b50565b6000813590506125d8816125b2565b92915050565b6000602082840312156125f4576125f3611cc1565b5b6000612602848285016125c9565b91505092915050565b60006020820190506126206000830184612282565b92915050565b7f4e487b7100000000000000000000000000000000000000000000000000000000600052601160045260246000fd5b600061266082611fb5565b915061266b83611fb5565b92508282101561267e5761267d612626565b5b828203905092915050565b7f4e487b7100000000000000000000000000000000000000000000000000000000600052603260045260246000fd5b7f4e487b7100000000000000000000000000000000000000000000000000000000600052602260045260246000fd5b600060028204905060018216806126ff57607f821691505b602082108103612712576127116126b8565b5b5091905056fea2646970667358221220156002ee816d0b1c05232a30f617c5f4d70a4b30b181abdfd6f15cb22dc2b19664736f6c634300080e0033",
  "immutableReferences": {},
  "source": "// SPDX-License-Identifier: GPL-3.0\r\npragma solidity >=0.7.0 <0.9.0;\r\n\r\ncontract TaxiTxRx {\r\n    enum UserRank {Client, Driver, Admin}\r\n\r\n    struct Reservation{\r\n        address target; //  \r\n        uint occur; //   (timestamp)\r\n        uint start; //  \r\n        uint end; //  \r\n        uint8 paid; // \r\n        bool pay_completed; // \r\n        bool cancelled; // \r\n        string start_point; // \r\n        string dest_point;  // \r\n    }\r\n\r\n\r\n    struct User{\r\n        string phone_number; // \r\n        string name; // \r\n        uint balance; // \r\n        bool created; // \r\n    }\r\n\r\n\r\n    event addReservEvent();\r\n    event checkInTaxiEvent(address indexed addr);\r\n    event checkOutTaxiEvent(address indexed addr);\r\n    event cancelLastReservEvent(address indexed addr);\r\n    event payCompleteEvent(address indexed addr);\r\n\r\n    address public owner; //  \r\n    mapping (address => User) public users; //  \r\n    mapping (address => UserRank) public user_ranks; //  \r\n    mapping (address => Reservation[]) public user_reservs; //  \r\n\r\n    constructor(){\r\n        owner = msg.sender;\r\n    }\r\n\r\n    //   .\r\n    function getBalance(address caller) public view returns (uint) {\r\n        require(users[caller].created == true);\r\n        return users[caller].balance;\r\n    }\r\n\r\n    //   .\r\n    function getUser(address caller) public view returns (User memory){\r\n        require(users[caller].created == true);\r\n        return users[caller];\r\n    }\r\n\r\n    //   .\r\n    function getReservationList(address caller) public view returns (Reservation[] memory) {\r\n        require(users[caller].created == true);\r\n        return user_reservs[caller];\r\n    }\r\n\r\n\r\n    //    .    . ( )\r\n    function getLastReservation(address caller) public view returns (Reservation memory){\r\n        require(users[caller].created == true);\r\n        uint size = user_reservs[caller].length;\r\n        return user_reservs[caller][size-1];\r\n    }\r\n\r\n    //    . ( )\r\n    function _getLastReservation(address caller) internal view returns (Reservation storage){\r\n        require(users[caller].created == true);\r\n        uint size = user_reservs[caller].length;\r\n        return user_reservs[caller][size-1];\r\n    }\r\n\r\n    //  .\r\n    function addUser(string memory phone_number, string memory name) public {\r\n        require(users[msg.sender].created == false);\r\n        users[msg.sender] = User(phone_number, name, 0, true);\r\n        user_ranks[msg.sender] = UserRank.Client;\r\n        \r\n    }\r\n\r\n    //  \r\n    function addReserv(string memory sp, string memory dp) public {\r\n        require(users[msg.sender].created == true);\r\n        user_reservs[msg.sender].push(Reservation(msg.sender, block.timestamp, 0, 0, 0, false, false, sp, dp));\r\n        emit addReservEvent();\r\n    }\r\n\r\n    //  \r\n    function checkInTaxi() public {\r\n        require(users[msg.sender].created == true && _getLastReservation(msg.sender).cancelled == false && _getLastReservation(msg.sender).start == 0);\r\n        _getLastReservation(msg.sender).start = block.timestamp;\r\n        emit checkInTaxiEvent(_getLastReservation(msg.sender).target);\r\n    }\r\n\r\n    //     \r\n    function checkOutTaxi(uint8 paid) public {\r\n        require(users[msg.sender].created == true && user_reservs[msg.sender].length > 0);\r\n        Reservation storage last = _getLastReservation(msg.sender);\r\n        last.end = block.timestamp; // \r\n        last.paid = paid;\r\n        emit checkOutTaxiEvent(last.target);\r\n    }\r\n    \r\n    //  \r\n    function cancelLastReserv() public {\r\n        require(users[msg.sender].created == true && _getLastReservation(msg.sender).start == 0);\r\n        Reservation storage last = _getLastReservation(msg.sender);\r\n        last.cancelled = true;\r\n        emit cancelLastReservEvent(last.target);\r\n    }\r\n\r\n    //  \r\n    function setPayCompleteLastReserv() public{\r\n        require(users[msg.sender].created == true && _getLastReservation(msg.sender).end != 0);\r\n        Reservation storage last = _getLastReservation(msg.sender);\r\n        last.pay_completed = true;\r\n        emit payCompleteEvent(last.target);\r\n    }\r\n\r\n    //    .\r\n    function setUserToAdmin(address target) public {\r\n        require(msg.sender == owner && users[msg.sender].created == true);\r\n        user_ranks[target] = UserRank.Admin;\r\n    }\r\n\r\n    //    .\r\n    function setUserToDriver(address target) public {\r\n        require(msg.sender == owner || (users[msg.sender].created == true && user_ranks[msg.sender] == UserRank.Admin));\r\n        user_ranks[target] = UserRank.Driver;\r\n    }\r\n\r\n}",
  "sourcePath": "C:\\Users\\KangHyunWoo\\Documents\\VSCODE\\taxi_mmd2022\\contracts\\TaxiTxRx.sol",
  "compiler": {
    "name": "solc",
    "version": "0.8.14+commit.80d49f37.Emscripten.clang"
  },
  "schemaVersion": "3.4.7",
  "updatedAt": "2022-05-23T03:42:48.716Z",
  "networkType": "ethereum",
  "devdoc": {
    "kind": "dev",
    "methods": {},
    "version": 1
  },
  "userdoc": {
    "kind": "user",
    "methods": {},
    "version": 1
  }
}